:100000000C9456060C94F5110C94CE110C947E06AB
:100010000C947E060C947E060C947E060C947E0650
:100020000C947E060C947E060C947E060C947E0640
:100030000C947E060C947E060C947E060C947E0630
:100040000C9484110C947E060C948D160C946716F7
:100050000C947E060C947E060C947E060C947E0610
:100060000C941C120C947E06D7085B090B09050939
:100070001D0922094F09FFD0FFE0FFCFFF64FFD128
:10008000FF32380C060201FF64FFD0FFFE000000C3
:1000900000240027002A0000000000250028002B73
:1000A00000000000002300260029000404040404CA
:1000B0000404040202020202020303030303030115
:1000C00002040810204080010204081020010204EC
:1000D00008102000000008000201000003040700CF
:1000E0000000000000000000091200FC0A01E80303
:1000F000D720FFFD0EFD0BFD00000009000E010BD7
:100100000B09040080808080808080000080800453
:10011000040409030790909090080A0A090000243B
:100120002424FF2424FF242424070B0B0901FF109F
:100130007C929050381412927C10070A0A09010030
:1001400042A4A4481010244A4A84070A0A0901005C
:10015000609090906062948894620104040904079E
:1001600080808080030C0C0903FF20404080808049
:10017000808080404020030C0C0903FF8040402019
:10018000202020202040408007070709010310920B
:100190005438549210070707090101101010FE107F
:1001A00010100204040904FEC0C0408007010109C8
:1001B0000104FE020202090400C0C0070A0A090184
:1001C0000002040408101020404080070A0A0901B8
:1001D0000038448282828282824438070A0A0901F6
:1001E00000103050901010101010FE070A0A09017C
:1001F00000384482020408102040FE070A0A090160
:1002000000FE020408180402028478070A0A0901A1
:1002100000040C14244484FE040404070A0A09019F
:1002200000FE808080F80402028478070A0A09012F
:10023000003C408080B8C482824438070A0A090121
:1002400000FE020404080810101010070A0A090131
:100250000038448244384482824438070A0A09013B
:100260000038448282463A020204780207070904F1
:1002700000C0C0000000C0C00209090904FEC0C0DF
:10028000000000C0C04080050909090200081020D4
:10029000408040201008070404090102FE0000FE0F
:1002A000050909090200804020100810204080073D
:1002B0000A0A0901003844820204081010001007DD
:1002C0000A0A09010038449AAAAAAAAA9C403C0733
:1002D0000A0A09010010282828447C4482828207E7
:1002E0000A0A090100F8848284F884828284F8076B
:1002F0000A0A0901003C42808080808080423C07DD
:100300000A0A090100F88482828282828284F807C4
:100310000A0A090100FE808080F880808080FE0744
:100320000A0A090100FE808080F8808080808007B2
:100330000A0A09010038448280808E82824438078C
:100340000A0A09010082828282FE828282828205FA
:100350000A0A090200F82020202020202020F80787
:100360000A0A0901003E080808080808888870077A
:100370000A0A09010082848890A0D08884828207BA
:100380000A0A090100808080808080808080FE07CA
:100390000A0A0901008282C6AA92828282828207A8
:1003A0000A0A0901008282C2A2928A868282820798
:1003B0000A0A0901007C82828282828282827C0710
:1003C0000A0A090100F884828284F880808080080B
:1003D0000B0B0901FF384482828282828A443A01EF
:1003E000070A0A090100F884828284F890888482CE
:1003F000070A0A0901007C8280807C020202827C5A
:10040000070A0A090100FE10101010101010101039
:10041000070A0A090100828282828282828244382B
:10042000070A0A09010082828244444428282810CD
:10043000070A0A0901008282828292929292AA4459
:10044000070A0A0901008282442810102844828287
:10045000070A0A09010082824428101010101010A7
:10046000070A0A090100FE0204081020408080FEED
:10047000040C0C0903FFF0808080808080808080E5
:1004800080F0070A0A09010080404020101008048B
:100490000402040C0C0902FFF010101010101010D0
:1004A000101010F007040409010610284482080106
:1004B000010900FFFF03030309030A804020070727
:1004C000070901007C02027E82867A070A0A090176
:1004D00000808080BCC2828282C2BC0707070901FB
:1004E000007C82808080827C070A0A090100020267
:1004F000027A86828282867A0707070901007C8257
:1005000082FE80827C070A0A0901001C2222202028
:10051000F820202020070A0A0901FD7A84848478C3
:10052000807C82827C070A0A090100808080BCC22C
:100530008282828282050A0A090200600000E020AD
:1005400020202020F8050D0D0902FD1800003808B4
:100550000808080808888870070A0A0901008080CE
:1005600080848890B0C88482050A0A090200E020CD
:1005700020202020202020F8070707090100EC9206
:100580009292929282070707090100BCC28282827E
:1005900082820707070901007C82828282827C07AF
:1005A0000A0A0901FDB8C4828282C4B8808080072B
:1005B0000A0A0901FD3A46828282463A020202078D
:1005C00007070901009C62424040404007070709B5
:1005D00001007C82807C02827C07090909010020DD
:1005E00020FC20202020221C07070709010082820E
:1005F000828282867A0707070901008282444428A2
:1006000028100707070901008282929292AA4407E4
:10061000070709010082442810284482070A0A09B2
:1006200001FD42422424241818109060070707098E
:100630000100FE0408102040FE060B0B0902001CFE
:1006400020202020C0202020201C010C0C0904FFA9
:10065000808080808080808080808080060B0B0975
:100660000100E0101010100C10101010E007030330
:1006700009010762928CFFFFFFFFFFFFFFFFFFFFF3
:10068000FFFFFFFFFFFFFFFFFFFFFFFFFFFFFFFF7A
:10069000FFFFFFFFFFFFFF00000009000E010B0B33
:1006A00009040080800000808080808080800608AF
:1006B0000809010008789490A0A47840070A0A0964
:1006C00001001C222020F8202060A25C07060609F9
:1006D0000103827C44447C82070A0A090100828269
:1006E00044287C107C101010010B0B0904FF808043
:1006F000808080008080808080040B0B0902FF6076
:100700009080609090906010906003020209030B4B
:10071000A0A00809090900013C4299A5A1A5994298
:100720003C050707090103609070907800F80708FE
:100730000809010112244890904824120604040973
:100740000102FC040404050101090204F808090976
:100750000900013C42B9A5BDA9A5423C0601010919
:100760000109FC040404090306609090600709096C
:10077000090101101010FE10101000FE04060609F9
:1007800001046090106080F0040606090104609086
:100790002010906003030309030A20408007090921
:1007A0000901FE8282828282C6BA8080070A0A0913
:1007B00001007E8A8A8A7A0A0A0A0A0A0202020961
:1007C0000404C0C00403030902FD20906003060670
:1007D00009010440C0404040E005060609010470DC
:1007E00088887000F807080809010190482412124F
:1007F000244890070A0A09010040C0404042E60A26
:10080000121A06070A0A09010040C040404CF202D1
:100810000C101E070A0A0901006090201092660A57
:10082000121A06070A0A0901001000101020408061
:1008300082827C070E0E0901002010080010282873
:1008400028447C44828282070E0E09010008102091
:100850000010282828447C44828282070E0E090159
:10086000001028440010282828447C4482828207F3
:100870000D0D09010034580010282828447C4482BA
:100880008282070D0D09010028280010282828441D
:100890007C44828282070E0E090100102828101065
:1008A000282828447C44828282070A0A0901001E03
:1008B0002828284E784888888E070D0D0901FD3CB0
:1008C00042808080808080423C082418070E0E09F8
:1008D000010020100800FE808080F880808080FE6B
:1008E000070E0E09010008102000FE808080F880AD
:1008F000808080FE070E0E09010010284400FE8053
:100900008080F880808080FE070D0D090100282876
:1009100000FE808080F880808080FE050E0E090237
:100920000040201000F82020202020202020F80562
:100930000E0E09020010204000F820202020202068
:100940002020F8050E0E09020020508800F8202013
:10095000202020202020F8050D0D09020050500015
:10096000F82020202020202020F8070A0A09010072
:1009700078444242F24242424478070D0D09010098
:100980003458008282C2A2928A86828282070E0E28
:10099000090100201008007C828282828282828289
:1009A0007C070E0E090100081020007C82828282E2
:1009B000828282827C070E0E090100102844007C8E
:1009C00082828282828282827C070D0D090100343C
:1009D00058007C82828282828282827C070D0D098D
:1009E00001002828007C82828282828282827C07A7
:1009F000070709010182442810284482070C0C09CA
:100A000001FF027C868A8A9292A2A2C27C80070E93
:100A10000E09010020100800828282828282828276
:100A20004438070E0E0901000810200082828282DD
:100A3000828282824438070E0E0901001028440089
:100A400082828282828282824438070D0D090100EF
:100A500028280082828282828282824438070E0E97
:100A60000901000810200082824428101010101084
:100A700010070A0A0901008080FC828282FC8080C3
:100A800080060A0A09010038444448D048444444D6
:100A900058070B0B090100201008007C02027E821F
:100AA000867A070B0B090100081020007C02027EE9
:100AB00082867A070B0B090100102844007C020291
:100AC0007E82867A070A0A0901003458007C0202F5
:100AD0007E82867A070A0A0901002828007C020221
:100AE0007E82867A070C0C09010010282810007CF1
:100AF00002027E82867A0707070901006C12127EC5
:100B000090926C070A0A0901FD7C82808080827CB9
:100B1000104830070B0B090100201008007C82826E
:100B2000FE80827C070B0B090100081020007C82EC
:100B300082FE80827C070B0B090100102844007C98
:100B40008282FE80827C070A0A0901002828007C34
:100B50008282FE80827C050C0C090200804020000D
:100B600000E02020202020F8050C0C0902001020B5
:100B7000400000E02020202020F8050C0C09020095
:100B80002050880000E02020202020F8050B0B09D1
:100B9000020050500000E02020202020F8070B0B1E
:100BA000090100483050083C448282824438070AD8
:100BB0000A090100345800BCC28282828282070B7B
:100BC0000B090100201008007C82828282827C074F
:100BD0000B0B090100081020007C82828282827C3B
:100BE000070B0B090100102844007C82828282825C
:100BF0007C070A0A0901003458007C8282828282C2
:100C00007C070A0A0901002828007C8282828282ED
:100C10007C07090909010010381000FE0010381087
:100C20000709090901FF027C8A8A92A2A27C800737
:100C30000B0B090100402010008282828282867A9A
:100C4000070B0B0901000810200082828282828635
:100C50007A070B0B090100102844008282828282ED
:100C6000867A070A0A090100282800828282828285
:100C7000867A070E0E0901FD040810004242242462
:100C8000241818109060070B0B0901FE8080B8C46F
:100C9000828282C4B88080070D0D0901FD242400E2
:100CA000424224242418181090601A1A11241FBEDE
:100CB000CFEFD8E0DEBFCDBF12E0A0E0B1E0E0E4CE
:100CC000FDE302C005900D92AA35B107D9F724E0E3
:100CD000AAE5B2E001C01D92A536B207E1F716E021
:100CE000C6E5D6E004C02197FE010E946A1AC53508
:100CF000D107C9F70E944B180C949E1E0C9400005B
:100D0000FC01E60FF11D849190E0982F8827319621
:100D1000E4918E0F911D08952EE93FE0009729F090
:100D2000F9013197F1F70197F9CF08959091620297
:100D3000209161025091600260915F02A0915D027A
:100D4000B0915E02E0915B02F0915C023FB730939C
:100D50005A02F8943C91392B4C91422398E087FF3A
:100D600002C03C9301C04C93880F2081262320832E
:100D70002081252B2083915091F780915A028FBFBB
:100D80000895CF93C62F811102C088EF03C0813030
:100D900019F48AEF0E9496068C2F807F0E94960697
:100DA0008C2F8295807F0E94960688E290E0FC015D
:100DB0003197F1F7FC013197F1F7FC013197F1F729
:100DC0000197F1F7CF910895282F30E0F901E5550B
:100DD000FF4FE491F0E0EE0FFF1FE956FF4F8591C2
:100DE000949190935E0280935D0270E0FB01E55563
:100DF000FF4F9491E92FF0E0EE0FFF1FE956FF4FF0
:100E00008591949190935C0280935B02F901E15487
:100E1000FF4F249120936202FB01E154FF4F649144
:100E200060936002609560935F0220952093610259
:100E30000895DB011496ED91FC91159720E030E0C8
:100E400065E00994DB011496ED91FC91159720E083
:100E500030E062E00994DB011496ED91FC91159766
:100E600020E030E063E00994089580E090E0089588
:100E70008091B302811103C081E08093B302089591
:100E80009F92AF92BF92CF92DF92EF92FF920F9319
:100E90001F93CF93DF937C018B01942E69012AE08D
:100EA0004217C9F035E14313B7C0FB01A280B380FC
:100EB00040E00E94220741E0B801C7010E942B07D1
:100EC000D5011296CC9112971696AD90BC901797BB
:100ED000D8E0DC0F67C0DB011496ED91FC9115970B
:100EE00020E030E043E061E0099580E096E7A92E3C
:100EF00090E0B92EF501C49181110BC0CF3F09F4E8
:100F00004CC04C2FB801C7010E941907811143C082
:100F100083C0CF3F11F44FEFF5CFCE3F09F47CC033
:100F2000C03FC8F5C03E38F04C2F4F70B801C70124
:100F30000E94220730C0C03D38F04C2F4F70B801DE
:100F4000C7010E942B0727C0C03CF8F0D8011496B7
:100F5000ED91FC91159720E030E040E064E0C7019E
:100F60000995C295C07FCE5FD0E0CE010E948C066D
:100F7000D8011496ED91FC91159720E030E041E006
:100F800064E0C7010995CE0104C0C7FD04C08C2FE1
:100F900090E00E948C0680E001C081E0BFEFAB1AB8
:100FA000BB0AA8CF40E0B801C7010E9422074EE368
:100FB000B801C7010E941907C03240F44C2F4068A5
:100FC000B801C7010E94190740E808C040EE4C0F65
:100FD0004068B801C7010E94190748E8B801C70175
:100FE0000E94190741E0B801C7010E942207D801F9
:100FF0001496ED91FC911597950140E166E0C701CB
:101000000995B0E1AB0EB11CCF5FCD13CBCF40E063
:10101000B801C7010E942B07F801C281D381F2E316
:101020009F1609F469C0F91598F025E1921609F4A4
:1010300070C037E1931609F47DC084E198128BC02B
:10104000EE81FF818D819F01280F311DC90159C09B
:1010500096E4991609F478C0A7E49A1609F478C0C2
:10106000BBE39B1278C0F60181819381913029F016
:10107000933031F4482F885004C048E0480F01C035
:10108000482F21E03B81381708F420E031E05A81F5
:10109000451708F430E051E0481708F050E0822F7F
:1010A000852B382319F4252309F455C0D60112964F
:1010B000FC90913051F030F0923049F0933051F47F
:1010C0001FEF09C010E001E007C011E004C010E00C
:1010D0000FEF02C010E000E0F7FE04C0B601CE0141
:1010E0000E947913F6018081800F80838181810FB6
:1010F0008183FF0C89F72FC0B601CE010E947913BE
:101100002AC01192E817F907E1F7CE010E94A51352
:1011100022C0CE010E948F138823F1F0EE81FF815F
:101120008D81DF01A80FB11DCD011192E817F907DC
:10113000E1F711C0F60110828A8181838D8181508F
:1011400082838B81838307C08D81D6018C9303C0FA
:101150008981F601808381E0DF91CF911F910F910A
:10116000FF90EF90DF90CF90BF90AF909F90089549
:10117000860F911DFC0183A18F3F19F0642F0C9401
:10118000DE100895EF92FF920F931F93CF93DF939A
:10119000EC01142F7901862F90E0FC013197E730A4
:1011A000F10508F089C0EC5CFF4F0C946A1A7E01CF
:1011B00083E2E80EF11C8E01005D1F4FF701808174
:1011C0008F3F41F061E00E940E1161E0F7018081E4
:1011D0000E94DE10FFEFEF1AFF0AE016F10671F72A
:1011E00040E062E0CE010E94B80841E064E0CE0138
:1011F0000E94B80840E065E0CE010E94B8086FA1E7
:1012000088A50E94E4061EA257C08BA18F3F09F457
:1012100053C060E004C0411106C040E062E0CE016E
:101220000E94B80849C041E062E0CE010E94B808BF
:101230006FA188A50E94E4063FC0642F8EA10E9482
:10124000C1063AC08EA1811102C088EF03C081306F
:1012500019F48AEF0E949606C8E2D0E0112389F0C3
:10126000F7018081807F0E949606F70181917F01BE
:101270008295807F0E9496061150CE010197F1F76A
:10128000EDCF88E290E0FC013197F1F7FC01319756
:10129000F1F7FC013197F1F70197F1F70DC0112338
:1012A00059F0F70164918EA10E94C106FFEFEF1A79
:1012B000FF0A1150F4CF4EA381E0DF91CF911F912F
:1012C0000F91FF90EF90089526E331E0FC01318308
:1012D000208382819381009711F00C94191B08954B
:1012E000CF93DF93E091B602F091B702C085D1852C
:1012F000209761F0CE010E946409CE010E94191B63
:10130000E091B602F091B70211861086E091B60224
:10131000F091B7028681978195838483DF91CF9185
:101320000895CF92DF92EF92FF920F931F93CF9386
:10133000DF931F92CDB7DEB76C01DC01DC961C9108
:10134000DC97DB960C917C01B4E0EB0EF11CDC0128
:101350005996ED91FC915A97C70169830995482FD9
:10136000410F2981602FC7010E944C14F60123AD63
:10137000082E000C990B820F911D83AF81E090E045
:101380000F90DF91CF911F910F91FF90EF90DF9021
:10139000CF900895CF92DF92EF92FF920F931F9319
:1013A000CF93DF93CDB7DEB7C054D1090FB6F89411
:1013B000DEBF0FBECDBF8C017AA369A3BA01CE01F7
:1013C00083960E94BF1B80E2FE01B196DE0111965A
:1013D00001900D928A95E1F7F801C084D184C6018D
:1013E0000196893FF3E09F0730F425E0880F991FAD
:1013F0002A95E1F702C08FEF9FEF0E94841A7C01CB
:10140000A60185E0440F551F8A95E1F7D701A40F87
:10141000B51F80E2FE01319601900D928A95E1F7A9
:10142000CD2831F0F80162817381C7010E94B61B9B
:10143000F80182819381009711F00E94191BF80135
:10144000F382E28280859185019691878087C05CD6
:10145000DF4F0FB6F894DEBF0FBECDBFDF91CF9147
:101460001F910F91FF90EF90DF90CF900895EF9232
:10147000FF920F931F93CF93DF93EC018DAD8E01FD
:101480000C5F1F4F811105C081E08DAFC8010E9424
:10149000E213EE80FF80EDA9FEA982E00995EDA997
:1014A000FEA981E0099520E030E044E1B701C801E0
:1014B0000E94AC139E01295C3F4F47E1B701C80170
:1014C0000E94AC13EDA9FEA980E0DF91CF911F919E
:1014D0000F91FF90EF900994CF93C091B302CC236A
:1014E00029F083E00E94B510892B11F4C0E002C0FE
:1014F0001092B3028C2FCF9108957F928F929F927A
:10150000AF92BF92CF92DF92EF92FF920F931F9311
:10151000CF93DF93EC01EC81FD81048115811B8762
:101520000A872C893D898C859D850217130714F045
:10153000019609C02A893B890217130734F418164B
:1015400019061CF401979D878C878E859F854C8595
:101550005D85849F9001859F300D949F300D1124EF
:10156000021B130B3B8B2A8B48855985820F931FD7
:10157000481759070CF4CA019D8B8C8B8E819F8173
:101580000E94370A77247394C888D9880C9D602DEF
:1015900011246F5F8E819F814C2D04960E942B1821
:1015A000EA88FB88470195E0880C991C9A95E1F739
:1015B000A12CB12C2C893D898E819F81E216F306E6
:1015C00084F56E857F854C855D85649F9001659F60
:1015D000300D749F300D1124A701421B530B0417CB
:1015E000150711F4FC0114A2C501880D991D4A814B
:1015F0005B81480F591F4E5F5F4F8E819F816C2D1D
:1016000004960E94F417EE81FF8174A2888999895B
:10161000C80ED91EFFEFEF1AFF0A40E2A40EB11C5C
:10162000C9CF04960E94B0138111AECF8C819D81E9
:101630000E946C0A8823F1F0EA85FB8585E0EE0FB5
:10164000FF1F8A95E1F78A819B81E80FF91F0190BE
:10165000F081E02D82E090E0DF91CF911F910F911A
:10166000FF90EF90DF90CF90BF90AF909F908F90C2
:101670007F900994DF91CF911F910F91FF90EF9090
:10168000DF90CF90BF90AF909F908F907F90089504
:101690002F923F924F925F926F927F928F929F9282
:1016A000AF92BF92CF92DF92EF92FF920F931F9370
:1016B000CF93DF93CDB7DEB7C254D1090FB6F894FC
:1016C000DEBF0FBECDBF8C01DC0116968D919C91C3
:1016D00017970E94370ACE010F960E944A1368E0BE
:1016E00080E00E94771780915C0387FD5EC167E010
:1016F00080E00E947717E0915C03EF778E2F829550
:101700008F709AEF899FE00D1124ED8BA0915D03FE
:101710008A2F82958F70899FA00D1124AC8B8091A8
:101720005E0386FF0CC0282F2F71322F32953F7039
:10173000399F200D11242B8B80728F8B09C08F73E2
:10174000282F22952F70299F800D11248B8B1F8AA3
:1017500080915F03282F22952F709AEF682F299F81
:10176000600D11246E8B40916003842F82958F70E1
:10177000899F400D11244A8B20916103822F82950D
:101780008F70899F200D1124298B80916203382F3F
:1017900032953F70399F800D112490E08053984F0F
:1017A000988B8F87EB88F12CFA82E982B0E0BC83BA
:1017B000AB83F0E0FE83ED8350E058874F8330E049
:1017C0003A8729879C878B87862F90E09E878D8715
:1017D0006E01BCE3CB0ED11C5E01E9E3AE0EB11C81
:1017E0004E01F6E38F0E911C96E9292E91E0392ED9
:1017F0003E0127E2620E711C7E0133E3E30EF11C11
:101800002E0188E1480E511C2D813E812A30310580
:101810001CF085EA91E002C082E991E03F932F93AA
:101820009F938F93DF92CF920E94C61B2B813C81A6
:101830000F900F900F900F900F900F902A3031055E
:101840001CF085EA91E002C082E991E03F932F937A
:101850009F938F93BF92AF920E94C61B29813A81BA
:101860000F900F900F900F900F900F902A3031052E
:101870001CF085EA91E002C082E991E03F932F934A
:101880009F938F939F928F920E94C61BDF92CF925D
:10189000BF92AF929F928F923F922F927F926F92C0
:1018A0000E94C61BD80116968D919C911797FC013A
:1018B000678D660FA30104960E94F4173B854C8543
:1018C000E985FA85EE0FFF1FE85EFE4F508121810A
:1018D0006F8178850FB6F894DEBF0FBECDBF6A303A
:1018E00071051CF085EA91E002C082E991E07F93E6
:1018F0006F939F938F93FF92EF9223962FAF23972F
:101900003FAF21964FAF219722965FAF22970E945B
:10191000C61B21964FAD21974F933FAD3F93239622
:101920002FAD23972F9322965FAD22975F93FF925F
:10193000EF92AFE9B1E0BF93AF935F924F920E94F5
:10194000C61BD80116968D919C911797FC01678D47
:10195000262F220F620FA20104960E94F417D801CD
:1019600016968D919C91179704960E94B0130FB60E
:10197000F894DEBF0FBECDBF811146CFD8011496BB
:101980008D919C9115970E946C0A882381F1D80152
:101990001296ED91FC911397309749F10190F081E7
:1019A000E02D82E090E0099522C061E080E00E9495
:1019B000771780915C03806880935C0381E080935B
:1019C0008B0388E68093AD0310928C031092AE03D4
:1019D00060E08CE494E00E94521060915C038CE41F
:1019E00094E00E94521081E00E941A1780CECE5BD4
:1019F000DF4F0FB6F894DEBF0FBECDBFDF91CF91A2
:101A00001F910F91FF90EF90DF90CF90BF90AF901C
:101A10009F908F907F906F905F904F903F902F900E
:101A200008950F931F93CF93DF93C091B402D09189
:101A3000B50282E00E94B5108C0161E070E080E0A8
:101A400090E00E944A1188E00E94B5102E813F81EB
:101A50004A815B810417150751F08017910719F02F
:101A6000C901019702C0C90101969F838E831B8320
:101A70000A838E819F81688179810E94561A8A85A6
:101A80009B858617970744F088859985681779079D
:101A90001CF07D836C8302C03F832E83DF91CF9146
:101AA0001F910F9108950F931F93CF93DF93EC0134
:101AB0008B0161E08BE00E940E11209711F460E031
:101AC00004C0CF3FD10529F461E08BE00E94DE1015
:101AD00043C0EEEDF0E0E491E330F9F048F4E1309A
:101AE000B9F0E230A1F584B5806284BDC8BD34C0D0
:101AF000E730E9F0E83019F1E43049F580918000F1
:101B0000806280938000D0938B00C0938A0024C0B1
:101B100084B5806884BDC7BD1FC080918000806887
:101B200080938000D0938900C093880015C0809175
:101B3000B00080688093B000C093B3000DC0809166
:101B4000B00080628093B000C093B40005C0C0387C
:101B5000D1050CF0B9CFB3CFB801110F880B990B99
:101B60000E944A1161E08BE00E940E1160E08BE060
:101B7000DF91CF911F910F910C94DE10CF93DF93E3
:101B8000C0E0D0E06AE070E0CE010E94530D2196E3
:101B9000CF3FD105B9F7DF91CF910895CF93DF9370
:101BA000E091B602F091B702C085D185209731F05F
:101BB000CE010E946409CE010E94191B86E190E0CB
:101BC0000E94841AFC01C091B602D091B7028A81AA
:101BD0009B81A881B981118610861382128226E327
:101BE00031E03183208397838683B583A48317965E
:101BF0001C921E92169715961C921E921497199677
:101C00001C921E9218971B961C921E921A9713965E
:101C10001C921E921297158A148A138A128A2FEF29
:101C20003FEF35872487DC015F966C91062E000C10
:101C3000770B718B608B80E490E00E94561A778757
:101C40006687F987E88748EA51E06EEB7DE0CF01CF
:101C50000E94CA09E091B602F091B7028085918591
:101C6000DC01ED91FC910280F381E02D43EB51E02A
:101C70006EEB7DE00995E091B602F091B7028085A8
:101C80009185DC01ED91FC910280F381E02D4EEB1A
:101C900051E06EEB7DE00995E091B602F091B7025C
:101CA00080859185DC01ED91FC910280F381E02D2E
:101CB00049EC51E06DE67EE00995E091B602F091C5
:101CC000B702808591859583848365E070E082E327
:101CD00090E0DF91CF910C94530DCF93DF93E0917F
:101CE000B602F091B702C085D185209731F0CE01C0
:101CF0000E946409CE010E94191B86E190E00E94B7
:101D0000841AFC01C091B602D091B7028A819B81EE
:101D1000A881B981118610861382128226E331E0F0
:101D20003183208397838683B583A48317961C927F
:101D30001E92169715961C921E92149719961C9235
:101D40001E9218971B961C921E921A9713961C921D
:101D50001E921297158A148A138A128A2FEF3FEF68
:101D600035872487DC015F966C91062E000C770B7B
:101D7000718B608B80E490E00E94561A77876687AB
:101D8000F987E8874EEC51E06EEC7DE0CF010E94D0
:101D9000CA09E091B602F091B70280859185DC0115
:101DA000ED91FC910280F381E02D4AED51E06EEC63
:101DB0007DE00995E091B602F091B70280859185AA
:101DC000DC01ED91FC910280F381E02D46EE51E0C3
:101DD0006EEC7DE00995E091B602F091B702808546
:101DE0009185DC01ED91FC910280F381E02D42EFC1
:101DF00051E06EEC7DE00995E091B602F091B702FA
:101E000080859185DC01ED91FC910280F381E02DCC
:101E10004EEF51E06EEC7DE00995E091B602F09155
:101E2000B70280859185DC01ED91FC910280F38100
:101E3000E02D49EC51E060E779E00995E091B602C8
:101E4000F091B702808591859583848365E070E089
:101E500082E390E0DF91CF910C94530D0B96FC013F
:101E6000849108950A96FC018491089568E00C9489
:101E7000800666E00C948006FC01849108950E941F
:101E80003C0F882321F0823011F083E0089586E032
:101E900008950F93FC010150040F84A996A994178B
:101EA00018F0081728F402C0081750F0041740F47F
:101EB0002150260F83A995A9961720F4281720F4FE
:101EC00080E007C0281720F481E0261710F0F8CF33
:101ED00081E00F91089580E090E0892B29F00E9425
:101EE000D31581110C9400000895833081F028F4FB
:101EF000813099F08230A1F008958730A9F08830C0
:101F0000B9F08430D1F4809180008F7D03C080913E
:101F100080008F7780938000089584B58F7702C00A
:101F200084B58F7D84BD08958091B0008F7703C004
:101F30008091B0008F7D8093B00008953FB7F894F2
:101F40008091AF029091B002A091B102B091B20223
:101F500026B5A89B05C02F3F19F00196A11DB11D04
:101F60003FBFBA2FA92F982F8827820F911DA11D3F
:101F7000B11DBC01CD0142E0660F771F881F991F7C
:101F80004A95D1F70895089585ED8093BC0080911E
:101F9000BC0084FDFCCF10928A0308954091850215
:101FA000262F30E0240F311D21323105DCF4209141
:101FB0008A032430C9F4FC0180E090E0861758F4CD
:101FC000309185022191DC01AD59BD4FA30FB11DA8
:101FD0002C930196F3CF80918502680F6093850260
:101FE00080E0089581E0089582E008950895E091E9
:101FF0003B0380913A03E81730F4F0E0E45CFC4FD7
:10200000808190E008958FEF9FEF089590913B03BA
:1020100080913A03981750F4E92FF0E0E45CFC4F0C
:10202000208130E09F5F90933B0302C02FEF3FEF92
:10203000C901089580913A0390E020913B03821BEF
:1020400091090895CF92DF92EF92FF920F931F9321
:10205000CF93DF937C01262F972F8A0180918B03EA
:10206000882391F0C62FD72F6E01C40ED51ECC1534
:10207000DD0571F06991D701ED91FC910190F0813E
:10208000E02DC7010995F3CF642F822F0E94CE0F58
:10209000C801DF91CF911F910F91FF90EF90DF90DA
:1020A000CF900895CF93DF931F92CDB7DEB76983AA
:1020B00020918B032223D1F02091AE03203240F0F7
:1020C00021E030E0FC013383228380E090E015C002
:1020D00080918C03E82FF0E0E357FC4F99819083C7
:1020E0008F5F80938C038093AE0305C061E0CE01C7
:1020F00001960E94CE0F81E090E00F90DF91CF918A
:10210000089508950F931F93CF93DF93EC010E81F1
:102110001F819D81969596959695862F8770A0E84C
:10212000B0E002C0B595A7958A95E2F78A81481B71
:10213000499F402D1124669566956695E62FF0E03F
:10214000E40FF11DE00FF11F8081222311F0A82B75
:1021500002C0A095A823A083DF91CF911F910F917A
:10216000089580E008950E94B11BCF93DF93282F3C
:1021700030E0F901ED52FF4F8491F901E154FF4F36
:10218000D491F901E555FF4FC491CC2391F0811111
:102190000E94750FEC2FF0E0EE0FFF1FEF55FF4F81
:1021A000A591B491EC91ED2381E090E021F480E0E1
:1021B00002C080E090E0DF91CF9108951F93CF930C
:1021C000DF93282F30E0F901ED52FF4F8491F901A0
:1021D000E154FF4FD491F901E555FF4FC491CC2351
:1021E000C9F0162F81110E94750FEC2FF0E0EE0F51
:1021F000FF1FE956FF4FA591B4918FB7F8941111C5
:1022000005C09C91ED2FE095E92302C0EC91ED2BE8
:10221000EC938FBFDF91CF911F910895CF93DF9300
:1022200090E0FC01E154FF4F2491FC01E555FF4F84
:102230008491882361F190E0880F991FFC01E35796
:10224000FF4FC591D491FC01E956FF4FA591B49180
:10225000611109C09FB7F8948881209582238883F3
:10226000EC912E230BC0623061F49FB7F894388153
:10227000822F809583238883EC912E2B2C939FBFF4
:1022800006C08FB7F894E8812E2B28838FBFDF918B
:10229000CF9108958F929F92AF92BF92CF92DF928B
:1022A000EF92FF926B017C010E949E0F4B015C013B
:1022B000C114D104E104F104F1F00E949E0FDC018D
:1022C000CB0188199909AA09BB09883E9340A10549
:1022D000B10570F321E0C21AD108E108F10888EED7
:1022E000880E83E0981EA11CB11CC114D104E10426
:1022F000F10419F7DDCFFF90EF90DF90CF90BF9002
:10230000AF909F908F9008951F920F920FB60F92EB
:1023100011242F933F938F939F93AF93BF938091FB
:10232000AB029091AC02A091AD02B091AE0230919F
:10233000AA0223E0230F2D3720F40196A11DB11D21
:1023400005C026E8230F0296A11DB11D2093AA0205
:102350008093AB029093AC02A093AD02B093AE0217
:102360008091AF029091B002A091B102B091B202FF
:102370000196A11DB11D8093AF029093B002A0936E
:10238000B102B093B202BF91AF919F918F913F91F3
:102390002F910F900FBE0F901F9018951F920F92C4
:1023A0000FB60F9211242F933F934F935F936F9328
:1023B0007F938F939F93AF93BF93EF93FF93E0919E
:1023C0000A01F0910B010995FF91EF91BF91AF9137
:1023D0009F918F917F916F915F914F913F912F913D
:1023E0000F900FBE0F901F9018951F920F920FB66F
:1023F0000F9211242F933F934F935F936F937F938B
:102400008F939F93AF93BF93EF93FF93E091080156
:10241000F09109010995FF91EF91BF91AF919F91C3
:102420008F917F916F915F914F913F912F910F907D
:102430000FBE0F901F9018951F920F920FB60F921C
:1024400011242F933F934F935F936F937F938F93B9
:102450009F93AF93BF93EF93FF938091B900887FD1
:10246000803609F49CC068F5883209F45BC090F4AA
:10247000803109F454C038F4882309F4F6C0883058
:1024800009F44DC0F6C0883109F44CC0803209F41B
:102490005DC0EFC0803409F468C048F4803309F4AB
:1024A00055C0883309F0E5C080938803D8C08035D3
:1024B00009F44FC0883509F45DC0883409F0D9C0EB
:1024C000D6C0883909F4C7C0A8F4883709F467C0B2
:1024D00038F4883609F463C0803709F460C0C9C095
:1024E000883809F4B8C0803909F45FC0803809F031
:1024F000C0C05BC0803B09F486C038F4803A09F460
:1025000066C0883A09F47FC0B4C0803C09F4A7C013
:10251000883C09F4A4C0883B09F48AC0AAC0809111
:10252000650310C09091870380918603981770F51A
:10253000E091870381E08E0F80938703F0E0EA59F2
:10254000FC4F80818093BB0085EC86C0809388031C
:102550008EC0E091870381E08E0F80938703809186
:10256000BB00F0E0EA59FC4F808390918703809193
:1025700086036EC0E091870381E08E0F809387030E
:102580008091BB00F0E0EA59FC4F80838091890381
:1025900081116DC081E08093640384EA61C083E0AF
:1025A00080938A031092A902CFCF8091A902803232
:1025B00008F051C0E091A90281E08E0F8093A9023A
:1025C0008091BB00F0E0E757FD4F8083BDCF85ECE5
:1025D0008093BC0010928A038091A902803230F46B
:1025E000E091A902F0E0E757FD4F10826091A90247
:1025F00070E0E0918702F091880289E892E0099505
:102600001092A90236C084E080938A031092860259
:1026100010928502E0918302F091840209958091E5
:102620008502811105C081E08093850210926302CA
:10263000E091860281E08E0F80938602F0E0ED59F2
:10264000FD4F80818093BB0090918602809185022E
:10265000981708F479CF85E88093BC000AC085EC10
:102660008093BC0010928A0304C0109288030E94D9
:10267000C40FFF91EF91BF91AF919F918F917F9187
:102680006F915F914F913F912F910F900FBE0F90DF
:102690001F901895FC0113821282118210821682FB
:1026A00015821482178210923B0310923A03109203
:1026B0008C031092AE0310928A0381E08093890309
:1026C0001092640361E082E10E94DE1061E083E128
:1026D0000E94DE10E9EBF0E080818E7F80838081B4
:1026E0008D7F808388E48093B80085E48093BC006C
:1026F0000895FB014181DC0112962C91129742173B
:1027000068F013962C911397241740F0608115966A
:102710002C91621718F424810C9482100895FC0106
:1027200080819281980F92832181921760F4948125
:102730009F5F94839381890F821710F08FEF820F30
:10274000838381E0089580E00895FC0112828081F6
:102750008150838314820895DB01ED91FC910994EB
:10276000EF92FF921F93CF93DF93EC01EE85FF85ED
:10277000309709F00995EA80FB80E9A9FAA982E07F
:102780000995E9A9FAA981E0099520E030E045E141
:10279000B701CE010E94AC13182F882341F09E018F
:1027A0002D5C3F4F47E1B701CE010E94AC13E9A970
:1027B000FAA980E00995812FDF91CF911F91FF90B9
:1027C000EF900895EF92FF920F931F93CF93DF93B3
:1027D0001F92CDB7DEB78C01DC011296ED90FC9014
:1027E0001397D196ED91FC91D29782E0099520E064
:1027F00030E04AE0B701C8010E94AC13F82ED801BE
:10280000D196ED91FC91D29783E00995D801D196AC
:10281000ED91FC91D29780E00995FF20A1F1F8019C
:10282000628173819E012F5F3F4F46E4C8010E9481
:10283000AC138981D8018C9312966D917C9113977A
:102840009E012F5F3F4F47E4C8010E94AC1389816E
:10285000F80181836281738120E030E048E4C8019F
:102860000E94AC13D8011B968C931B9798012D5C8A
:102870003F4F12966D917C91139747E1C8010E94DA
:10288000AC1381E001C080E00F90DF91CF911F91E8
:102890000F91FF90EF9008952F923F925F926F9269
:1028A0007F928F929F92AF92BF92CF92DF92EF92E0
:1028B000FF920F931F93CF93DF931F92CDB7DEB795
:1028C0001C01C62E142FD22EDC011496ED90FC9024
:1028D0001597C7010E943C0F082FF1018481958153
:1028E0000E943F0F982E013019F48FE0A82E02C0ED
:1028F000AA24AA94D10114968D919C9115970E94B7
:10290000320F082FF101848195810E942E0FB82E7D
:10291000D10114968D919C9115970E94360FB0E6C7
:10292000BD1530F4009721F0E80EF91E01E611C044
:10293000F101848195810E94390FF0E4FD1530F496
:10294000009721F0E80EF91E01E403C021E1E20E38
:10295000F11CBD1480F4D10150961C9250975396EF
:102960001C92539754961C92549751961C925197CF
:1029700052961C92C7C0B01670F3892D90E0F701F3
:1029800024912F3F21F4FFEFEF1AFF0A5AC00D11D7
:102990004FC0D10114968D919C9115970E943C0FC8
:1029A00097012F5F3F4FF701882311F08230E1F448
:1029B0008491D10153968C935397F90124915496A5
:1029C0002C935497F7013396E4915096EC935097DB
:1029D000F7013496E4915196EC935197F7013596AF
:1029E000E4915296EC9320C08491982F9F7092505E
:1029F000D10152969C93529782958F7051968C93E9
:102A00005197F9012491822F8F7054968C9354978B
:102A100022952F7053962C935397F7013296E49199
:102A2000E295EF705096EC93E114F10479F46AC0EA
:102A3000F7013296E491EA219C012E0F311DE20E3E
:102A4000F31E0B1509F487CF0F5F99CFF101848135
:102A500095810E943F0FB82ED10153969C905397B9
:102A60005496DC90549751968C915197C80E52967B
:102A70009C919D0D512E591A0D2D292D452D6C2DF2
:102A8000C1010E94490F8823D1F1C7018B0D911D0F
:102A90005C0187E0890DF82EF694F694F694D50C37
:102AA00041019CE1890E911C6F2C712C5D1439F150
:102AB0005C2D8501802F8A198F15E8F4F801849127
:102AC000D10112966D917C9113975C965C935C9703
:102AD0005D965C925D975F961C925F975E968C9375
:102AE00094014BE3C10159830E94AC130F5F1F4F48
:102AF0005981585FDFCFA60CB71C5394D7CFF10193
:102B0000808901C080E00F90DF91CF911F910F91DC
:102B1000FF90EF90DF90CF90BF90AF909F908F90FD
:102B20007F906F905F903F902F900895FC01538DA0
:102B3000448D252F30E0842F90E0821B930B541797
:102B400010F0CF96089501970895FC01918D828D24
:102B5000981761F0828DDF01A80FB11D5D968C91F1
:102B6000928D9F5F9F73928F90E008958FEF9FEFFC
:102B70000895FC01918D828D981731F0828DE80FB8
:102B8000F11D858D90E008958FEF9FEF0895FC0172
:102B9000918D228D892F90E0805C9F4F821B91093F
:102BA0008F73992708958FEA93E00E94C71521E05B
:102BB000892B09F420E0822F0895FC01848DDF0128
:102BC000A80FB11DA35ABF4F2C91848D90E00196A0
:102BD0008F739927848FA689B7892C93A089B1898F
:102BE0008C9180648C93938D848D981306C0028899
:102BF000F389E02D80818F7D80830895EF92FF928D
:102C00000F931F93CF93DF93EC0181E0888F9B8D0F
:102C10008C8D981305C0E889F989808185FD24C0D1
:102C2000F62E0B8D10E00F5F1F4F0F731127E02E54
:102C30008C8DE8120CC00FB607FCFACFE889F98931
:102C4000808185FFF5CFCE010E94DD15F1CF8B8D00
:102C5000FE01E80FF11DE35AFF4FF0820B8FEA8966
:102C6000FB898081806207C0EE89FF896083E889E3
:102C7000F98980818064808381E090E0DF91CF9149
:102C80001F910F91FF90EF900895CF93DF93EC0188
:102C9000888D8823C9F0EA89FB89808185FD05C07C
:102CA000A889B9898C9186FD0FC00FB607FCF5CFB6
:102CB000808185FFF2CFA889B9898C9185FFEDCFFE
:102CC000CE010E94DD15E7CFDF91CF9108951F92CD
:102CD0000F920FB60F9211242F933F934F935F9350
:102CE0006F937F938F939F93AF93BF93EF93FF93D4
:102CF0008FEA93E00E94DD15FF91EF91BF91AF91B4
:102D00009F918F917F916F915F914F913F912F9103
:102D10000F900FBE0F901F9018951F920F920FB635
:102D20000F9211242F938F939F93EF93FF93E09132
:102D3000BF03F091C0038081E091C503F091C60309
:102D400082FD12C090818091C8038F5F8F732091A4
:102D5000C903821751F0E091C803F0E0E155FC4F40
:102D6000958F8093C80301C08081FF91EF919F915F
:102D70008F912F910F900FBE0F901F901895CF92AB
:102D8000DF92EF92FF920F931F93CF93DF936C012B
:102D90007A018B01C0E0D0E0CE15DF0589F0D801C3
:102DA0006D918D01D601ED91FC910190F081E02DA6
:102DB000C6010995892B11F47E0102C02196ECCF42
:102DC000C701DF91CF911F910F91FF90EF90DF909E
:102DD000CF900895BF92CF92DF92EF92FF920F9320
:102DE0001F93CF93DF93EC01142FF62EF40E6C019A
:102DF0008CE1C80ED11CEE24EA94BF2CB11A00E07D
:102E00006A817B810C8FBD8E1F8EEE8E96014BE307
:102E1000CE010E94AC13085F003891F7115069F79A
:102E2000DF91CF911F910F91FF90EF90DF90CF90A6
:102E3000BF900895382F2091AE039091AD032132B9
:102E400008F049C080918A038111FCCF42E0409391
:102E50008A03309389033FEF3093880310928703EE
:102E600020938603ADE8B3E046E653E0FA013E2F37
:102E7000341B321718F43D913193F9CF109265034A
:102E800020916503990F922B9093650390916403B1
:102E9000913061F410926403909165039093BB00AC
:102EA0009091BC0093FDF8CF95EC01C095EE909306
:102EB000BC0090918A039230E1F3909188039F3F88
:102EC00079F080918803803241F0809188038033CB
:102ED00031F084E005C081E003C082E001C083E0FE
:102EE00010928C031092AE0310928B030895EF9210
:102EF000FF920F931F93CF93C62F91E090938B0374
:102F000098E69093AD0310928C031092AE03682F55
:102F10008CE494E00E94521081E00E941A17811103
:102F20005CC080918A038111FCCF8C2FC13208F0E4
:102F300080E291E090938A03909389032FEF20938E
:102F4000880310928703280F2093860390936503CC
:102F500090916503906D9093650390916403913017
:102F600061F410926403909165039093BB0090917B
:102F7000BC0093FDF8CF95EC01C095EE9093BC009A
:102F800090918A039130E1F390918703981710F4A0
:102F900080918703A6E6B3E02CE333E0F9019E2F8E
:102FA000921B981718F49D919193F9CF10923B03BF
:102FB00080933A038CE5E82E83E0F82E8701802F7A
:102FC0008E198C1740F48CE494E00E940610F801EE
:102FD00081938F01F4CF8C2F01C080E0CF911F919E
:102FE0000F91FF90EF900895AF92BF92CF92DF9232
:102FF000FF920F931F93CF93DF9300D0CDB7DEB72F
:103000006C01062FDC015596ED91FC915697498392
:103010005A830995080F4981A42E5A81B52E10E0D4
:10302000F12CF50121915F01222341F0402F6F2DFA
:10303000C6010E944C14F80E180FF3CF812F0F9089
:103040000F90DF91CF911F910F91FF90DF90CF9064
:10305000BF90AF900895FF920F931F93CF93DF938C
:10306000EC01162FF42E042F20E8462F60E00E947A
:10307000490F882351F04F2D612FCE01DF91CF9161
:103080001F910F91FF900C94EA16DF91CF911F9141
:103090000F91FF900895789484B5826084BD84B5C3
:1030A000816084BD85B5826085BD85B5816085BD43
:1030B00080916E00816080936E00109281008091FB
:1030C0008100826080938100809181008160809383
:1030D0008100809180008160809380008091B100A8
:1030E00084608093B1008091B00081608093B000D3
:1030F00080917A00846080937A0080917A00826067
:1031000080937A0080917A00816080937A00809128
:103110007A00806880937A001092C100E091BF032A
:10312000F091C00382E08083E091BB03F091BC0387
:103130001082E091BD03F091BE0380E18083109284
:10314000C703E091C303F091C40386E08083E0915C
:10315000C103F091C203808180618083E091C1034B
:10316000F091C203808188608083E091C103F09177
:10317000C203808180688083E091C103F091C20323
:1031800080818F7D808345E150E06EE372E08FEABD
:1031900093E00E94BF1642E050E064E572E08FEADF
:1031A00093E00E94BF168CE090E00E94841AEC012C
:1031B00084E090E0998388831092B30262E083E018
:1031C0000E940E1162E082E00E940E1162E088E02F
:1031D0000E940E111F821E821D821C821986188673
:1031E0001B861A861B821A8282E090E0998388836C
:1031F000D093B502C093B40281E19DE090930901A0
:1032000080930801809169008C7F816080936900C0
:10321000E89A88E397E090930B0180930A018091EC
:103220006900837F80936900E99A8AE090E00E94B8
:10323000841A8C01E090B402F090B502DC0119967A
:103240001C921E92189715961C921E921497179610
:103250001C921E9216978EE390E00E94841AEC0155
:103260001B821A828EE391E0998388831BAE1CAE89
:103270001DAE9E012C5F3F4F198618861B861A864D
:103280001D8681E08C8782E28E871B8A1A8AFE0166
:10329000B796CE01C5964FEF4193E817F907E1F7CE
:1032A00091E09CA341EB50E15A8F498F9B8F1C8E7C
:1032B0001D8E80E48E8F1F8E81E890E19EAB8DABDA
:1032C0008CE091E09F838E8386E08BA785E08CA7BE
:1032D00084E089A78FEF88A71FA2C9010E94E2138B
:1032E0008AE491E099838883F801D383C2831093A1
:1032F000B7020093B60288859985875E904009F4ED
:1033000038C087EE90E0998788878B8D811107C040
:10331000ECEEF0E0E491EC8FE3EFF0E00FC08130F1
:1033200039F4E6EFF0E0E491EC8FE7EFF0E006C06F
:10333000E4EFF0E0E491EC8FE5EFF0E0E491ED8F65
:103340002C8D022E000C330B8D8D281B310987FD2F
:1033500033958E8D803441F0289F9001112486E0B2
:10336000369527958A95E1F72F8F81EB90E19A8F1B
:10337000898F8AE090E00E94841AFC01C091B60215
:10338000D091B7028A819B81A881B981118610866C
:10339000138212822EE531E0318320839783868366
:1033A000B583A48319961C921E9218971B961C92A3
:1033B0001E921A9717961C921E92169715961C929B
:1033C0001E92149713961C921E921297FF83EE83FF
:1033D00047E552E06DE67EE0CF010E94CA098E818A
:1033E0009F819D838C83D801ED92FC9210933903C9
:1033F00000933803E091B602F091B7028481958181
:10340000FC012085318521503109E0913803F0918C
:1034100039030190F081E02D1186108633872287D1
:10342000DC01ED91FC910190F081E02D09950E9465
:103430006B0FE0CFEFEAF3E01382128288EE93E0A5
:10344000A0E0B0E084839583A683B78326E631E0CD
:103450003183208325EC30E03587248724EC30E06D
:103460003787268720EC30E0318B208B21EC30E051
:10347000338B228B22EC30E0358B248B26EC30E032
:10348000378B268B118E128E138E148EECE4F4E0A3
:103490001382128284839583A683B78388E791E0A1
:1034A0009183808388E594E00C944A1397FB072E60
:1034B00016F4009407D077FD09D00E94701A07FC1B
:1034C00005D03EF4909581959F4F08957095619534
:1034D0007F4F0895EE0FFF1F0590F491E02D0994A2
:1034E000AA1BBB1B51E107C0AA1FBB1FA617B7072A
:1034F00010F0A61BB70B881F991F5A95A9F7809546
:103500009095BC01CD010895CF93DF938230910552
:1035100010F482E090E0E0916304F091640420E014
:1035200030E0C0E0D0E0309711F140815181481780
:103530005907C0F04817590761F482819381209799
:1035400019F09B838A832BC0909364048093630457
:1035500026C02115310519F04217530718F49A01B6
:10356000BE01DF01EF010280F381E02DDCCF2115E8
:10357000310509F1281B390B2430310590F41296DE
:103580008D919C9113976115710521F0FB01938337
:10359000828304C09093640480936304FD01329697
:1035A00044C0FD01E20FF31F819391932250310932
:1035B0002D933C933AC02091610430916204232BF7
:1035C00041F420911401309115013093620420934D
:1035D000610420911201309113012115310541F44C
:1035E0002DB73EB74091160150911701241B350BA2
:1035F000E0916104F0916204E217F307A0F42E1B3E
:103600003F0B2817390778F0AC014E5F5F4F241746
:10361000350748F04E0F5F1F5093620440936104DA
:103620008193919302C0E0E0F0E0CF01DF91CF9170
:1036300008950F931F93CF93DF93009709F48CC0E5
:10364000FC0132971382128200916304109164048A
:103650000115110581F420813181820F931F209182
:103660006104309162042817390779F5F0936204F8
:10367000E093610471C0D80140E050E0AE17BF078D
:1036800050F412962D913C911397AD0121153105FF
:1036900009F1D901F3CF9D01DA01338322836081DF
:1036A0007181860F971F8217930769F4EC012881B7
:1036B0003981260F371F2E5F3F4F318320838A8148
:1036C0009B8193838283452B29F4F0936404E093D8
:1036D000630442C01396FC93EE931297ED01499157
:1036E00059919E01240F351FE217F30771F4808171
:1036F0009181840F951F029611969C938E938281DF
:10370000938113969C938E931297E0E0F0E0D8019A
:1037100012968D919C911397009719F0F8018C01E6
:10372000F6CF8D919C9198012E5F3F4F820F931F92
:1037300020916104309162042817390769F43097A9
:1037400029F4109264041092630402C0138212825E
:103750001093620400936104DF91CF911F910F9148
:10376000089581E090E0F8940C949E1EFB01DC012A
:1037700002C001900D9241505040D8F70895FB01CE
:10378000DC0101900D920020E1F70895AEE0B0E079
:10379000ECECFBE10C94751E0D891E8986E08C8390
:1037A0001A8309838FEF9FE79E838D83AE01475E67
:1037B0005F4F6F89788DCE0101960E94E91B2F81A2
:1037C0003885F801E20FF31F10822E96E4E00C9486
:1037D000911EACE0B0E0EFEEFBE10C94671E7C01C3
:1037E0006B018A01FC0117821682838181FFBDC1B2
:1037F000CE0101964C01F7019381F60193FD85916D
:1038000093FF81916F01882309F4ABC1853239F4AC
:1038100093FD859193FF81916F01853229F4B70162
:1038200090E00E94D11DE7CF512C312C20E02032B6
:10383000A0F48B3269F030F4803259F0833269F4AD
:1038400020612CC08D3239F0803339F4216026C0DC
:103850002260246023C0286021C027FD27C030EDEE
:10386000380F3A3078F426FF06C0FAE05F9E300D3C
:103870001124532E13C08AE0389E300D1124332EAC
:1038800020620CC08E3221F426FD6BC1206406C07C
:103890008C3611F4206802C0883641F4F60193FD9D
:1038A000859193FF81916F018111C1CF982F9F7DE9
:1038B0009554933028F40C5F1F4FFFE3F9830DC03C
:1038C000833631F0833771F0833509F05BC022C055
:1038D000F801808189830E5F1F4F44244394512C4B
:1038E000540115C03801F2E06F0E711CF801A08080
:1038F000B18026FF03C0652D70E002C06FEF7FEF3F
:10390000C5012C870E94C61D2C0183012C852F77B1
:10391000222E17C03801F2E06F0E711CF801A08052
:10392000B18026FF03C0652D70E002C06FEF7FEF0E
:10393000C5012C870E94BB1D2C012C852068222EDE
:10394000830123FC1BC0832D90E048165906B0F478
:10395000B70180E290E00E94D11D3A94F4CFF501C6
:1039600027FC859127FE81915F01B70190E00E94BD
:10397000D11D31103A94F1E04F1A5108411451040D
:1039800071F7E5C0843611F0893639F5F80127FF63
:1039900007C060817181828193810C5F1F4F08C0D5
:1039A00060817181072E000C880B990B0E5F1F4FF1
:1039B0002F76722E97FF09C090958095709561952E
:1039C0007F4F8F4F9F4F2068722E2AE030E0A40176
:1039D0000E94091EA82EA81844C0853729F42F7EFE
:1039E000B22E2AE030E025C0F22FF97FBF2E8F36AD
:1039F000C1F018F4883579F0B4C0803719F08837F1
:103A000021F0AFC02F2F2061B22EB4FE0DC08B2D40
:103A10008460B82E09C024FF0AC09F2F9660B92E7B
:103A200006C028E030E005C020E130E002C020E11F
:103A300032E0F801B7FE07C0608171818281938115
:103A40000C5F1F4F06C06081718180E090E00E5FC7
:103A50001F4FA4010E94091EA82EA818FB2DFF7756
:103A60007F2E76FE0BC0372D3E7FA51450F474FEDA
:103A70000AC072FC08C0372D3E7E05C0BA2C372D17
:103A800003C0BA2C01C0B52C34FF0DC0FE01EA0DF5
:103A9000F11D8081803311F4397E09C032FF06C0E8
:103AA000B394B39404C0832F867809F0B39433FDA4
:103AB00013C030FF06C05A2CB31418F4530C5B1813
:103AC000B32CB31468F4B70180E290E03C870E9405
:103AD000D11DB3943C85F5CFB31410F43B1801C04D
:103AE000312C34FF12C0B70180E390E03C870E9484
:103AF000D11D3C8532FF17C031FD03C088E790E03F
:103B000002C088E590E0B7010CC0832F867859F099
:103B100031FF02C08BE201C080E237FD8DE2B701C8
:103B200090E00E94D11DA51438F4B70180E390E025
:103B30000E94D11D5A94F7CFAA94F401EA0DF11D09
:103B40008081B70190E00E94D11DA110F5CF3320F4
:103B500009F451CEB70180E290E00E94D11D3A9461
:103B6000F6CFF7018681978102C08FEF9FEF2C96E9
:103B7000E2E10C94831EFC0105906150704001103D
:103B8000D8F7809590958E0F9F1F0895FC01615086
:103B9000704001900110D8F7809590958E0F9F1F6F
:103BA00008950F931F93CF93DF93FB01238121FD92
:103BB00003C08FEF9FEF28C022FF16C046815781B8
:103BC000248135814217530744F4A081B1819D01BE
:103BD0002F5F3F4F318320838C93268137812F5F66
:103BE0003F4F3783268310C0EB01092F182F008425
:103BF000F185E02D0995892BE1F68E819F81019653
:103C00009F838E83812F902FDF91CF911F910F91F2
:103C10000895FA01AA27283051F1203181F1E89462
:103C20006F936E7F6E5F7F4F8F4F9F4FAF4FB1E0AF
:103C30003ED0B4E03CD0670F781F891F9A1FA11DAA
:103C4000680F791F8A1F911DA11D6A0F711D811DAB
:103C5000911DA11D20D009F468943F912AE0269F70
:103C600011243019305D3193DEF6CF010895462FCF
:103C70004770405D4193B3E00FD0C9F7F6CF462FB0
:103C80004F70405D4A3318F0495D31FD4052419319
:103C900002D0A9F7EACFB4E0A695979587957795D6
:103CA0006795BA95C9F700976105710508959B015D
:103CB000AC010A2E06945795479537952795BA95E6
:103CC000C9F7620F731F841F951FA01D08952F92BF
:103CD0003F924F925F926F927F928F929F92AF929C
:103CE000BF92CF92DF92EF92FF920F931F93CF93E9
:103CF000DF93CDB7DEB7CA1BDB0B0FB6F894DEBF80
:103D00000FBECDBF09942A88398848885F846E84A5
:103D10007D848C849B84AA84B984C884DF80EE80EF
:103D2000FD800C811B81AA81B981CE0FD11D0FB6F8
:103D3000F894DEBF0FBECDBFED010895F894FFCF1C
:103D4000084000000080B802C30FC30F4007000105
:103D5000C2080000650480000A020E021202160268
:103D60001A021E02220226022A022E023202360203
:103D70003A02000000007D0ACA0900000000910913
:103D8000BF1635073407000000009109BF1635073C
:103D9000340700000000B310CA0900000000480BFF
:103DA000CA0900000000FE15BF1696154516C71576
:103DB000A515B91500000000521022103507F60FA6
:103DC0001A100610F70F00000000B310BF163507D9
:103DD00034073025690025733A25733A2573002589
:103DE000732D25732D256900537562204D656E7501
:103DF000203100537562204D656E75203200537579
:103E000062204D656E752033004261636B004D6525
:103E10006E75206974656D2031004D656E75206981
:103E200074656D2032004D656E75206974656D2076
:103E300033004D656E75206974656D2034004D65E5
:103E40006E75206974656D2035002D2D2D004A6139
:103E50006E00466562004D617200417072004D61F6
:103E600079004A756E004A756C00417567005365AC
:103E700070004F6374004E6F7600446563005072AB
:103E800065616D626C652E2E2E2E2E2E2E2E2E2E00
:0A3E90002E2E2E000D0A007800000F
:107E0000112484B714BE81FFF0D085E080938100F7
:107E100082E08093C00088E18093C10086E0809377
:107E2000C20080E18093C4008EE0C9D0259A86E02C
:107E300020E33CEF91E0309385002093840096BBD3
:107E4000B09BFECF1D9AA8958150A9F7CC24DD24C4
:107E500088248394B5E0AB2EA1E19A2EF3E0BF2EE7
:107E6000A2D0813461F49FD0082FAFD0023811F036
:107E7000013811F484E001C083E08DD089C08234E0
:107E800011F484E103C0853419F485E0A6D080C0E4
:107E9000853579F488D0E82EFF2485D0082F10E0AE
:107EA000102F00270E291F29000F111F8ED06801E7
:107EB0006FC0863521F484E090D080E0DECF843638
:107EC00009F040C070D06FD0082F6DD080E0C81688
:107ED00080E7D80618F4F601B7BEE895C0E0D1E017
:107EE00062D089930C17E1F7F0E0CF16F0E7DF06D8
:107EF00018F0F601B7BEE89568D007B600FCFDCFD4
:107F0000A601A0E0B1E02C9130E011968C91119780
:107F100090E0982F8827822B932B1296FA010C0160
:107F200087BEE89511244E5F5F4FF1E0A038BF0790
:107F300051F7F601A7BEE89507B600FCFDCF97BE46
:107F4000E89526C08437B1F42ED02DD0F82E2BD052
:107F50003CD0F601EF2C8F010F5F1F4F84911BD097
:107F6000EA94F801C1F70894C11CD11CFA94CF0C13
:107F7000D11C0EC0853739F428D08EE10CD085E9AC
:107F80000AD08FE07ACF813511F488E018D01DD067
:107F900080E101D065CF982F8091C00085FFFCCF94
:107FA0009093C60008958091C00087FFFCCF809118
:107FB000C00084FD01C0A8958091C6000895E0E648
:107FC000F0E098E1908380830895EDDF803219F02E
:107FD00088E0F5DFFFCF84E1DECF1F93182FE3DFCA
:107FE0001150E9F7F2DF1F91089580E0E8DFEE27F6
:047FF000FF270994CA
:027FFE00040479
:0400000300007E007B
:00000001FF