:100000000C944B110C94362B0C940B2B0C94E02A73
:100010000C94B52A0C948A2A0C945F2A0C94342AE6
:100020000C94092A0C947C110C947C110C947C1176
:100030000C947C110C947C110C947C110C947C110C
:100040000C947C110C947C110C947C110C947C11FC
:100050000C947C110C947C110C947C110C94BF2991
:100060000C947C110C94421B0C94181B0C947C1166
:100070000C947C110C947C110C947C110C947C11CC
:100080000C947C110C947C110C947C110C947C11BC
:100090000C947C110C947C110C947C110C94612BAD
:1000A0000C947C110C947C110C947C110C947C119C
:1000B0000C947C110C947C110C947C110C947C118C
:1000C0000C947C110C947C110C947C110C947C117C
:1000D0000C947C110C947C110C947C110C947C116C
:1000E0000C947C11AD18B218B718C118CB1844196C
:1000F000D518DD18E518EF18F918031912191C198D
:100100004419261930193A19631CDB1C931C8D1CE9
:10011000A21CA61CD01C1528182807280B2811285B
:100120004F281C28202826282A282E28342838281A
:100130003C284F28422846284A2801050700FF0688
:100140000115022720FFFF06FF06FF0800502216B8
:1001500056808080800080153353A0A0A0025555A2
:1001600050F850F85002555570A07028700246564D
:1001700080902040901002455540A040A05025138B
:100180005380808012265640808080804012265600
:10019000804040404080123555A040E040A00255CC
:1001A000552020F82020113353604080044151F045
:1001B000122252C0C00344541020408012365640D0
:1001C000A0A0A0A04012365640C0404040E00246E9
:1001D000566090102040F0024656F010601090607B
:1001E0000246562060A0F02020024656F080E01023
:1001F00090600246566080E0909060024656F01093
:100200002020404002465660906090906002465622
:10021000609090701060122555C0C000C0C00136BB
:1002200056606000604080123555204080402003B9
:100230004353F000F012355580402040801236566E
:1002400040A0204000400246566090B0B08060025E
:100250004656609090F09090024656E090E0909064
:10026000E0024656609080809060024656E0909092
:100270009090E0024656F080E08080F0024656F012
:1002800080E0808080024656609080B09070024688
:10029000569090F0909090123656E040404040E0EA
:1002A00002465610101010906002465690A0C0C032
:1002B000A0900246568080808080F002465690F0E2
:1002C000F090909002465690D0D0B0B09002465632
:1002D000609090909060024656E09090E08080019F
:1002E000475760909090D06010024656E09090E0A2
:1002F000A090024656609040209060123656E04032
:100300004040404002465690909090906002465681
:10031000909090906060024656909090F0F090021D
:100320004656909060609090123656A0A0A0404033
:1003300040024656F010204080F0123656E0808091
:100340008080E003445480402010123656E0202084
:100350002020E016325240A0024151F01622528075
:10036000400244547090B0500246568080E0909015
:10037000E002345460808060024656101070909005
:100380007002445460B0C060024656205040E040C5
:100390004001455570906080700246568080E09024
:1003A00090901236564000C04040E0113757200070
:1003B000202020A0400246568080A0C0A090123687
:1003C00056C040404040E0024454A0F090900244A7
:1003D00054E090909002445460909060014555E044
:1003E0009090E0800145557090907010024454E068
:1003F00090808002445470C030E00246564040E095
:1004000040403002445490909070123454A0A0A008
:10041000400244549090F0F0024454906060900187
:1004200045559090502040024454F02040F0123640
:10043000562040C040402022165680808080808018
:1004400012365680406040408006425250A0FFFF66
:10045000FFFFFFFFFFFFFFFFFFFFFFFFFFFFFFFFAC
:10046000FFFFFFFFFFFFFFFFFFFFFFFFFFFFFF0893
:1004700000502216568000808080800146562070F1
:10048000A0A070200245553040E040B0025555888C
:1004900070507088123656A0A040E040402215559A
:1004A00080800080801137576080C0A06020C01716
:1004B0003151A00157577088A8C8A88870053353D8
:1004C00060A060035353489048034252F010143127
:1004D00051E00157577088E8C8C88870074151F04B
:1004E00015335340A0400256562020F82020F8141F
:1004F0002454C04080C0142454C0C040C0162252AE
:100500004080014555909090E08002465670D0D0D2
:10051000505050142252C0C0112252408014345402
:1005200040C040E005335340A040035353904890EF
:10053000014757808080903070100147578080803D
:10054000B0102030014757C0C040D0307010123674
:100550005640004080A040024656609090F0909037
:10056000024656609090F09090024656609090F04F
:100570009090024656609090F0909002465690609F
:1005800090F09090024656606090F090900246562F
:1005900070A0B0E0A0B001475760908080906040AC
:1005A000024656F080E08080F0024656F080E080FF
:1005B00080F0024656F080E08080F0024656F080DF
:1005C000E08080F0123656E040404040E01236565F
:1005D000E040404040E0123656E040404040E012EB
:1005E0003656E040404040E0024656E050D0505081
:1005F000E0024656B090D0B0B0900246566090905F
:1006000090906002465660909090906002465660CE
:100610009090909060024656609090909060024654
:1006200056906090909060024454906060900246B2
:100630005670B0B0D0D0E002465690909090906046
:1006400002465690909090906002465690909090FE
:100650009060024656900090909060123656A0A08E
:10066000A040404002465680E090E080800246561E
:100670006090A09090A002465640207090B050022A
:10068000465620407090B05002465620507090B0B0
:100690005002465650A07090B0500246565000701E
:1006A00090B05002465660607090B0500244547052
:1006B000B0A07011355560808060400246564020E1
:1006C00060B0C060024656204060B0C0600246562E
:1006D00040A060B0C060024656A00060B0C060128A
:1006E00036568040C04040E01236564080C0404000
:1006F000E012365640A0C04040E0123656A000C07E
:100700004040E002465640306090906002465650AD
:10071000A0E0909090024656402060909060024683
:100720005620406090906002465660006090906055
:1007300002465650A060909060024656500060906D
:1007400090600245556000F0006002445470B0D0E3
:10075000E00246564020909090700246562040900D
:1007600090907002465660009090907002465650ED
:100770000090909070014757204090905020400189
:10078000465680E09090E08001475750009090508E
:10079000204000091200FC0A01F203E1207FFD0E57
:1007A000FD0BFD00000009000E020B0B090300C049
:1007B000C0C0C0C0C0C00000C0C00504040902071A
:1007C000D8D8D8D8070A0A0901006C6C6CFE6C6C8A
:1007D000FE6C6C6C080B0B0900FF187EDBD8783CB4
:1007E0001E1BDB7E18080A0A09000073DEDE6C1887
:1007F00018367B7BCE080A0A09000070D8D8D8705A
:1008000073DECCDE73020404090307C0C0C0C00459
:100810000C0C0902FF306060C0C0C0C0C0C0606086
:1008200030040C0C0902FFC06060303030303030D2
:100830006060C008070709000118DB7E3C7EDB18FA
:10084000080707090001181818FF181818030404EE
:100850000903FEE0E060C0070101090104FE030294
:1008600002090300E0E0080A0A0900000306060C7A
:100870001818306060C0070A0A090100386CC6C643
:10088000C6C6C6C66C38080A0A090000183878D8E7
:100890001818181818FF070A0A090100386CC6064C
:1008A000060C183060FE070A0A090100FE060C1843
:1008B000380C0606CC78070A0A0901000C1C3C6CAF
:1008C000CCCCFE0C0C0C070A0A090100FEC0C0C00B
:1008D000F80C0606CC78070A0A0901003C60C0C083
:1008E000F8CCC6C66C38070A0A090100FE060C0CD3
:1008F000181830303030070A0A090100386CC66C0D
:10090000386CC6C66C38070A0A090100386CC6C6BE
:100910006E3E06060C78030707090300E0E00000BE
:1009200000E0E00309090903FEE0E0000000E0E068
:1009300060C00609090901000C183060C060301859
:100940000C070404090102FE0000FE060909090162
:1009500000C06030180C183060C0070A0A09010096
:10096000386CC6060C1830300030090A1409000033
:100970003E006300CD80D580D580D580D580CF0066
:1009800060003E00070A0A090100103838386C7C04
:100990006CC6C6C6070A0A090100FCC6C6C6FCC664
:1009A000C6C6C6FC070A0A0901003C66C0C0C0C032
:1009B000C0C0663C070A0A090100F8CCC6C6C6C614
:1009C000C6C6CCF8070A0A090100FEC0C0C0F8C0BC
:1009D000C0C0C0FE070A0A090100FEC0C0C0F8C0BE
:1009E000C0C0C0C0070A0A090100386CC6C0C0CE2A
:1009F000C6C66C38070A0A090100C6C6C6C6FEC6C6
:100A0000C6C6C6C6060A0A090100FC3030303030BE
:100A1000303030FC070A0A0901001E0C0C0C0C0CCB
:100A20000CCCCC78070A0A090100C6CCD8F0E0F05B
:100A3000D8CCC6C6070A0A090100C0C0C0C0C0C0E1
:100A4000C0C0C0FE070A0A090100C6EEFED6C6C62F
:100A5000C6C6C6C6070A0A090100C6C6E6F6DECE45
:100A6000C6C6C6C6070A0A0901007CC6C6C6C6C6EF
:100A7000C6C6C67C070A0A090100F8CCC6C6CCF86F
:100A8000C0C0C0C0080B0B0901FF386CC6C6C6C683
:100A9000C6DE6C3E03070A0A090100FCC6C6C6C6CC
:100AA000FCD8CCC6C6070A0A0901007CC6C0C07CB7
:100AB000060606C67C060A0A090100FC3030303002
:100AC0003030303030070A0A090100C6C6C6C6C633
:100AD000C6C6C66C38070A0A090100C6C6C66C6CD1
:100AE0006C38383810070A0A090100C6C6C6C6D6CF
:100AF000D6D6FEEE44070A0A090100C6C66C3810B5
:100B000010386CC6C6080A0A090000C3C3663C1840
:100B10001818181818070A0A090100FE06060C180A
:100B20003060C0C0FE050C0C0902FFF8C0C0C0C098
:100B3000C0C0C0C0C0C0F8080A0A090000C0606098
:100B40003018180C060603040C0C0902FFF03030B4
:100B50003030303030303030F008040409000618EE
:100B60003C66C30801010900FFFF04030309020AF0
:100B7000C060300707070901007C06067EC6C67EF6
:100B8000070A0A090100C0C0C0FCC6C6C6C6C6FC2A
:100B90000707070901007CC6C0C0C0C67C070A0A57
:100BA0000901000606067EC6C6C6C6C67E0707073A
:100BB0000901007CC6C6FEC0C67C060A0A090100FF
:100BC000386C6C6060F060606060070A0A0901FDC3
:100BD0007ECCCCCC78C07CC6C67C070A0A09010052
:100BE000C0C0C0FCC6C6C6C6C6C6060A0A09010001
:100BF000303000F03030303030FC050D0D0902FD92
:100C000018180038181818181818D8D870070A0AB1
:100C1000090100C0C0C0CCD8F0F0D8CCC6060A0A82
:100C2000090100F03030303030303030FC08070738
:100C3000090000FEDBDBDBDBDBC307070709010084
:100C4000DCE6C6C6C6C6C6070707090100386CC67B
:100C5000C6C66C38070A0A0901FDF8CCC6C6C6CC60
:100C6000F8C0C0C0070A0A0901FD3E66C6C6C666CE
:100C70003E060606070707090100DC766060606033
:100C8000600707070901007CC6C07C06C67C07090F
:100C9000090901003030FC30303030361C070707BE
:100CA000090100C6C6C6C6C6C67E070707090100F9
:100CB000C6C66C6C383810080707090000C3C3DBD0
:100CC000DBDBFF66070707090100C66C3810386CCC
:100CD000C6070A0A0901FDC6C66C6C6C383830B00C
:100CE00060060707090100FC0C183060C0FC060B09
:100CF0000B0901003C60606060C0606060603C02A5
:100D00000C0C0903FFC0C0C0C0C0C0C0C0C0C0C080
:100D1000C0060B0B090100E0303030301C303030A1
:100D200030E008030309000773DBCEFF000912005F
:100D3000FC0A01E803D720FFFD0EFD0BFD000000BB
:100D400009000E010B0B09040080808080808080E8
:100D50000000808004040409030790909090080A22
:100D60000A090000242424FF2424FF242424070B40
:100D70000B0901FF107C929050381412927C1007DE
:100D80000A0A09010042A4A4481010244A4A840710
:100D90000A0A090100609090906062948894620150
:100DA000040409040780808080030C0C0903FF20E1
:100DB0004040808080808080404020030C0C0903EC
:100DC000FF8040402020202020204040800707074F
:100DD00009010310925438549210070707090101C2
:100DE000101010FE1010100204040904FEC0C040D0
:100DF00080070101090104FE020202090400C0C0CB
:100E0000070A0A090100020404081010204040806B
:100E1000070A0A09010038448282828282824438A9
:100E2000070A0A090100103050901010101010FE2F
:100E3000070A0A090100384482020408102040FE13
:100E4000070A0A090100FE02040818040202847855
:100E5000070A0A090100040C14244484FE04040453
:100E6000070A0A090100FE808080F80402028478E3
:100E7000070A0A0901003C408080B8C482824438D5
:100E8000070A0A090100FE020404080810101010E5
:100E9000070A0A09010038448244384482824438EF
:100EA000070A0A09010038448282463A020204789D
:100EB000020707090400C0C0000000C0C002090901
:100EC0000904FEC0C0000000C0C040800509090937
:100ED0000200081020408040201008070404090187
:100EE00002FE0000FE0509090902008040201008EA
:100EF00010204080070A0A090100384482020408D1
:100F000010100010070A0A09010038449AAAAAAA78
:100F1000AA9C403C070A0A09010010282828447CA2
:100F200044828282070A0A090100F8848284F884D4
:100F3000828284F8070A0A0901003C42808080808E
:100F40008080423C070A0A090100F884828282827A
:100F5000828284F8070A0A090100FE808080F880F6
:100F6000808080FE070A0A090100FE808080F880E8
:100F700080808080070A0A09010038448280808EC0
:100F800082824438070A0A09010082828282FE8234
:100F900082828282050A0A090200F820202020208D
:100FA000202020F8070A0A0901003E08080808085E
:100FB00008888870070A0A09010082848890A0D0F6
:100FC00088848282070A0A090100808080808080EC
:100FD000808080FE070A0A0901008282C6AA9282E6
:100FE00082828282070A0A0901008282C2A2928A50
:100FF00086828282070A0A0901007C8282828282BA
:101000008282827C070A0A090100F884828284F8BD
:1010100080808080080B0B0901FF38448282828225
:10102000828A443A01070A0A090100F8848282840C
:10103000F890888482070A0A0901007C8280807CFB
:10104000020202827C070A0A090100FE1010101039
:101050001010101010070A0A090100828282828291
:101060008282824438070A0A09010082828244444B
:101070004428282810070A0A0901008282828292E5
:10108000929292AA44070A0A090100828244281017
:101090001028448282070A0A09010082824428102B
:1010A0001010101010070A0A090100FE02040810AF
:1010B00020408080FE040C0C0903FFF080808080BB
:1010C000808080808080F0070A0A0901008040400B
:1010D00020101008040402040C0C0902FFF0101088
:1010E0001010101010101010F00704040901061061
:1010F0002844820801010900FFFF03030309030AD2
:101100008040200707070901007C02027E82867A60
:10111000070A0A090100808080BCC2828282C2BCA8
:101120000707070901007C82808080827C070A0A09
:101130000901000202027A86828282867A07070704
:101140000901007C8282FE80827C070A0A09010074
:101150001C22222020F820202020070A0A0901FD55
:101160007A84848478807C82827C070A0A09010060
:10117000808080BCC28282828282050A0A090200C3
:10118000600000E02020202020F8050D0D0902FD60
:1011900018000038080808080808888870070A0A34
:1011A000090100808080848890B0C88482050A0A82
:1011B000090200E02020202020202020F807070737
:1011C000090100EC929292929282070707090100AE
:1011D000BCC282828282820707070901007C828268
:1011E0008282827C070A0A0901FDB8C4828282C415
:1011F000B8808080070A0A0901FD3A468282824649
:101200003A0202020707070901009C62424040407F
:10121000400707070901007C82807C02827C070965
:10122000090901002020FC20202020221C0707079C
:101230000901008282828282867A070707090100FB
:1012400082824444282810070707090100828292FD
:101250009292AA44070707090100824428102844F3
:1012600082070A0A0901FD4242242424181810901A
:1012700060070707090100FE0408102040FE060B66
:101280000B0902001C20202020C0202020201C014F
:101290000C0C0904FF8080808080808080808080AA
:1012A00080060B0B090100E0101010100C1010103C
:1012B00010E007030309010762928CFFFFFFFFFFA5
:1012C000FFFFFFFFFFFFFFFFFFFFFFFFFFFFFFFF2E
:1012D000FFFFFFFFFFFFFFFFFFFFFFFF0000000911
:1012E000000E010B0B0904008080000080808080CC
:1012F00080808006080809010008789490A0A478EE
:1013000040070A0A0901001C222020F8202060A2C0
:101310005C070606090103827C44447C82070A0AB2
:10132000090100828244287C107C101010010B0BF4
:101330000904FF8080808080008080808080040B92
:101340000B0902FF609080609090906010906003A5
:10135000020209030BA0A00809090900013C4299F7
:10136000A5A1A599423C050707090103609070906B
:101370007800F807080809010112244890904824D1
:1013800012060404090102FC040404050101090217
:1013900004F80809090900013C42B9A5BDA9A54204
:1013A0003C060101090109FC0404040903066090DC
:1013B0009060070909090101101010FE10101000BB
:1013C000FE0406060901046090106080F004060621
:1013D00009010460902010906003030309030A20B0
:1013E00040800709090901FE8282828282C6BA8092
:1013F00080070A0A0901007E8A8A8A7A0A0A0A0A8A
:101400000A020202090404C0C00403030902FD2009
:10141000906003060609010440C0404040E0050614
:10142000060901047088887000F80708080901019E
:101430009048241212244890070A0A09010040C06B
:10144000404042E60A121A06070A0A09010040C093
:1014500040404CF2020C101E070A0A09010060907D
:10146000201092660A121A06070A0A0901001000E3
:10147000101020408082827C070E0E09010020108F
:10148000080010282828447C44828282070E0E0916
:1014900001000810200010282828447C4482828201
:1014A000070E0E0901001028440010282828447C4B
:1014B00044828282070D0D0901003458001028284B
:1014C00028447C44828282070D0D090100282800EF
:1014D00010282828447C44828282070E0E090100CD
:1014E0001028281010282828447C44828282070A69
:1014F0000A0901001E2828284E784888888E070D82
:101500000D0901FD3C42808080808080423C08249F
:1015100018070E0E09010020100800FE808080F8D8
:1015200080808080FE070E0E09010008102000FE5A
:10153000808080F880808080FE070E0E09010010F8
:10154000284400FE808080F880808080FE070D0D9A
:10155000090100282800FE808080F880808080FEBD
:10156000050E0E09020040201000F8202020202047
:10157000202020F8050E0E09020010204000F8205F
:1015800020202020202020F8050E0E0902002050E7
:101590008800F82020202020202020F8050D0D09AB
:1015A0000200505000F82020202020202020F807A2
:1015B0000A0A09010078444242F242424244780752
:1015C0000D0D0901003458008282C2A2928A8682DF
:1015D0008282070E0E090100201008007C828282A0
:1015E00082828282827C070E0E0901000810200090
:1015F0007C82828282828282827C070E0E090100B6
:10160000102844007C82828282828282827C070D42
:101610000D0901003458007C82828282828282829B
:101620007C070D0D0901002828007C8282828282BD
:101630008282827C0707070901018244281028441E
:1016400082070C0C0901FF027C868A8A9292A2A270
:10165000C27C80070E0E09010020100800828282E1
:1016600082828282824438070E0E0901000810200F
:101670000082828282828282824438070E0E0901B1
:10168000001028440082828282828282824438074B
:101690000D0D0901002828008282828282828282C6
:1016A0004438070E0E0901000810200082824428E9
:1016B000101010101010070A0A0901008080FC8227
:1016C0008282FC808080060A0A090100384444486E
:1016D000D04844444458070B0B090100201008006F
:1016E0007C02027E82867A070B0B0901000810201B
:1016F000007C02027E82867A070B0B09010010280B
:1017000044007C02027E82867A070A0A09010034BC
:1017100058007C02027E82867A070A0A09010028A4
:1017200028007C02027E82867A070C0C09010010D8
:10173000282810007C02027E82867A0707070901AA
:10174000006C12127E90926C070A0A0901FD7C82DD
:10175000808080827C104830070B0B09010020102C
:1017600008007C8282FE80827C070B0B0901000846
:101770001020007C8282FE80827C070B0B09010016
:10178000102844007C8282FE80827C070A0A0901BC
:10179000002828007C8282FE80827C050C0C0902D5
:1017A000008040200000E02020202020F8050C0CC4
:1017B0000902001020400000E02020202020F80531
:1017C0000C0C0902002050880000E020202020207E
:1017D000F8050B0B09020050500000E020202020EB
:1017E00020F8070B0B090100483050083C44828266
:1017F000824438070A0A090100345800BCC28282B8
:10180000828282070B0B090100201008007C828273
:101810008282827C070B0B090100081020007C8269
:10182000828282827C070B0B090100102844007C15
:1018300082828282827C070A0A0901003458007C75
:1018400082828282827C070A0A0901002828007CA1
:1018500082828282827C0709090901001038100007
:10186000FE001038100709090901FF027C8A8A92DC
:10187000A2A27C80070B0B0901004020100082828D
:10188000828282867A070B0B0901000810200082F1
:1018900082828282867A070B0B090100102844009D
:1018A0008282828282867A070A0A09010028280039
:1018B0008282828282867A070E0E0901FD04081058
:1018C0000042422424241818109060070B0B0901D1
:1018D000FE8080B8C4828282C4B88080070D0D0962
:1018E00001FD242400424224242418181090600191
:1018F000070D00FE09015F02CF20FFFE0BFE0AFE6E
:101900000D0070321979808080808080800080286E
:101910003373A0A0A01357775050F850F8505013CD
:1019200057772078A07028F02002697944A44810E5
:10193000102048948802677760909060948874388B
:10194000137380808022397920404080808040401D
:101950002022397980404020202040408004657555
:101960004830FC30481455752020F820201143736E
:10197000706080165171F821337340E0401259793C
:101980000808101020404080800269793048848423
:1019900084848448301259792060A020202020209F
:1019A000F80269797884840408304080FC026979FF
:1019B000FC0408103804048478026979081828485F
:1019C0008888FC0808026979FC8080B8C404048413
:1019D0007802697938408080B8C484847802697953
:1019E000FC04081010202040400269797884848427
:1019F00078848484780269797884848C74040408F7
:101A00007021387840E040000040E04011487820E4
:101A100070200000706080125979081020408040CA
:101A2000201008046474FC0000FC125979804020E6
:101A3000100810204080026979788484040810100E
:101A400000100269797884849CA4AC94807802693F
:101A5000793048848484FC848484026979F844441D
:101A60004478444444F80269797884808080808096
:101A70008478026979F844444444444444F802694F
:101A800079FC808080F0808080FC026979FC808015
:101A900080F08080808002697978848080809C8456
:101AA0008C7402697984848484FC848484841259CB
:101AB00079F820202020202020F80269791C0808CD
:101AC000080808088870026979848890A0C0A090EE
:101AD00088840269798080808080808080FC0269AF
:101AE0007984CCCCB4B4848484840269798484C439
:101AF000A4948C8484840269797884848484848422
:101B00008478026979F8848484F880808080016A0E
:101B10007A788484848484A4947804026979F8842B
:101B20008484F8A09088840269797884808078041D
:101B3000048478125979F8202020202020202002C7
:101B4000697984848484848484847802697984842F
:101B50008448484830303002697984848484B4B43D
:101B6000CCCC840269798484484830484884841203
:101B70005979888850502020202020026979FC045F
:101B8000081030204080FC114B7BF08080808080EA
:101B900080808080F01259798080404020101008A9
:101BA00008114B7BF0101010101010101010F018CE
:101BB0005373205088016171FC2A227280400266B2
:101BC0007678047C848C74026979808080B8C484BF
:101BD00084C4B80266767884808084780269790447
:101BE0000404748C84848C740266767884FC80840B
:101BF0007802697938444040F040404040006878BD
:101C00007488887080788478026979808080B8C40C
:101C10008484848412587820006020202020F810CA
:101C20005A7A0800180808080888887002697980BC
:101C300080808890E090888412597960202020204C
:101C4000202020F8125676D0A8A8A8A88802667688
:101C5000B8C484848484026676788484848478001A
:101C60006878B8C484C4B8808080006878748C8434
:101C70008C74040404026676B84440404040026616
:101C8000767884601884780268784040F04040405C
:101C90004438026676848484848C741256768888EC
:101CA000885050201256768888A8A8A850026676D8
:101CB0008448303048840068788484848C74048438
:101CC00078026676FC08102040FC115B7B384040AF
:101CD0004020C02040404038321979808080808088
:101CE00080808080115B7BE0101010201820101085
:101CF00010E018537348A890FFFFFFFFFFFFFFFF9E
:101D0000FFFFFFFFFFFFFFFFFFFFFFFFFFFFFFFFE3
:101D1000FFFFFFFFFFFFFFFFFF0D0070321979800B
:101D200000808080808080801358782070A8A0A0D8
:101D3000A8702002697938444040E0404044B8032C
:101D4000667684784848788402597988885050F8B3
:101D500020F8202032197980808080008080808067
:101D6000124A7A6090806090906010906019427280
:101D700090900269797884B4A4A4A4B484781457A8
:101D800077700878887800F8036777142850A05097
:101D90002814145373F80808164171F00269797811
:101DA00084B4ACACB4AC84781A5171F81744746044
:101DB0009090601357772020F8202000F816367690
:101DC00040A0204080E0163676E0204020A0402A47
:101DD0002272408001677784848484CCB480026955
:101DE000797CE8E8E86828282828262171C0202284
:101DF00072408016367640C0404040E0154676601E
:101E000090906000F0036777A05028142850A0023B
:101E10006A7A40C0404044EC14141C04026A7A40C0
:101E2000C0404048F40408101C026A7AE0204020B8
:101E3000A44C14141C0402697920002020408084E2
:101E40008478026A7A20100030488484FC848402FA
:101E50006A7A10200030488484FC8484026A7A30D4
:101E6000480030488484FC8484026A7A6498003094
:101E7000488484FC8484026A7A4848003048848418
:101E8000FC8484026A7A30483030488484FC84843C
:101E90000269795CA0A0A0B8E0A0A0BC006B7B7830
:101EA00084808080808084781020026A7A201000EC
:101EB000FC8080F08080FC026A7A102000FC808028
:101EC000F08080FC026A7A304800FC8080F08080DC
:101ED000FC026A7A484800FC8080F08080FC125A3C
:101EE0007A402000F82020202020F8125A7A204042
:101EF00000F82020202020F8125A7A205000F820E4
:101F000020202020F8125A7A888800F820202020EB
:101F100020F8026979F8444444E4444444F8026AED
:101F20007A64980084C4A4A4948C84026A7A2010F1
:101F30000078848484848478026A7A10200078840B
:101F40008484848478026A7A304800788484848423
:101F50008478026A7A64980078848484848478021D
:101F60006A7A484800788484848484780366768416
:101F70004830304884016B7B04788C9494A4A4A4EA
:101F8000C47880026A7A20100084848484848478EF
:101F9000026A7A10200084848484848478026A7AB5
:101FA00030480084848484848478026A7A484800B3
:101FB00084848484848478125A7A1020008888501B
:101FC0002020202002697980F8848484F880808031
:101FD000125979609090A0A0908888B00269792009
:101FE000100078047C848C740269791020007804D5
:101FF0007C848C7402697930480078047C848C7409
:1020000002697964980078047C848C740269794848
:10201000480078047C848C74026A7A3048300078F6
:10202000047C848C7402667668147C9094680068E2
:102030007878848080847810200269792010007874
:1020400084FC8084780269791020007884FC808484
:10205000780269793048007884FC80847802697954
:102060004848007884FC80847812597940200060C8
:1020700020202020F81259792040006020202020C4
:10208000F81259796090006020202020F8125979C8
:102090009090006020202020F8026A7A4830500892
:1020A000788484848478026979649800B8C48484CC
:1020B0008484026979201000788484848478026999
:1020C000791020007884848484780269793048000B
:1020D000788484848478026979649800788484841C
:1020E0008478026979484800788484848478135716
:1020F00077202000F800202001687804788C94A4D0
:10210000C47880026979201000848484848C7402ED
:102110006979102000848484848C74026979304841
:1021200000848484848C740269794848008484849F
:10213000848C74006B7B1020008484848C740484F1
:1021400078006A7A8080B8C48484C4B88080006BC8
:102150007B4848008484848C74048478FFD0FFE03A
:10216000FFCFFF64FFD1FF32380C060201FF64FF8E
:10217000D0FFFE00002100240027002A002D00309F
:1021800000330001010000040107010A01000022E0
:1021900000250028002B002E003100340002010031
:1021A00000050108010B0100002000230026002982
:1021B000002C002F0032000001000003010601097D
:1021C0000105050505070508080808020202020ABC
:1021D0000A080804040404010101010101010103CA
:1021E00003030303030303040707070C0C0C0C0C85
:1021F0000C0C0C0202020206060606060606060B78
:102200000B0B0B0B0B0B0B010210202008081020EE
:102210004010204080020102010804020101020472
:102220000810204080804020100804020180040231
:102230000180402010080402010804020101020488
:102240000810204080010204081020408000000A8D
:102250000B02090C0D0E080703040100000000002A
:10226000000000000000000000000000000000006E
:10227000000000000000000000121110000000002B
:10228000000000000000000000000000000000004E
:1022900000000000CA3211241FBECFEFD1E2DEBF22
:1022A000CDBF00E00CBF14E0A0E0B2E0EAE7FFE63B
:1022B00000E00BBF02C007900D92A63EB107D9F710
:1022C00027E0A6EEB4E001C01D92A334B207E1F707
:1022D00011E1CBE4D1E100E006C021970109802F94
:1022E000FE010E94D634CA34D10780E00807A9F75E
:1022F0000E94112F0C94BB370C940000089580E0CD
:1023000090E00895CF92DF92EF92FF920F931F9388
:10231000CF93DF931F92CDB7DEB76C01DC01DC9663
:102320001C91DC97DB960C917C01B4E0EB0EF11C68
:10233000DC015996ED91FC915A97C7016983199573
:10234000482F410F2981602FC7010E940C26F601FA
:1023500023AD082E000C990B820F911D83AF81E0F5
:1023600090E00F90DF91CF911F910F91FF90EF9030
:10237000DF90CF900895CF93DF93EC018E819F8102
:10238000009719F004960E94B425EE81FF81678DB5
:10239000062E000C770B7A8B698B80E490E00E940C
:1023A000C334788B6F87DF91CF910895FC018681CC
:1023B0009781009719F004960C94B4250895CF9254
:1023C000DF92EF92FF920F931F93CF93DF93CDB7DE
:1023D000DEB7C054D1090FB6F894DEBF0FBECDBF33
:1023E0008C017AA369A3BA01CE0183960E94EB34D3
:1023F00080E2FE01B196DE01119601900D928A9560
:10240000E1F7F801C084D184C6010196893FF3E069
:102410009F0730F425E0880F991F2A95E1F702C045
:102420008FEF9FEF0E9419337C01A60185E0440FD6
:10243000551F8A95E1F7D701A40FB51F80E2FE0171
:10244000319601900D928A95E1F7CD2831F0F8018F
:1024500062817381C7010E94E234F8018281938115
:10246000009711F00E94AE33F801F382E28280857A
:102470009185019691878087C05CDF4F0FB6F894F5
:10248000DEBF0FBECDBFDF91CF911F910F91FF90A7
:10249000EF90DF90CF900895EF92FF920F931F93EC
:1024A000CF93DF93EC018DAD8E010C5F1F4F811137
:1024B00005C081E08DAFC8010E944F25EE80FF80EE
:1024C000EDA9FEA982E01995EDA9FEA981E0199573
:1024D00020E030E044E1B701C8010E941B259E01C5
:1024E000295C3F4F47E1B701C8010E941B25EDA9B8
:1024F000FEA980E0DF91CF911F910F91FF90EF90A7
:102500001994CF93C091E604CC2329F083E00E9474
:10251000E828892B11F4C0E002C01092E6048C2F49
:10252000CF9108950F931F93CF93DF93EC018E818A
:102530009F81B2DF0EE311E08E819F8162E977E037
:1025400004960E94B4258E819F81FC01448D4E5FCC
:1025500060E004960E94DF2E8E819F81FC01248D15
:1025600042E0420F602F621B04960E94DF2EEE8134
:10257000FF8114A28E819F812B853C85FC01448DB7
:1025800060E004960E944D278E819F8126ED32E007
:1025900040E462E304960E944D278E819F816AE3A6
:1025A00071E004960E94B425EE81FF8114A32D856D
:1025B0003E858E819F8140E260E004960E944D2717
:1025C0008E819F812F853889FC01448D4E5D60E0AE
:1025D00004960E944D278E819F8104960E941F259C
:1025E0008111AACF8C819D818CDF882371F0EA81D3
:1025F000FB81309751F00190F081E02D82E090E076
:10260000DF91CF911F910F911994DF91CF911F917D
:102610000F91089583E00E94E828892B39F4809176
:10262000E604811103C081E08093E60408950F93CE
:102630001F93CF93DF93C091E704D091E80482E029
:102640000E94E8288C0161E070E080E090E00E9448
:102650007B2988E00E94E8282E813F814A815B81A6
:102660000417150751F08017910719F0C901019758
:1026700002C0C90101969F838E831B830A838E81CA
:102680009F81688179810E94C3348A859B858617E2
:10269000970744F088859985681779071CF07D8332
:1026A0006C8302C03F832E83DF91CF911F910F91E6
:1026B0000895CF93DF930E943F1D8BE090E00E942E
:1026C0001933EC01E091E904F091EA0482819381ED
:1026D0000190F081E02D198618861B821A821A86D5
:1026E0002AE432E0398328839F838E83FD83EC8341
:1026F000118610861386128617821682158214821E
:10270000138212826CE27DE0CE0150DE81E08A8786
:10271000E091E904F091EA04D583C483E881F9816A
:102720000280F381E02D49ED52E060E574E1CE01D5
:10273000DF91CF911994E091E904F091EA04868148
:102740009781009741F00E94AE33E091E904F09147
:10275000EA04178216828091E9049091EA04A9CFD5
:10276000FC01DB011186108613821282128680E43E
:1027700092E09183808357834683758364831796A1
:102780001C921E92169715961C921E9214971996DB
:102790001C921E9218971B961C921E921A971396C3
:1027A0001C921E921297168A158A148A138A8FEF2A
:1027B0009FEF968785876CE27DE0CF01DCCDCF92DD
:1027C000DF92EF92FF920F931F93CF93DF93CDB7DA
:1027D000DEB72A970FB6F894DEBF0FBECDBF0E94BA
:1027E0003F1D87E190E00E9419338C01E091E904DC
:1027F000F091EA044281538160817181B1DFE091FF
:10280000E904F091EA041583048300E010E0CE01AE
:1028100001967C0182EEC82E82E0D82E0D30110583
:102820006CF40A3011051CF08CED92E002C08BEDC7
:1028300092E01F930F939F938F9304C01F930F9366
:10284000DF92CF92FF92EF920E94F2340F900F909E
:102850000F900F900F900F90E091E904F091EA042F
:1028600084819581DC01ED91FC910280F381E02D62
:10287000A70164E37CE119950F5F1F4F0831110533
:1028800069F62A960FB6F894DEBF0FBECDBFDF9172
:10289000CF911F910F91FF90EF90DF90CF9008950F
:1028A000CF93DF930E943F1D87E190E00E94193390
:1028B000EC01E091E904F091EA04428153816081E6
:1028C00071814EDFE091E904F091EA04D583C4837D
:1028D000E881F9810280F381E02D48EE52E066ED57
:1028E00077E1CE011995E091E904F091EA04848141
:1028F0009581DC01ED91FC910280F381E02D47EFA1
:1029000052E06BEA7DE11995E091E904F091EA0467
:1029100084819581DC01ED91FC910280F381E02DB1
:1029200046E053E068EF7BE11995E091E904F0910E
:10293000EA0484819581DC01ED91FC910280F381B0
:10294000E02D45E153E06BE973E1DF91CF911994FC
:102950000F931F93CF93DF93EC01462F6E837F83FA
:102960000A851B8501151105B9F1288539852115C1
:10297000310591F181E090E0233010F080E090E0AB
:10298000081B190BF901FF27EE0FFF1FEE5DFD4F2E
:1029900020813181200F311FC8019695879596952A
:1029A0008795280F391FC80160E971E00E94AF3494
:1029B000260F371F240F311DC80164E670E00E9406
:1029C000AF34C901861B970B67E070E00E94AF34FB
:1029D0008F5F90E09D878C87DF91CF911F910F9142
:1029E00008959A016230710521F5CA018370992713
:1029F000892B39F4CA0164E670E00E94C334892B44
:102A000061F5C90164E670E00E94C334892B39F492
:102A1000C90160E971E00E94C334892BF1F0C9015A
:102A200060E971E00E94C334892BB9F08CE190E039
:102A30000895CB018D7F019799F06530710581F084
:102A4000CB010797029760F06A30710549F06C304E
:102A5000710531F08EE190E008958DE190E00895E8
:102A60008FE190E008954F925F926F927F928F92E4
:102A70009F92AF92BF92CF92DF92EF92FF920F930D
:102A80001F93CF93DF93EC018B018CE0482E512CE8
:102A90009FE1892E912CAA24A394B12C1016110623
:102AA0005CF5015011096E807F80CA84DB84E88464
:102AB000F984A601B701CE0194DF6816790634F4D3
:102AC0008FEF681A780A7F826E823AC08CE0E8162F
:102AD000F10444F48FEFE81AF80AF986E886BF8219
:102AE000AE822EC0BF82AE82B986A8868FEFC81A8A
:102AF000D80ADB86CA8624C00115110529F10F5FAB
:102B00001F4F8E819F818230910514F001970DC077
:102B1000688579854A855B85623071054CF0615026
:102B2000710979876887CE015CDF9F838E8308C037
:102B3000598648869F828E82415051095B874A8719
:102B40000115110509F0AACFDF91CF911F910F91C7
:102B5000FF90EF90DF90CF90BF90AF909F908F90BD
:102B60007F906F905F904F900895EF92FF920F9338
:102B70001F93CF93DF93EC018B0187E1E82EF12CBB
:102B80001016110674F4015011098881998187315A
:102B9000910514F4019610C01982188261E070E06A
:102BA00012C001151105A1F00F5F1F4F8881998197
:102BB0001816190624F401979983888306C0F982B0
:102BC000E8826FEF7FEFCE014EDF01151105C1F6F0
:102BD000DF91CF911F910F91FF90EF900895EF92A9
:102BE000FF920F931F93CF93DF93EC018B018BE345
:102BF000E82EF12C1016110674F4015011098A8187
:102C00009B818B33910514F4019610C01B821A82AC
:102C100061E070E012C001151105A1F00F5F1F4FB8
:102C20008A819B811816190624F401979B838A8355
:102C300006C0FB82EA826FEF7FEFCE0196DF0115BF
:102C40001105C1F6DF91CF911F910F91FF90EF9089
:102C500008950F931F93CF93DF93EC0127E044EF88
:102C600055E060E00E960E949724E091F405EF771E
:102C70008E2F82958F709AEF899FE00D1124EC8B37
:102C8000A091F5058A2F82958F70899FA00D112440
:102C9000AB8B8091F60586FF0CC0282F2F71322F49
:102CA00032953F70399F200D11242A8B80728E8BB4
:102CB00009C08F73282F22952F70299F800D112412
:102CC0008A8B1E8A8091F705282F22952F709AEF04
:102CD000299F800D1124282F8D8B6091F805862F58
:102CE00082958F70899F600D1124698B4091F90541
:102CF000842F82958F70899F400D1124488B80917D
:102D0000FA05382F32953F70399F800D112490E0DD
:102D10008053984F9F878E870A8910E01983088314
:102D2000B0E0BB83AA83F0E0FD83EC8370E07F8397
:102D30006E8350E0598748879B878A87822F90E06F
:102D40009D878C87DF91CF911F910F910895CF922E
:102D5000DF92EF92FF920F931F93CF93DF93CDB744
:102D6000DEB7C355D1090FB6F894DEBF0FBECDBF95
:102D7000DC011A96DC901A971B96CC901B9718963C
:102D8000ED91FC911997EE0FFF1FE858FD4FF08071
:102D9000E18016962D913C9117972A3031051CF051
:102DA0008CED93E002C08AE193E03F932F939F93D1
:102DB0008F938E010F5A1F4F1F930F930E94F2346F
:102DC000CF92DF92EF92FF921F930F938EE193E0E9
:102DD0009F938F93005511091F930F930E94F23414
:102DE0000FB6F894DEBF0FBECDBFC801CD5ADF4F7E
:102DF0000FB6F894DEBF0FBECDBFDF91CF911F910C
:102E00000F91FF90EF90DF90CF900895CF92DF92D7
:102E1000EF92FF920F931F93CF93DF93CDB7DEB75F
:102E2000CD56D1090FB6F894DEBF0FBECDBF8C01D1
:102E3000FC01248135812A3031051CF08CED93E0B2
:102E400002C08AE193E03F932F939F938F936E018B
:102E5000FBE6CF0ED11CDF92CF920E94F234F80134
:102E6000228133810F900F900F900F900F900F9051
:102E70002A3031051CF08CED93E002C08AE193E02A
:102E80003F932F939F938F937E01F8E6EF0EF11CF3
:102E9000FF92EF920E94F234F801208131810F906D
:102EA0000F900F900F900F900F902A3031051CF06B
:102EB0008CED93E002C08AE193E03F932F939F93C0
:102EC0008F938E010B591F4F1F930F930E94F23463
:102ED000DF92CF92FF92EF921F930F938BE293E0DA
:102EE0009F938F93045611091F930F930E94F234FE
:102EF0000FB6F894DEBF0FBECDBFC801C359DF4F78
:102F00000FB6F894DEBF0FBECDBFDF91CF911F91FA
:102F10000F91FF90EF90DF90CF900895FF920F9365
:102F20001F93CF93DF93EC01F62E8C01025F1F4FAE
:102F3000C8010E946A2428E044EF55E060E0C8011F
:102F40000E9497248091F40587FD19C01B861A867C
:102F5000198618861D821C821B821A821982188289
:102F600081E090E09D878C879F838E83FF20C1F056
:102F7000CE01DF91CF911F910F91FF906ACE21E09A
:102F800044EF55E060E0C8010E9497248091F40569
:102F900080688093F40561E080E00E94AE2DD6CF7A
:102FA000DF91CF911F910F91FF900895CF93DF9301
:102FB00066D5E091E904F091EA0486819781892B36
:102FC00069F487E190E00E941933EC0160E0A6DF2C
:102FD000E091E904F091EA04D783C68387E190E0A9
:102FE0000E941933EC01E091E904F091EA04428176
:102FF000538160817181B4DBE091E904F091EA04CE
:10300000D583C483E881F9810280F381E02D4AE30E
:1030100053E06FED73E1CE011995E091E904F09171
:10302000EA0484819581DC01ED91FC910280F381B9
:10303000E02D43E453E06AE971E21995E091E90477
:10304000F091EA0484819581DC01ED91FC9102808C
:10305000F381E02D4EE453E069E271E21995E091CD
:10306000E904F091EA0484819581DC01ED91FC9101
:103070000280F381E02D4AE553E067EC70E2199598
:10308000E091E904F091EA0484819581DC01ED91FD
:10309000FC910280F381E02D43E653E065E970E2A4
:1030A0001995E091E904F091EA0484819581DC01AD
:1030B000ED91FC910280F381E02D4DE653E061E952
:1030C0007FE11995E091E904F091EA04848195810A
:1030D000DC01ED91FC910280F381E02D46E753E0A5
:1030E0006DE17EE11995E091E904F091EA048481B3
:1030F0009581DC01ED91FC910280F381E02D45E1A9
:1031000053E060E574E1DF91CF9119940F931F9321
:10311000CF93DF93EC018B0161E08BE00E943F29AC
:10312000209711F460E004C0CF3FD10529F461E09D
:103130008BE00E941029ADC0E8E5F2E2E4918E2F09
:1031400090E0FC013197E231F10508F09DC088273D
:10315000EE58FF4F8F4F0C94D63484B5806884BDF1
:10316000C7BD97C084B5806284BDC8BD92C0809140
:103170008000806880938000D0938900C09388008D
:1031800088C080918000806280938000D0938B0003
:10319000C0938A007EC08091800088608093800008
:1031A000D0938D00C0938C0074C08091B000806873
:1031B0008093B000C093B3006CC08091B000806277
:1031C0008093B000C093B40064C080919000806888
:1031D00080939000D0939900C09398005AC080913A
:1031E0009000806280939000D0939B00C0939A00DF
:1031F00050C080919000886080939000D0939D0093
:10320000C0939C0046C08091A00080688093A0007D
:103210008091A0008F7B8093A000D093A900C093E1
:10322000A80037C08091A00080628093A000D09356
:10323000AB00C093AA002DC08091A000886080934D
:10324000A000D093AD00C093AC0023C080912001BA
:10325000806880932001D0932901C093280119C070
:1032600080912001806280932001D0932B01C09334
:103270002A010FC080912001886080932001D093A3
:103280002D01C0932C0105C0C038D1050CF04FCFE3
:1032900049CFB801110F880B990B0E947B2961E07F
:1032A0008BE00E943F2960E08BE0DF91CF911F917E
:1032B0000F910C94102980E090E00E946B34682FED
:1032C00070E06115710529F0759567958AE090E0C9
:1032D0001DCF08957F928F929F92AF92BF92CF920F
:1032E000DF92EF92FF920F931F93CF93DF93EC0146
:1032F000EC81FD81048115811C870B872D893E8916
:103300008D859E850217130714F0019609C02B893D
:103310003C890217130734F4181619061CF4019798
:103320009E878D878F8598894D855E85849F9001C6
:10333000859F300D949F300D1124021B130B3C8B85
:103340002B8B48855985820F931F481759070CF41A
:10335000CA019E8B8D8B8E819F819ED8772473941A
:10336000C988DA880C9D602D11246F5F8E819F8142
:103370004C2D04960E94DF2EEB88FC88470155E017
:10338000880C991C5A95E1F7A12CB12C2D893E8906
:103390008E819F81E216F3068CF56F8578894D85C5
:1033A0005E85649F9001659F300D749F300D1124E0
:1033B000A701421B530B0417150711F4FC0114A2BB
:1033C000C501880D991D2A813B81280F391F2E5F69
:1033D0003F4F8E819F814C2D60E004960E944D27C7
:1033E000EE81FF8174A289899A89C80ED91EFFEFE8
:1033F000EF1AFF0A40E2A40EB11CC8CF04960E9447
:103400001F258111ADCF8C819D817BD88823F1F060
:1034100052DF8B859C859C0145E0220F331F4A9526
:10342000E1F7EA81FB81E20FF31F0190F081E02DCB
:10343000DF91CF911F910F91FF90EF90DF90CF9090
:10344000BF90AF909F908F907F901994DF91CF9114
:103450001F910F91FF90EF90DF90CF90BF90AF90B2
:103460009F908F907F9008950F931F93CF93DF933A
:10347000CDB7DEB767970FB6F894DEBF0FBECDBFEE
:103480008C01DC0116968D919C91179705D860E010
:10349000CE01019643DDCE010196DBDBCE01019624
:1034A000B5DCD8011696ED91FC911797478D440F26
:1034B0009C0160E0CF0104960E944D27CE01019649
:1034C00046DCD8011696ED91FC911797478D242F75
:1034D000220F420F9C0160E0CF0104960E944D270D
:1034E000F8018681978104960E941F258111D6CF0D
:1034F000D80114968D919C91159703D8882389F053
:10350000F80182819381892B61F0D5DED801129672
:10351000ED91FC9113970190F081E02D82E090E015
:10352000199567960FB6F894DEBF0FBECDBFDF9139
:10353000CF911F910F910895CF93DF9380E090E09A
:103540000E946B34C82FD0E02097F1F0BE0188ECC8
:1035500090E0DCDDBE0182E390E0D8DD6EE170E05A
:1035600080E090E00E947B29BE0184E190E0CEDD06
:103570006EE170E080E090E00E947B29BE0184E172
:1035800090E0DF91CF91C2CDDF91CF91089587E494
:1035900096E00E94B52721E0892B09F420E0822FD4
:1035A0000895EF92FF920F931F93CF93DF93EC0157
:1035B00081E0888F9B8D8C8D981305C0E889F989EF
:1035C000808185FD24C0F62E0B8D10E00F5F1F4F0C
:1035D0000F731127E02E8C8DE8120CC00FB607FC7C
:1035E000FACFE889F989808185FFF5CFCE010E9465
:1035F000A628F1CF8B8DFE01E80FF11DE35AFF4F96
:10360000F0820B8FEA89FB898081806207C0EE8996
:10361000FF896083E889F98980818064808381E003
:1036200090E0DF91CF911F910F91FF90EF9008955F
:103630001F920F920FB60F9211240BB60F922F9379
:103640003F934F935F936F937F938F939F93AF932A
:10365000BF93EF93FF9387E496E00E94A628FF9123
:10366000EF91BF91AF919F918F917F916F915F91FA
:103670004F913F912F910F900BBE0F900FBE0F9067
:103680001F9018951F920F920FB60F9211240BB630
:103690000F922F938F939F93EF93FF93E091570691
:1036A000F09158068081E0915D06F0915E0682FD02
:1036B00012C09081809160068F5F8F7320916106A8
:1036C000821751F0E0916006F0E0E95BF94F958FC9
:1036D0008093600601C08081FF91EF919F918F914F
:1036E0002F910F900BBE0F900FBE0F901F9018954B
:1036F000909181052091800550917F0560917E0514
:10370000A0917C05B0917D05E0917A05F0917B0553
:103710003FB730937905F8943C91392B4C91422373
:1037200098E087FF02C03C9301C04C93880F208132
:10373000262320832081252B2083915091F780918F
:1037400079058FBF0895CF93C62F811102C088EFEE
:1037500003C0813011F48AEFCBDF8C2F807FC8DF6C
:103760008C2F8295807FC4DF88E290E0FC01319746
:10377000F1F7FC013197F1F7FC013197F1F701976F
:10378000F1F7CF910895282F30E0F901EF53FE4D66
:10379000E491F0E0EE0FFF1FE357FE4D8591949109
:1037A00090937D0580937C0570E0FB01EF53FE4D07
:1037B0009491E92FF0E0EE0FFF1FE357FE4D859146
:1037C000949190937B0580937A05F901E95FFD4D13
:1037D000249120938105FB01E95FFD4D6491609385
:1037E0007F05609560937E05209520938005089560
:1037F0000895E091E904F091EA040680F781E02D54
:10380000309719F001969187808780E090E0CECBC9
:10381000E091E904F091EA040680F781E02D309709
:1038200021F08C51984F9387828780E090E0BECB47
:10383000E091E904F091EA040680F781E02D3097E9
:1038400011F09583848380E090E0B0CBE091E904AF
:10385000F091EA040680F781E02D309711F0938310
:10386000828380E090E0A2CBE091E904F091EA0449
:103870000680F781E02D309711F09183808380E0FE
:1038800090E094CB860F911DFC0183A18F3F19F02E
:10389000642F0C9410290895EF92FF920F931F93B9
:1038A000CF93DF93EC01142F7901862F90E0FC0178
:1038B0003197E730F10508F07FC08827EC57FF4FBC
:1038C0008F4F0C94D6347E0183E2E80EF11C8E01FA
:1038D000005D1F4FF70180818F3F41F061E00E9442
:1038E0003F2961E0F70180810E941029FFEFEF1A64
:1038F000FF0AE016F10671F740E062E0CE01C2DF98
:1039000041E064E0CE01BEDF40E065E0CE01BADF19
:103910006FA188A538DF1EA24FC08BA18F3F09F48D
:103920004BC060E004C0411105C040E062E0CE0140
:10393000A9DF42C041E062E0CE01A4DF6FA188A50B
:1039400022DF3AC0642F8EA1FEDE36C08EA1811127
:1039500002C088EF03C0813011F48AEFC9DEC8E2EB
:10396000D0E0112379F0F7018081807FC1DEF7017B
:1039700081917F018295807FBBDE1150CE0101973E
:10398000F1F7EFCF88E290E0FC013197F1F7FC010D
:103990003197F1F7FC013197F1F70197F1F70CC07E
:1039A000112351F0F70164918EA1CDDEFFEFEF1AE4
:1039B000FF0A1150F5CF4EA381E0DF91CF911F9107
:1039C0000F91FF90EF9008952AE0289FB001299F62
:1039D000700D112480E090E00E94733480E090E04C
:1039E0000C945014BC01E091E904F091EA04868142
:1039F0009781009721F06F5F7F4F0E94A81480E0AD
:103A000090E0D4CADB011496ED91FC91159720E06B
:103A100030E065E01994DB011496ED91FC91159767
:103A200020E030E062E01994DB011496ED91FC9106
:103A3000159720E030E063E019940F93FC010150EA
:103A4000040F84A996A9941718F0081728F402C047
:103A5000081750F0041740F42150260F83A995A9A8
:103A6000961720F4281720F480E007C0281720F4C8
:103A700081E0261710F0F8CF81E00F910895CF92E2
:103A8000DF92EF92FF920F931F93CF93DF9380917A
:103A9000E9049091EA040896DCD80091E9041091B9
:103AA000EA04780188E0E80EF11CCEE1D0E08BE377
:103AB000C82ED12C1C161D068CF42197F801848584
:103AC00095858B33910524F401969587848724C0CE
:103AD000F8011586148661E070E01CC0209749F457
:103AE000E091E904F091EA04C481D5812097B9F40A
:103AF00029C02196F80124853585121613062CF469
:103B0000215031093587248707C0F801D586C4863E
:103B10006FEF7FEFC70163D8209761F6E1CF80EAAE
:103B200092E0998388838A819B81009711F00E949B
:103B3000AE33CE010E94AE33E091E904F091EA0485
:103B400015821482DF91CF911F910F91FF90EF901A
:103B5000DF90CF900895CF92DF92EF92FF920F9374
:103B60001F93CF93DF93CDB7DEB764970FB6F8946A
:103B7000DEBF0FBECDBF83DF87E190E00E94193327
:103B80008C01E091E904F091EA0442815381608163
:103B900071810E94B013E091E904F091EA04158369
:103BA000048300E010E088EDC82E83E0D82ECE011B
:103BB00001967C011F930F93DF92CF92FF92EF92B9
:103BC0000E94F234E091E904F091EA048481958145
:103BD000DC01ED91FC910280F381E02DA70164EE00
:103BE0007CE119950F5F1F4F0F900F900F900F9072
:103BF0000F900F900B301105E9F6E091E904F09178
:103C0000EA0484819581DC01ED91FC910280F381CD
:103C1000E02D45E153E060E574E1199564960FB637
:103C2000F894DEBF0FBECDBFDF91CF911F910F91F2
:103C3000FF90EF90DF90CF9008950F931F93CF9355
:103C4000DF931F92CDB7DEB71ADFE091E904F09160
:103C5000EA0406811781D8011A968D919C911B97D1
:103C6000009779F018962D913C91199721153105FF
:103C700041F016964D915C9117974115510509F049
:103C800049C05ADC81E190E00E941933FC01809127
:103C9000E9049091EA04DC0112962D913C9113976E
:103CA0006D917C911186108613821282128646E9EC
:103CB00052E0518340833783268375836483DB011D
:103CC00019961C921E9218971B961C921E921A9778
:103CD00017961C921E92169715961C921E92149778
:103CE00013961C921E9212972FED33E03487238790
:103CF0002AEE33E03687258720E034E0308B2787B3
:103D0000DC011596FC93EE93149749ED52E066EDB5
:103D100077E1FEC0F8013081328B3281338B348100
:103D2000348B3485358B418B208B9787868721E0B8
:103D3000AE014F5F5F4F62E0C8010E96F8D5398142
:103D400030743983D80154962C9154974AE0822FCD
:103D5000642F0E94A334982F990F980F990F920FF8
:103D60009093F40553962C915397822F0E94A3347D
:103D7000982F990F980F990F920F9093F5055296DF
:103D80002C91332301F131E02D3008F430E0F801BB
:103D9000368B332311F02C50228BD80152962C9164
:103DA000822F6AE00E94A334982F990F890F880F01
:103DB000280F311120622093F6058091F60580646A
:103DC0008093F6050BC0822F642F0E94A334982F96
:103DD000990F890F880F280F2093F605F801258980
:103DE0003AE0822F632F0E94A334982F990F980FE7
:103DF000990F920F9093F7052189822F0E94A33487
:103E0000982F990F980F990F920F9093F80520898A
:103E1000822F0E94A334982F990F980F990F920F19
:103E20009093F9052685205D822F0E94A334982F58
:103E3000990F890F880F280F2093FA0567E080E01B
:103E40000E94AE2DE091E904F091EA048681978109
:103E50000E94AE33E091E904F091EA0417821682E1
:103E600080E090E00E946B34082F10E001151105EE
:103E700041F0B80182E390E049D9B80188EC90E0C4
:103E800045D981E190E00E941933FC018091E90459
:103E90009091EA04DC0112962D913C9113976D915B
:103EA0007C911186108613821282128646E952E0B6
:103EB000518340833783268375836483DB0119969E
:103EC0001C921E9218971B961C921E921A97179678
:103ED0001C921E92169715961C921E92149713967A
:103EE0001C921E9212972FE034E03487238727E13B
:103EF00034E03687258727E234E0308B2787DC01E2
:103F00001596FC93EE93149749ED52E060E574E149
:103F1000CF010E94DF110F90DF91CF911F910F9180
:103F20000895AF92BF92CF92DF92EF92FF920F93DC
:103F30001F93CF93DF93CDB7DEB7C659D1090FB624
:103F4000F894DEBF0FBECDBF9ADDE090E904F0909B
:103F5000EA04D7011696ED91FC9117978285938517
:103F6000892B29F080859185892B09F04CC0E4DAF2
:103F700081E190E00E941933FC018091E904909165
:103F8000EA04DC0112962D913C9113976D917C917E
:103F90001186108613821282128646E952E05183FE
:103FA00040833783268375836483DB0119961C92D3
:103FB0001E9218971B961C921E921A9717961C9287
:103FC0001E92169715961C921E92149713961C9289
:103FD0001E9212972BE334E03487238721E434E0E8
:103FE0003687258721E534E0308B2787DC0115965D
:103FF000FC93EE93149749ED52E066ED77E1CF0123
:104000000E94DF1180C087E190E00E9419338C018B
:10401000F70142815381608171810E94B013E09168
:10402000E904F091EA0415830483D801ED91FC9131
:104030000480F581E02D6FEE78E1C8011995E091DB
:10404000E904F091EA0486819781FC014285538559
:10405000608571850E94F1146C01AA24A394B12C8F
:1040600002E614E0CE0101967C01CA14DB040CF4D4
:104070004AC0E091E904F091EA04B5018681978194
:104080000E94A814E091E904F091EA0486819781E6
:104090000E94A716E091E904F091EA040680F781F6
:1040A000E02D248535852115310541F0220F331F80
:1040B000F901E859FD4F2081318102C027E334E046
:1040C0009F938F933F932F931F930F93FF92EF92A2
:1040D0000E94F234E091E904F091EA048481958130
:1040E000DC01ED91FC910280F381E02DA70162EFEC
:1040F0007CE11995BFEFAB1ABB0A0FB6F894DEBF8F
:104100000FBECDBFB2CFCA56DF4F0FB6F894DEBF99
:104110000FBECDBFDF91CF911F910F91FF90EF9018
:10412000DF90CF90BF90AF900895CF93DF93A7DC3F
:1041300087E190E00E941933EC01E091E904F091ED
:10414000EA0442815381608171810E94B013E09141
:10415000E904F091EA04D583C483CAE7D2E0E09190
:10416000E904F091EA048481958149915991DC0137
:10417000ED91FC910280F381E02D69EF7BE11995CF
:10418000B2E0C239DB0759F7DF91CF910895CF92A2
:10419000DF92EF92FF920F931F93CF93DF93CDB7F0
:1041A000DEB764970FB6F894DEBF0FBECDBF67DCF5
:1041B00087E190E00E9419338C01E091E904F091CD
:1041C000EA0442815381608171810E94B013E091C1
:1041D000E904F091EA041583048304EE17E08CED02
:1041E000C82E83E0D82ECE0101967C011F930F9339
:1041F000DF92CF92FF92EF920E94F234E091E904B5
:10420000F091EA0484819581DC01ED91FC910280BA
:10421000F381E02DA70168E07CE119950F5F1F4F46
:104220000F900F900F900F900F900F900433B8E005
:104230001B07E1F664960FB6F894DEBF0FBECDBF44
:10424000DF91CF911F910F91FF90EF90DF90CF9072
:104250000895CF92DF92EF92FF920F931F93CF9327
:10426000DF93CDB7DEB72E970FB6F894DEBF0FBE43
:10427000CDBF05DC87E190E00E9419338C01E0910D
:10428000E904F091EA0442815381608171810E94C6
:10429000B013E091E904F091EA041583048300E08F
:1042A00010E0CE0101967C0185E7C82E84E0D82E6F
:1042B0000A3011056CF40130110519F084E794E01F
:1042C00002C089E694E01F930F939F938F9304C0DD
:1042D0001F930F93DF92CF92FF92EF920E94F234DE
:1042E0000F900F900F900F900F900F90E091E904B6
:1042F000F091EA0484819581DC01ED91FC910280CA
:10430000F381E02DA70168E17CE119950F5F1F4F54
:104310000C33110569F62E960FB6F894DEBF0FBE6A
:10432000CDBFDF91CF911F910F91FF90EF90DF9064
:10433000CF900895CF92DF92EF92FF920F931F9349
:10434000CF93DF93CDB7DEB72E970FB6F894DEBFCD
:104350000FBECDBF94DB87E190E00E9419338C0142
:10436000E091E904F091EA04428153816081718116
:104370000E94B013E091E904F091EA0415830483EC
:1043800000E010E0CE0101967C018CE8C82E84E0AC
:10439000D82E0A3011056CF40130110519F08BE8A4
:1043A00094E002C080E894E01F930F939F938F9353
:1043B00004C01F930F93DF92CF92FF92EF920E945F
:1043C000F2340F900F900F900F900F900F90E0919C
:1043D000E904F091EA0484819581DC01ED91FC917E
:1043E0000280F381E02DA70166E27CE119950F5F61
:1043F0001F4F0C33110569F62E960FB6F894DEBFE9
:104400000FBECDBFDF91CF911F910F91FF90EF9025
:10441000DF90CF9008958091A20590E02091A305B0
:10442000821B9109089508950F931F93CF93DF93F3
:10443000EC010E811F819D81969596959695862F0C
:104440008770A0E8B0E002C0B595A7958A95E2F71D
:104450008A81481B499F402D112466956695669573
:10446000E62FF0E0E40FF11DE00FF11F8081222321
:1044700011F0A82B02C0A095A823A083DF91CF91B3
:104480001F910F910895FB014181DC0112962C913F
:104490001297421760F013962C911397241738F057
:1044A000608115962C91621710F42481BDCF089578
:1044B000FC0180819281980F92832181921760F490
:1044C00094819F5F94839381890F821710F08FEFFF
:1044D000820F838381E0089580E00895FC011282B9
:1044E0008081815083831482089580E008950B9623
:1044F000FC01849108950A96FC0184910895FC01C1
:1045000084910895FCDF882321F0823011F083E04C
:10451000089586E00895FC01E60FF11D849190E076
:10452000982F88273196E4918E0F911D089568E0A9
:10453000F2CF66E0F0CF2EE93FE0009729F0F901D5
:104540003197F1F70197F9CF0895CF92DF92EF926B
:10455000FF920F931F93CF93DF937C01262F972F0A
:104560008A0180912306882391F0C62FD72F6E01F0
:10457000C40ED51ECC15DD0571F06991D701ED9102
:10458000FC910190F081E02DC7011995F3CF642FC4
:10459000822F0E94922CC801DF91CF911F910F9121
:1045A000FF90EF90DF90CF900895CF93DF931F920D
:1045B000CDB7DEB76983209123062223D1F0209165
:1045C0004606203240F021E030E0FC0133832283B4
:1045D00080E090E015C080912406E82FF0E0EB5DCC
:1045E000F94F998190838F5F8093240680934606CC
:1045F00005C061E0CE0101960E94922C81E090E01E
:104600000F90DF91CF9108959F92AF92BF92CF927A
:10461000DF92EF92FF920F931F93CF93DF937C0172
:104620008B01942E69012AE04217B9F035E143135A
:10463000A9C0FB01A280B38040E0EDD941E0B80100
:10464000C701F2D9D5011296CC9112971696AD906A
:10465000BC901797D8E0DC0F62C0DB011496ED9197
:10466000FC91159720E030E043E061E0199580E08F
:104670009CE5A92E91E2B92EF501C49181110AC0E1
:10468000CF3F09F447C04C2FB801C701BBD98111F6
:104690003FC078C0CF3F11F44FEFF6CFCE3F09F4C3
:1046A00071C0C03FA8F5C03E30F04C2F4F70B8012C
:1046B000C701B1D92DC0C03D30F04C2F4F70B801AB
:1046C000C701B2D925C0C03CF0F0D8011496ED91D5
:1046D000FC91159720E030E040E064E0C7011995B7
:1046E000C295C07FCE5FD0E0CE0125DFD801149601
:1046F000ED91FC91159720E030E041E064E0C701C6
:104700001995CE0104C0C7FD03C08C2F90E013DFC4
:1047100080E001C081E0BFEFAB1ABB0AADCF40E043
:10472000B801C70178D94EE3B801C7016BD9C032CF
:1047300038F44C2F4068B801C70164D940E807C07D
:1047400040EE4C0F4068B801C7015CD948E8B80199
:10475000C70158D941E0B801C7015DD9D801149605
:10476000ED91FC911597950140E166E0C70119951F
:10477000B0E1AB0EB11CCF5FCD13D1CF40E0B8019B
:10478000C70152D9F801C281D381F2E39F1609F41F
:1047900068C0F91598F025E1921609F46DC037E16B
:1047A000931609F479C084E1981287C0EE81FF81E5
:1047B0008D819F01280F311DC90157C096E49916BC
:1047C00009F474C0A7E49A1609F474C0BBE39B1201
:1047D00074C0F60181819381913029F0933031F4D6
:1047E000482F885004C048E0480F01C0482F21E0FE
:1047F0003B81381708F420E031E05A81451708F46E
:1048000030E051E0481708F050E0822F852B382324
:1048100019F4252309F451C0D6011296FC90913069
:1048200051F030F0923049F0933051F41FEF09C04D
:1048300010E001E007C011E004C010E00FEF02C07B
:1048400010E000E0F7FE03C0B601CE011CDEF60169
:104850008081800F80838181810F8183FF0C91F79C
:104860002CC0B601CE010FDE28C01192E817F9075F
:10487000E1F7CE0133DE21C0CE011ADE8823F1F04C
:10488000EE81FF818D81DF01A80FB11DCD01119255
:10489000E817F907E1F711C0F60110828A818183D8
:1048A0008D81815082838B81838307C08D81D60166
:1048B0008C9303C08981F601808381E0DF91CF91E1
:1048C0001F910F91FF90EF90DF90CF90BF90AF902E
:1048D0009F900895FC011382128211821082168229
:1048E0001582148217821092A3051092A2051092CD
:1048F0002406109246061092220681E0809321063B
:104900001092FC0561E084E18BD461E085E188D4FC
:10491000E9EBF0E080818E7F808380818D7F8083D2
:1049200088E48093B80085E48093BC000895EF92FA
:10493000FF920F931F93CF93DF931F921F92CDB7D8
:10494000DEB7F22E81E08093230688E68093450649
:10495000109224061092460684EE96E049835A830C
:1049600024DE81E00E94512D49815A81811159C074
:10497000809122068111FCCF8F2D90E29F1508F4C3
:1049800080E291E090932206909321062FEF2093EE
:10499000200610921F06280F20931E069093FD05F7
:1049A0009091FD05906D9093FD059091FC059130DF
:1049B00061F41092FC059091FD059093BB009091DD
:1049C000BC0093FDF8CF95EC01C095EE9093BC0030
:1049D000909122069130E1F390911F06981710F400
:1049E00080911F06AEEFB5E022E835E0F9019E2F79
:1049F000921B981718F49D919193F9CF1092A305EB
:104A00008093A205E42E8A01802F8E198F1538F429
:104A100084EE96E085D3F80181938F01F5CF8F2D39
:104A200001C080E00F900F90DF91CF911F910F9107
:104A3000FF90EF900895DB01ED91FC911994EF92B6
:104A4000FF921F93CF93DF93EC01EE85FF853097A4
:104A500009F01995EA80FB80E9A9FAA982E0199585
:104A6000E9A9FAA981E0199520E030E045E1B70114
:104A7000CE01E1DF182F882339F09E012D5C3F4FD6
:104A800047E1B701CE01D7DFE9A9FAA980E019957E
:104A9000812FDF91CF911F91FF90EF900895EF92BA
:104AA000FF920F931F93CF93DF931F92CDB7DEB783
:104AB0008C01DC011296ED90FC901397D196ED914C
:104AC000FC91D29782E0199520E030E04AE0B701EE
:104AD000C801B1DFF82ED801D196ED91FC91D297A3
:104AE00083E01995D801D196ED91FC91D29780E0A1
:104AF0001995FF2081F1F801628173819E012F5F7A
:104B00003F4F46E4C80197DF8981D8018C93129604
:104B10006D917C9113979E012F5F3F4F47E4C80131
:104B20008ADF8981F80181836281738120E030E02E
:104B300048E4C80180DFD8011B968C931B9798012D
:104B40002D5C3F4F12966D917C91139747E1C80100
:104B500072DF81E001C080E00F90DF91CF911F9163
:104B60000F91FF90EF900895DC0114968D919C9128
:104B700015978617970709F44EC015967C936E9388
:104B800014976115710509F440C057968C91579799
:104B9000FB01811108C03596E4915896EC93589723
:104BA000FB013C9611C0813041F43F96E491589648
:104BB000EC935897FB01709607C03D96E491589688
:104BC000EC935897FB013E96649159966C935997D4
:104BD00058968C915897082E000C990B59962C9149
:104BE0005997821B910927FD93955A962C915A97B4
:104BF000203441F0829FC001112426E096958795CC
:104C00002A95E1F75B968C935B9785E792E256963F
:104C10009C938E93559708952F923F925F926F9237
:104C20007F928F929F92AF92BF92CF92DF92EF923C
:104C3000FF920F931F93CF93DF931F92CDB7DEB7F1
:104C40001C01C62E142FD22EDC011496ED90FC9080
:104C50001597C70154DC082FF1018481958152DC3E
:104C6000982E013019F48FE0A82E02C0AA24AA942D
:104C7000D10114968D919C9115973DDC082FF1017F
:104C80008481958134DCB82ED10114968D919C914C
:104C900015974DDCB0E6BD1530F4009721F0E80E15
:104CA000F91E01E610C0F1018481958142DCF0E437
:104CB000FD1530F4009721F0E80EF91E01E403C061
:104CC00021E1E20EF11CBD1480F4D10150961C923A
:104CD000509753961C92539754961C925497519602
:104CE0001C92519752961C92C4C0B01670F3892D35
:104CF00090E0F70124912F3F21F4FFEFEF1AFF0A14
:104D000059C00D114EC0D10114968D919C911597EB
:104D1000F6DB97012F5F3F4FF701882311F08230B8
:104D2000E1F48491D10153968C935397F901249126
:104D300054962C935497F7013396E4915096EC9344
:104D40005097F7013496E4915196EC935197F701FF
:104D50003596E4915296EC9320C08491982F9F70E1
:104D60009250D10152969C93529782958F70519692
:104D70008C935197F9012491822F8F7054968C93C4
:104D8000549722952F7053962C935397F701329690
:104D9000E491E295EF705096EC93E114F10479F40C
:104DA00068C0F7013296E491EA219C012E0F311D73
:104DB000E20EF31E0B1509F488CF0F5F9ACFF101B5
:104DC000848195819FDBB82ED10153969C90539797
:104DD0005496DC90549751968C915197C80E5296E8
:104DE0009C919D0D512E591A0D2D292D452D6C2D5F
:104DF000C1010E941D1D8823C9F1C7018B0D911DA2
:104E00005C0187E0890DF82EF694F694F694D50CA3
:104E100041019CE1890E911C6F2C712C5D1431F1C4
:104E20005C2D8501802F8A198F15E0F4F80184919B
:104E3000D10112966D917C9113975C965C935C976F
:104E40005D965C925D975F961C925F975E968C93E1
:104E500094014BE3C1015983EEDD0F5F1F4F598170
:104E6000585FE0CFA60CB71C5394D8CFF1018089CE
:104E700001C080E00F90DF91CF911F910F91FF90C3
:104E8000EF90DF90CF90BF90AF909F908F907F90EA
:104E90006F905F903F902F900895AF92BF92DF92F6
:104EA000EF92FF920F931F93CF93DF931F921F9266
:104EB000CDB7DEB77C01D62E042FDC015596ED91DF
:104EC000FC91569729833A831995080F2981A22EC0
:104ED0003A81B32E10E0F50121915F01222339F0D0
:104EE000402F6D2DC70198DED80E180FF4CF812FFB
:104EF0000F900F90DF91CF911F910F91FF90EF9046
:104F0000DF90BF90AF900895FC01538D448D252F05
:104F100030E0842F90E0821B930B541710F0CF9653
:104F2000089501970895FC01918D828D981761F085
:104F3000828DDF01A80FB11D5D968C91928D9F5FD0
:104F40009F73928F90E008958FEF9FEF0895FC017B
:104F5000918D828D981731F0828DE80FF11D858D2E
:104F600090E008958FEF9FEF0895FC01918D228DC1
:104F7000892F90E0805C9F4F821B91098F73992746
:104F8000089580E090E0892B21F00E94C71A8111DA
:104F900025C080E090E0892B41F080E090E0892BF3
:104FA00021F00E94000081111CC080E090E0892B5C
:104FB00041F080E090E0892B21F00E9400008111F7
:104FC00013C080E090E0892BA1F080E090E0892B75
:104FD00081F00E94000081110AC008950E94000023
:104FE000D8CF0E940000E1CF0E940000EACF0C94CD
:104FF0000000089590E0FC013197E231F10508F0DE
:105000004EC08827E557FF4F8F4F0C94D6348091C0
:1050100080008F7703C0809180008F7D8093800017
:10502000089580918000877FF9CF84B58F7702C083
:1050300084B58F7D84BD08958091B0008F7703C0C3
:105040008091B0008F7D8093B00008958091900092
:105050008F7707C0809190008F7D03C08091900072
:10506000877F8093900008958091A0008F7707C07C
:105070008091A0008F7D03C08091A000877F8093E6
:10508000A0000895809120018F7707C080912001B2
:105090008F7D03C080912001877F80932001089538
:1050A0003FB7F8948091F0059091F105A091F20539
:1050B000B091F30526B5A89B05C02F3F19F00196C6
:1050C000A11DB11D3FBFBA2FA92F982F8827820F8E
:1050D000911DA11DB11DBC01CD0142E0660F771FDE
:1050E000881F991F4A95D1F70895089585ED8093FB
:1050F000BC008091BC0084FDFCCF10922206089574
:105100000895E091A3058091A205E81730F4F0E03E
:10511000EE57FA4F808190E008958FEF9FEF08954A
:105120009091A3058091A205981750F4E92FF0E023
:10513000EE57FA4F208130E09F5F9093A30502C0A5
:105140002FEF3FEFC90108950E94DE34FC01848DEA
:10515000DF01A80FB11DA35ABF4F2C91848D90E0A1
:1051600001968F739927848FA689B7892C93A0897C
:10517000B1898C9180648C93938D848D981306C033
:105180000288F389E02D80818F7D80830895CF93FD
:10519000DF93EC01888D8823C1F0EA89FB89808147
:1051A00085FD05C0A889B9898C9186FD0EC00FB612
:1051B00007FCF5CF808185FFF2CFA889B9898C9152
:1051C00085FFEDCFCE01C2DFE8CFDF91CF9108950B
:1051D000CF93DF93282F30E0F901E35BFD4D8491FD
:1051E000F901E95FFD4DD491F901EF53FE4DC491F2
:1051F000CC2389F08111FEDEEC2FF0E0EE0FFF1FD3
:10520000E955FE4DA591B491EC91ED2381E090E03C
:1052100021F480E002C080E090E0DF91CF9108951A
:105220001F93CF93DF93282F30E0F901E35BFD4D0F
:105230008491F901E95FFD4DD491F901EF53FE4DE1
:10524000C491CC23C1F0162F8111D4DEEC2FF0E0F5
:10525000EE0FFF1FE357FE4DA591B4918FB7F89461
:10526000111105C09C91ED2FE095E92302C0EC914E
:10527000ED2BEC938FBFDF91CF911F910895CF93CA
:10528000DF9390E0FC01E95FFD4D2491FC01EF53B9
:10529000FE4D8491882361F190E0880F991FFC01F5
:1052A000ED58FE4DC591D491FC01E357FE4DA591FB
:1052B000B491611109C09FB7F89488812095822329
:1052C0008883EC912E230BC0623061F49FB7F89471
:1052D0003881822F809583238883EC912E2B2C9309
:1052E0009FBF06C08FB7F894E8812E2B28838FBF0D
:1052F000DF91CF9108958F929F92AF92BF92CF92FC
:10530000DF92EF92FF926B017C01CADE4B015C01E0
:10531000C114D104E104F104E9F0C2DEDC01CB01E7
:1053200088199909AA09BB09883E9340A105B105CE
:1053300078F321E0C21AD108E108F10888EE880E5E
:1053400083E0981EA11CB11CC114D104E104F10436
:1053500021F7DECFFF90EF90DF90CF90BF90AF901E
:105360009F908F9008952FB7F8946091EC057091FD
:10537000ED058091EE059091EF052FBF08951F92E6
:105380000F920FB60F9211242F933F938F939F93F9
:10539000AF93BF938091EC059091ED05A091EE0540
:1053A000B091EF053091EB0523E0230F2D3720F46A
:1053B0000196A11DB11D05C026E8230F0296A11D6F
:1053C000B11D2093EB058093EC059093ED05A09320
:1053D000EE05B093EF058091F0059091F105A09155
:1053E000F205B091F3050196A11DB11D8093F00562
:1053F0009093F105A093F205B093F305BF91AF919F
:105400009F918F913F912F910F900FBE0F901F9002
:1054100018951F920F920FB60F9211240BB60F9290
:105420002F933F934F935F936F937F938F939F93AC
:10543000AF93BF93EF93FF93E0911602F0911702A1
:105440001995FF91EF91BF91AF919F918F917F91AE
:105450006F915F914F913F912F910F900BBE0F90E5
:105460000FBE0F901F9018951F920F920FB60F92BC
:1054700011240BB60F922F933F934F935F936F932B
:105480007F938F939F93AF93BF93EF93FF93E0919D
:105490001402F09115021995FF91EF91BF91AF9110
:1054A0009F918F917F916F915F914F913F912F913C
:1054B0000F900BBE0F900FBE0F901F9018951F926C
:1054C0000F920FB60F9211240BB60F922F933F93AA
:1054D0004F935F936F937F938F939F93AF93BF93FC
:1054E000EF93FF93E0910A02F0910B021995FF915F
:1054F000EF91BF91AF919F918F917F916F915F914C
:105500004F913F912F910F900BBE0F900FBE0F90B8
:105510001F9018951F920F920FB60F9211240BB681
:105520000F922F933F934F935F936F937F938F933C
:105530009F93AF93BF93EF93FF93E0910802F09195
:1055400009021995FF91EF91BF91AF919F918F91B2
:105550007F916F915F914F913F912F910F900BBE73
:105560000F900FBE0F901F9018951F920F920FB6BD
:105570000F9211240BB60F922F933F934F935F938B
:105580006F937F938F939F93AF93BF93EF93FF930B
:10559000E0911202F09113021995FF91EF91BF91E2
:1055A000AF919F918F917F916F915F914F913F91BB
:1055B0002F910F900BBE0F900FBE0F901F9018955C
:1055C0001F920F920FB60F9211240BB60F922F93CA
:1055D0003F934F935F936F937F938F939F93AF937B
:1055E000BF93EF93FF93E0911002F0911102199590
:1055F000FF91EF91BF91AF919F918F917F916F91AB
:105600005F914F913F912F910F900BBE0F900FBE66
:105610000F901F9018951F920F920FB60F921124A2
:105620000BB60F922F933F934F935F936F937F939C
:105630008F939F93AF93BF93EF93FF93E0910E02ED
:10564000F0910F021995FF91EF91BF91AF919F914A
:105650008F917F916F915F914F913F912F910F901B
:105660000BBE0F900FBE0F901F9018951F920F92B8
:105670000FB60F9211240BB60F922F933F934F93B7
:105680005F936F937F938F939F93AF93BF93EF93AA
:10569000FF93E0910C02F0910D021995FF91EF91AB
:1056A000BF91AF919F918F917F916F915F914F913A
:1056B0003F912F910F900BBE0F900FBE0F901F9038
:1056C00018951F920F920FB60F9211240BB60F92DE
:1056D0002F933F934F935F936F937F938F939F93FA
:1056E000AF93BF93EF93FF938091B900887F80368B
:1056F00009F49CC068F5883209F45BC090F48031ED
:1057000009F454C038F4882309F4F6C0883009F449
:105710004DC0F5C0883109F44CC0803209F45DC039
:10572000EEC0803409F468C048F4803309F455C0F1
:10573000883309F0E4C080932006D8C0803509F48E
:105740004FC0883509F45DC0883409F0D8C0D6C090
:10575000883909F4C7C0A8F4883709F467C038F459
:10576000883609F463C0803709F460C0C8C088383F
:1057700009F4B8C0803909F45FC0803809F0BFC0AF
:105780005BC0803B09F486C038F4803A09F466C0F7
:10579000883A09F47FC0B3C0803C09F4A7C0883CB4
:1057A00009F4A4C0883B09F48AC0A9C08091FD0512
:1057B00010C090911F0680911E06981770F5E09119
:1057C0001F0681E08E0F80931F06F0E0E250FA4F33
:1057D00080818093BB0085EC86C0809320068EC0BC
:1057E000E0911F0681E08E0F80931F068091BB0021
:1057F000F0E0E250FA4F808390911F0680911E06E0
:105800006EC0E0911F0681E08E0F80931F0680918D
:10581000BB00F0E0E250FA4F8083809121068111B5
:105820006DC081E08093FC0584EA61C083E08093D1
:1058300022061092EA05CFCF8091EA05803208F067
:1058400051C0E091EA0581E08E0F8093EA058091D6
:10585000BB00F0E0E653FA4F8083BDCF85EC809328
:10586000BC00109222068091EA05803230F4E0916B
:10587000EA05F0E0E653FA4F10826091EA0570E025
:10588000E091C805F091C9058AEC95E01995109250
:10589000EA0535C084E0809322061092C705109275
:1058A000C605E091C405F091C50519958091C6051E
:1058B000811105C081E08093C6051092A405E09196
:1058C000C70581E08E0F8093C705F0E0EC55FA4FD5
:1058D00080818093BB009091C7058091C605981781
:1058E00008F479CF85E88093BC0009C085EC8093EB
:1058F000BC001092220603C010922006F7DBFF9135
:10590000EF91BF91AF919F918F917F916F915F9137
:105910004F913F912F910F900BBE0F900FBE0F90A4
:105920001F9018954091C605262F30E0240F311D99
:1059300021323105DCF4209122062430C9F4FC0127
:1059400080E090E0861758F43091C6052191DC0183
:10595000AC55BA4FA30FB11D2C930196F3CF809194
:10596000C605680F6093C60580E0089581E008953C
:1059700082E00895CF92DF92EF92FF920F931F93F0
:10598000CF93DF936C017A018B01C0E0D0E0CE159C
:10599000DF0589F0D8016D918D01D601ED91FC9163
:1059A0000190F081E02DC6011995892B11F47E013B
:1059B00002C02196ECCFC701DF91CF911F910F91CB
:1059C000FF90EF90DF90CF900895BF92CF92DF923B
:1059D000EF92FF920F931F93CF93DF93EC01142F5D
:1059E000F62EF40E6C018CE1C80ED11CEE24EA9464
:1059F000BF2CB11A00E06A817B810C8FBD8E1F8E97
:105A0000EE8E96014BE3CE0116D8085F003899F769
:105A1000115071F7DF91CF911F910F91FF90EF908F
:105A2000DF90CF90BF9008956115710579F0FB016B
:105A300001900020E9F73197AF01461B570BDC01BD
:105A4000ED91FC910280F381E02D199480E090E0CB
:105A50000895E7E4F6E0A089B18982E08C93A485FB
:105A6000B5851C92A685B78580E18C93108EA4899C
:105A7000B58986E08C93A289B3898C9180618C93DF
:105A8000A289B3898C9188608C93A289B3898C9107
:105A900080688C930288F389E02D80818F7D8083DC
:105AA0000895382F2091460690914506213208F03E
:105AB00049C0809122068111FCCF42E0409322062A
:105AC000309321063FEF3093200610921F0620935B
:105AD0001E06A5E2B6E04EEF55E0FA013E2F341B5C
