:100000000C9458000C9480000C9480000C94800098
:100010000C9480000C9480000C9480000C94800060
:100020000C9480000C9480000C9480000C94800050
:100030000C9480000C9480000C9480000C94800040
:100040000C94DA020C9480000C94A8020C948202A6
:100050000C9480000C9480000C9480000C94800020
:100060000C9424030C94800000000000250028005C
:100070002B00040404040404040402020202020229
:10008000030303030303010204081020408001025C
:1000900004081020010204081020000000080002DB
:1000A00001000003040700000000000000005204EB
:1000B00011241FBECFEFD8E0DEBFCDBF22E0ACE3FE
:1000C000B1E001C01D92AF3AB207E1F711E0A0E044
:1000D000B1E0EEEBFBE002C005900D92AC33B1074E
:1000E000D9F710E0C8E5D0E004C02197FE010E94D6
:1000F000D205C735D107C9F70E94CA040C94DD05A3
:100100000C94000090E0FC01E656FF4F2491FC01A6
:10011000EA57FF4F3491FC01EE58FF4FE491EE2374
:10012000B1F1222339F1233091F038F42130A9F0D4
:10013000223001F584B58F7D12C0273091F0283030
:10014000A1F02430B9F4809180008F7D03C08091AC
:1001500080008F77809380000DC084B58F7784BD39
:1001600009C08091B0008F7703C08091B0008F7D6F
:100170008093B000F0E0EE0FFF1FE859FF4FA5910C
:10018000B4918FB7F894EC913E2B3C938FBF0895B8
:10019000CF92DF92EF92FF920F931F93CF93DF9353
:1001A0006C017A018B01C0E0D0E0CE15DF0589F04B
:1001B000D8016D918D01D601ED91FC910190F081F6
:1001C000E02DC6010995892B11F47E0102C021960C
:1001D000ECCFC701DF91CF911F910F91FF90EF906E
:1001E000DF90CF900895FC01538D448D252F30E092
:1001F000842F90E0821B930B541710F0CF96089534
:1002000001970895FC01918D828D981761F0828D80
:10021000DF01A80FB11D5D968C91928D9F5F9F733A
:10022000928F90E008958FEF9FEF0895FC01918DDC
:10023000828D981731F0828DE80FF11D858D90E049
:1002400008958FEF9FEF0895FC01918D228D892FE6
:1002500090E0805C9F4F821B91098F7399270895CE
:1002600080EB91E00E94240121E0892B09F420E039
:10027000822F0895FC01848DDF01A80FB11DA35AC0
:10028000BF4F2C91848D90E001968F739927848FB6
:10029000A689B7892C93A089B1898C9180648C93AD
:1002A000938D848D981306C00288F389E02D808198
:1002B0008F7D80830895EF92FF920F931F93CF93CA
:1002C000DF93EC0181E0888F9B8D8C8D981305C0A6
:1002D000E889F989808185FD24C0F62E0B8D10E018
:1002E0000F5F1F4F0F731127E02E8C8DE8120CC08B
:1002F0000FB607FCFACFE889F989808185FFF5CF31
:10030000CE010E943A01F1CF8B8DFE01E80FF11D65
:10031000E35AFF4FF0820B8FEA89FB89808180626C
:1003200007C0EE89FF896083E889F989808180644C
:10033000808381E090E0DF91CF911F910F91FF903A
:10034000EF900895CF93DF93EC01888D8823C9F057
:10035000EA89FB89808185FD05C0A889B9898C91CE
:1003600086FD0FC00FB607FCF5CF808185FFF2CF69
:10037000A889B9898C9185FFEDCFCE010E943A0101
:10038000E7CFDF91CF91089580E090E0892B29F0AD
:100390000E94300181110C94000008953FB7F89439
:1003A0008091AC019091AD01A091AE01B091AF01EF
:1003B00026B5A89B05C02F3F19F00196A11DB11DC0
:1003C0003FBFBA2FA92F982F8827820F911DA11DFB
:1003D000B11DBC01CD0142E0660F771F881F991F38
:1003E0004A95D1F708952FB7F8946091A8017091BC
:1003F000A9018091AA019091AB012FBF089585EDCD
:100400008093BC008091BC0084FDFCCF10924F0211
:10041000089540915E01262F30E0240F311D2132D6
:100420003105DCF420914F022430C9F4FC0180E056
:1004300090E0861758F430915E012191DC01A45CB4
:10044000BE4FA30FB11D2C930196F3CF80915E0197
:10045000680F60935E0180E0089581E0089582E076
:100460000895089581E090E0309153022091520266
:10047000321710F480E090E09195819591090895EC
:100480008091530290915202891730F48F5F8093CC
:10049000530280E090E008958FEF9FEF08958091E0
:1004A000520290E020915302821B91090895CF934C
:1004B000DF9300D0CDB7DEB7CB01642F49835A83D9
:1004C0000E9409024981842F5A81952F0F900F9025
:1004D000DF91CF910895CF93DF931F92CDB7DEB711
:1004E000698361E0CE0101960E94090281E090E0FB
:1004F0000F90DF91CF910895089580E090E00895E6
:100500000E94D8051F920F920FB60F9211242F93BD
:100510003F934F935F936F937F938F939F93AF938B
:10052000BF93EF93FF9380EB91E00E943A01FF911C
:10053000EF91BF91AF919F918F917F916F915F915B
:100540004F913F912F910F900FBE0F901F901895D4
:100550001F920F920FB60F9211242F938F939F9398
:10056000EF93FF93E091C001F091C1018081E09190
:10057000C601F091C70182FD12C090818091C9012E
:100580008F5F8F732091CA01821751F0E091C901EA
:10059000F0E0E055FE4F958F8093C90101C0808146
:1005A000FF91EF919F918F912F910F900FBE0F9020
:1005B0001F9018951F920F920FB60F9211242F9330
:1005C0003F938F939F93AF93BF938091A801909196
:1005D000A901A091AA01B091AB013091A70123E03C
:1005E000230F2D3720F40196A11DB11D05C026E86B
:1005F000230F0296A11DB11D2093A7018093A8018E
:100600009093A901A093AA01B093AB018091AC0192
:100610009091AD01A091AE01B091AF010196A11DE5
:10062000B11D8093AC019093AD01A093AE01B09346
:10063000AF01BF91AF919F918F913F912F910F90FB
:100640000FBE0F901F9018951F920F920FB60F922A
:1006500011242F933F934F935F936F937F938F93C7
:100660009F93AF93BF93EF93FF938091B900887FDF
:10067000803609F49CC068F5883209F45BC090F4B8
:10068000803109F454C038F4882309F4F6C0883066
:1006900009F44DC0F6C0883109F44CC0803209F429
:1006A0005DC0EFC0803409F468C048F4803309F4B9
:1006B00055C0883309F0E5C080938301D8C08035E8
:1006C00009F44FC0883509F45DC0883409F0D9C0F9
:1006D000D6C0883909F4C7C0A8F4883709F467C0C0
:1006E00038F4883609F463C0803709F460C0C9C0A3
:1006F000883809F4B8C0803909F45FC0803809F03F
:10070000C0C05BC0803B09F486C038F4803A09F46D
:1007100066C0883A09F47FC0B4C0803C09F4A7C021
:10072000883C09F4A4C0883B09F48AC0AAC080911F
:10073000A60110C09091A5018091A401981770F5B1
:10074000E091A50181E08E0F8093A501F0E0EC57C8
:10075000FE4F80818093BB0085EC86C0809383012F
:100760008EC0E091A50181E08E0F8093A50180915C
:10077000BB00F0E0EC57FE4F80839091A501809183
:10078000A4016EC0E091A50181E08E0F8093A501C8
:100790008091BB00F0E0EC57FE4F808380914E02C9
:1007A00081116DC081E080934D0284EA61C083E0D5
:1007B00080934F0210928201CFCF809182018032CC
:1007C00008F051C0E091820181E08E0F8093820198
:1007D0008091BB00F0E0EE59FE4F8083BDCF85ECE9
:1007E0008093BC0010924F0280918201803230F4DD
:1007F000E0918201F0E0EE59FE4F1082609182019B
:1008000070E0E0916001F091610182E691E009956C
:100810001092820136C084E080934F0210925F01F3
:1008200010925E01E0915C01F0915D01099580916B
:100830005E01811105C081E080935E0110923C0150
:10084000E0915F0181E08E0F80935F01F0E0E45C56
:10085000FE4F80818093BB0090915F0180915E018B
:10086000981708F479CF85E88093BC000AC085EC1E
:100870008093BC0010924F0204C0109283010E942A
:10088000FF01FF91EF91BF91AF919F918F917F9168
:100890006F915F914F913F912F910F900FBE0F90ED
:1008A0001F901895E0EBF1E01382128288EE93E03E
:1008B000A0E0B0E084839583A683B78324E031E091
:1008C0003183208325EC30E03587248724EC30E029
:1008D0003787268720EC30E0318B208B21EC30E00D
:1008E000338B228B22EC30E0358B248B26EC30E0EE
:1008F000378B268B118E128E138E148EE4E5F2E068
:100900001382128284839583A683B78386E191E064
:1009100091838083E0E6F2E01382128211821082DA
:10092000168215821482178210925302109252027C
:10093000109251021092500210924F0281E0809367
:100940004E0210924D0282E10E94820083E10E94D9
:100950008200E9EBF0E080818E7F808380818D7F53
:10096000808388E48093B80085E48093BC00E9E646
:10097000F2E016821782108611861286138614867C
:10098000158616861786108A118A128A138A148A87
:10099000158A0895789484B5826084BD84B5816099
:1009A00084BD85B5826085BD85B5816085BD80913A
:1009B0006E00816080936E001092810080918100B2
:1009C00082608093810080918100816080938100AA
:1009D000809180008160809380008091B10084606C
:1009E0008093B1008091B00081608093B0008091CD
:1009F0007A00846080937A0080917A00826080938C
:100A00007A0080917A00816080937A0080917A00E8
:100A1000806880937A001092C1001092AB0210920D
:100A2000AC021092AD021092AE0210926B021092C4
:100A30006C0210926D0210926E020E94F3016B0123
:100A40007C014B015C0128EB820E2BE0921EA11C65
:100A5000B11C0E94F3016C157D058E059F0528F0E1
:100A600086169706A806B906A0F70E94CE014B018C
:100A70005C0188EEC82E83E0D82EE12CF12C0E9478
:100A8000CE01DC01CB0188199909AA09BB09883E6E
:100A90009340A105B10558F081E0C81AD108E108DA
:100AA000F10828EE820E23E0921EA11CB11CC11495
:100AB000D104E104F10419F7E091C001F091C10102
:100AC00082E08083E091BC01F091BD011082E09151
:100AD000BE01F091BF0180E180831092C801E091D6
:100AE000C401F091C50186E08083E091C201F091DC
:100AF000C301808180618083E091C201F091C301D4
:100B0000808188608083E091C201F091C30180817F
:100B100080688083E091C201F091C30180818F7D64
:100B200080830E94F30160936B0270936C02809348
:100B30006D0290936E0240E150E064E271E080EB60
:100B400091E00E94C8000E94F3016B017C014B01FF
:100B50005C018AE0880E911CA11CB11C0E94F3016B
:100B60006C157D058E059F0528F086169706A8064C
:100B7000B906A0F781E080937F020E94F3016093A1
:100B80006B0270936C0280936D0290936E0246E04C
:100B900050E065E371E080EB91E00E94C8000E94A4
:100BA000C401FDCFEE0FFF1F0590F491E02D0994D5
:0E0BB00081E090E0F8940C94DD05F894FFCFFE
:100BBE00000000005B01C800F300A2012401020145
:100BCE001601000000006B0257027D0231024F0237
:100BDE0040023202564D4450565F317C315F564DC5
:0C0BEE004450560A00564D4450525F001F
:00000001FF
