:10000000FAC0000029C1000027C1000025C100007E
:1000100023C1000021C100001FC100001DC100005C
:100020001BC1000019C1000017C1000015C100006C
:1000300013C1000011C100000FC100000DC100007C
:100040000BC1000009C1000007C1000005C100008C
:1000500003C1000001C10000FFC0000058C600003D
:10006000FBC000001EC60000F3C50000F5C0000084
:10007000F3C00000F1C00000EFC00000EDC00000C0
:10008000EBC00000E9C00000E7C00000E5C00000D0
:10009000E3C00000E1C00000DFC0000082C6000035
:1000A000DBC00000D9C00000D7C00000D5C00000F0
:1000B000D3C00000D1C00000CFC00000CDC0000000
:1000C000CBC00000C9C00000C7C00000C5C0000010
:1000D000C3C00000C1C00000BFC00000BDC0000020
:1000E000BBC000005C0A5F0A4E0A520A560A960A12
:1000F000630A670A6D0A710A750A7B0A7F0A830A16
:10010000960A890A8D0A910A00002200250028001B
:100110002B002E003100340002010000050108010F
:100120000B0105050505070508080808020202027B
:100130000A0A080804040404010101010101010183
:100140000303030303030303040707070C0C0C0C4E
:100150000C0C0C0C02020202060606060606060637
:100160000B0B0B0B0B0B0B0B0102102020080810C4
:100170002040102040800201020108040201010217
:1001800004081020408080402010080402018004F0
:10019000020180402010080402010804020101024B
:1001A0000408102040800102040810204080000054
:1001B0000A0B02090C0D0E080703040100000000E1
:1001C000000000000000000000000000000000002F
:1001D00000000000000000000000121110000000EC
:1001E000000000000000000000000000000000000F
:1001F00000000000100D11241FBECFEFD1E2DEBFC2
:10020000CDBF00E00CBF25E0A6E8B3E001C01D9221
:10021000A334B207E1F713E0A0E0B2E0ECEFF0E2C4
:1002200000E00BBF02C007900D92A638B107D9F7C6
:1002300010E0CBEFD0E000E006C021970109802F4D
:10024000FE010E94A70DCA3FD10780E00807A9F769
:100250000E94A50A0C947C10D3CEFC01538D448DD2
:10026000252F30E0842F90E0821B930B541710F061
:10027000CF96089501970895FC01918D828D98176E
:1002800061F0828DDF01A80FB11D5D968C91928D7A
:100290009F5F9F73928F90E008958FEF9FEF089577
:1002A000FC01918D828D981731F0828DE80FF11D40
:1002B000858D90E008958FEF9FEF0895FC01918D5B
:1002C000228D892F90E0805C9F4F821B91098F7354
:1002D000992708958BE494E0F1DF21E0892B09F45C
:1002E00020E0822F0895FC01848DDF01A80FB11D4D
:1002F000A35ABF4F2C91848D90E001968F7399275C
:10030000848FA689B7892C93A089B1898C91806448
:100310008C93938D848D981306C00288F389E02D09
:1003200080818F7D80830895EF92FF920F931F93BA
:10033000CF93DF93EC0181E0888F9B8D8C8D981398
:1003400005C0E889F989808185FD23C0F62E0B8DD3
:1003500010E00F5F1F4F0F731127E02E8C8DE812F6
:100360000BC00FB607FCFACFE889F989808185FFB9
:10037000F5CFCE01B8DFF2CF8B8DFE01E80FF11D76
:10038000E35AFF4FF0820B8FEA89FB8980818062FC
:1003900007C0EE89FF896083E889F98980818064DC
:1003A000808381E090E0DF91CF911F910F91FF90CA
:1003B000EF900895CF93DF93EC01888D8823C1F0EF
:1003C000EA89FB89808185FD05C0A889B9898C915E
:1003D00086FD0EC00FB607FCF5CF808185FFF2CFFA
:1003E000A889B9898C9185FFEDCFCE017CDFE8CF5C
:1003F000DF91CF91089580E090E0892B19F06ADFBA
:10040000811125C080E090E0892B41F080E090E0F0
:10041000892B21F00E94000081111CC080E090E037
:10042000892B41F080E090E0892B21F00E940000B0
:10043000811113C080E090E0892BA1F080E090E072
:10044000892B81F00E94000081110AC008950E944A
:100450000000D8CF0E940000E1CF0E940000EACF48
:100460000C94000008953FB7F8948091D2039091C6
:10047000D303A091D403B091D50326B5A89B05C0A2
:100480002F3F19F00196A11DB11D3FBFBA2FA92F13
:10049000982F8827820F911DA11DB11DBC01CD0190
:1004A00042E0660F771F881F991F4A95D1F708957C
:1004B0008F929F92AF92BF92CF92DF92EF92FF9274
:1004C0006B017C01D0DF4B015C01C114D104E1045C
:1004D000F104E9F0C8DFDC01CB0188199909AA0908
:1004E000BB09883E9340A105B10578F321E0C21A0B
:1004F000D108E108F10888EE880E83E0981EA11C5F
:10050000B11CC114D104E104F10421F7DECFFF9046
:10051000EF90DF90CF90BF90AF909F908F90089515
:100520002FB7F8946091CE037091CF038091D003E0
:100530009091D1032FBF089585ED8093BC008091E9
:10054000BC0084FDFCCF1092260408954091A803BE
:10055000262F30E0240F311D21323105DCF42091AB
:1005600026042430C9F4FC0180E090E0861758F49A
:100570003091A8032191DC01AA57BC4FA30FB11DF4
:100580002C930196F3CF8091A803680F6093A80382
:1005900080E0089581E0089582E008950895E09153
:1005A000D7038091D603E81730F4F0E0E852FC4F0F
:1005B000808190E008958FEF9FEF08959091D70389
:1005C0008091D603981750F4E92FF0E0E852FC4FE1
:1005D000208130E09F5F9093D70302C02FEF3FEF61
:1005E000C90108958091D60390E02091D703821B22
:1005F00091090895CF92DF92EF92FF920F931F938C
:10060000CF93DF937C01262F972F8A0180912704B7
:10061000882391F0C62FD72F6E01C40ED51ECC159E
:10062000DD0569F06991D701ED91FC910190F081B0
:10063000E02DC7011995F3CF642F822F87DFC80102
:10064000DF91CF911F910F91FF90EF90DF90CF90AE
:100650000895CF93DF931F92CDB7DEB769832091C2
:1006600027042223D1F020914A04203240F021E0D7
:1006700030E0FC013383228380E090E014C080915D
:100680002804E82FF0E0E75DFB4F998190838F5FAE
:100690008093280480934A0404C061E0CE0101964F
:1006A00055DF81E090E00F90DF91CF91089508959C
:1006B00080E090E008959A016230710521F5CA0149
:1006C00083709927892B39F4CA0164E670E00E948F
:1006D000940D892B61F5C90164E670E00E94940DC8
:1006E000892B39F4C90160E971E00E94940D892BCE
:1006F000F1F0C90160E971E00E94940D892BB9F015
:100700008CE190E00895CB018D7F019799F06530E1
:10071000710581F0CB010797029760F06A3071058F
:1007200049F06C30710531F08EE190E008958DE173
:1007300090E008958FE190E008954F925F926F925C
:100740007F928F929F92AF92BF92CF92DF92EF9261
:10075000FF920F931F93CF93DF93EC018B018CE0FB
:10076000482E512C9FE1892E912CAA24A394B12CC0
:10077000101611065CF5015011096E807F80CA8445
:10078000DB84E884F984A601B701CE0194DF681602
:10079000790634F48FEF681A780A7F826E823AC045
:1007A0008CE0E816F10444F48FEFE81AF80AF986B1
:1007B000E886BF82AE822EC0BF82AE82B986A8868E
:1007C0008FEFC81AD80ADB86CA8624C00115110526
:1007D00029F10F5F1F4F8E819F818230910514F0A8
:1007E00001970DC0688579854A855B856230710502
:1007F0004CF06150710979876887CE015CDF9F8377
:100800008E8308C0598648869F828E824150510946
:100810005B874A870115110509F0AACFDF91CF91B7
:100820001F910F91FF90EF90DF90CF90BF90AF900E
:100830009F908F907F906F905F904F900895EF9270
:10084000FF920F931F93CF93DF93EC018B0187E10E
:10085000E82EF12C1016110674F40150110988814C
:1008600099818731910514F4019610C0198218827C
:1008700061E070E012C001151105A1F00F5F1F4F7C
:10088000888199811816190624F401979983888321
:1008900006C0F982E8826FEF7FEFCE014EDF0115CF
:1008A0001105C1F6DF91CF911F910F91FF90EF904D
:1008B0000895EF92FF920F931F93CF93DF93EC0174
:1008C0008B018BE3E82EF12C1016110674F4015005
:1008D00011098A819B818B33910514F4019610C014
:1008E0001B821A8261E070E012C001151105A1F0AF
:1008F0000F5F1F4F8A819B811816190624F40197F8
:100900009B838A8306C0FB82EA826FEF7FEFCE0172
:1009100096DF01151105C1F6DF91CF911F910F915F
:10092000FF90EF900895EF92FF920F931F93CF9354
:10093000DF93EC018B018BE3E82EF12C10161106EE
:1009400074F4015011098C819D818B33910514F44D
:10095000019610C01D821C8261E070E012C001157A
:100960001105A1F00F5F1F4F8C819D81181619068C
:1009700024F401979D838C8306C0FD82EC826FEF87
:100980007FEFCE0196DF01151105C1F6DF91CF9102
:100990001F910F91FF90EF9008950E94AF0D0F935C
:1009A0001F93CF93DF93EC0167E080E0DED4E0910A
:1009B000F803EF778E2F82958F709AEF899FE00D65
:1009C0001124EC8BA091F9038A2F82958F70899F57
:1009D000A00D1124AB8B8091FA0386FF0CC0282F49
:1009E0002F71322F32953F70399F200D11242A8BA1
:1009F00080728E8B09C08F73282F22952F70299FAC
:100A0000800D11248A8B1E8A8091FB03282F22954A
:100A10002F709AEF299F800D1124282F8D8B6091C4
:100A2000FC03862F82958F70899F600D1124698B3E
:100A30004091FD03842F82958F70899F400D112472
:100A4000488B8091FE03382F32953F70399F800D7F
:100A5000112490E08053984F9F878E870A8910E079
:100A600019830883B0E0BB83AA83F0E0FD83EC83A5
:100A700070E07F836E8350E0598748879B878A8721
:100A8000822F90E09D878C87DF91CF911F910F91EE
:100A90000895CF92DF92EF92FF920F931F93CF931F
:100AA000DF93CDB7DEB7AB970FB6F894DEBF0FBEBE
:100AB000CDBFDC011A96DC901A971B96CC901B9741
:100AC0001896ED91FC911997EE0FFF1FE050FE4F25
:100AD000F080E18016962D913C9117972A303105D0
:100AE0001CF084E692E002C086E592E03F932F93EB
:100AF0009F938F938E01075D1F4F1F930F930E944B
:100B0000B30DCF92DF92EF92FF921F930F938AE57E
:100B100092E09F938F93085211091F930F930E94A5
:100B2000B30D0FB6F894DEBF0FBECDBFC801AB96B4
:100B30000FB6F894DEBF0FBECDBFDF91CF911F91EE
:100B40000F91FF90EF90DF90CF900895CF92DF92BA
:100B5000EF92FF920F931F93CF93DF93CDB7DEB742
:100B6000AA970FB6F894DEBF0FBECDBF8C01FC0173
:100B7000248135812A3031051CF084E692E002C0E0
:100B800086E592E03F932F939F938F936E01F8E257
:100B9000CF0ED11CDF92CF92E6D7F80122813381AC
:100BA0000F900F900F900F900F900F902A303105FB
:100BB0001CF084E692E002C086E592E03F932F931A
:100BC0009F938F937E01F5E2EF0EF11CFF92EF925F
:100BD000CAD7F801208131810F900F900F900F90AC
:100BE0000F900F902A3031051CF084E692E002C08D
:100BF00086E592E03F932F939F938F938E010E5D36
:100C00001F4F1F930F93AFD7DF92CF92FF92EF92B8
:100C10001F930F9387E692E09F938F9301521109E0
:100C20001F930F93A0D70FB6F894DEBF0FBECDBFB2
:100C3000C801AA960FB6F894DEBF0FBECDBFDF91F4
:100C4000CF911F910F91FF90EF90DF90CF9008957B
:100C50001F920F920FB60F9211240BB60F922F9383
:100C60003F934F935F936F937F938F939F93AF9334
:100C7000BF93EF93FF938BE494E035DBFF91EF910B
:100C8000BF91AF919F918F917F916F915F914F91A4
:100C90003F912F910F900BBE0F900FBE0F901F90A2
:100CA00018951F920F920FB60F9211240BB60F9248
:100CB0002F938F939F93EF93FF93E0915B04F091B9
:100CC0005C048081E0916104F091620482FD12C0B5
:100CD0009081809164048F5F8F73209165048217E7
:100CE00051F0E0916404F0E0E55BFB4F958F809359
:100CF000640401C08081FF91EF919F918F912F91AA
:100D00000F900BBE0F900FBE0F901F9018951F9263
:100D10000F920FB60F9211242F933F938F939F93AF
:100D2000AF93BF938091CE039091CF03A091D00356
:100D3000B091D1033091CD0323E0230F2D3720F460
:100D40000196A11DB11D05C026E8230F0296A11D25
:100D5000B11D2093CD038093CE039093CF03A09336
:100D6000D003B093D1038091D2039091D303A0918B
:100D7000D403B091D5030196A11DB11D8093D20378
:100D80009093D303A093D403B093D503BF91AF91B5
:100D90009F918F913F912F910F900FBE0F901F90B9
:100DA00018951F920F920FB60F9211240BB60F9247
:100DB0002F933F934F935F936F937F938F939F9363
:100DC000AF93BF93EF93FF938091B900887F8036F4
:100DD00009F49CC068F5883209F45BC090F4803156
:100DE00009F454C038F4882309F4F6C0883009F4B3
:100DF0004DC0F5C0883109F44CC0803209F45DC0A3
:100E0000EEC0803409F468C048F4803309F455C05A
:100E1000883309F0E4C080932404D8C0803509F4F5
:100E20004FC0883509F45DC0883409F0D8C0D6C0F9
:100E3000883909F4C7C0A8F4883709F467C038F4C2
:100E4000883609F463C0803709F460C0C8C08838A8
:100E500009F4B8C0803909F45FC0803809F0BFC018
:100E60005BC0803B09F486C038F4803A09F466C060
:100E7000883A09F47FC0B3C0803C09F4A7C0883C1D
:100E800009F4A4C0883B09F48AC0A9C08091010478
:100E900010C09091230480912204981770F5E0917E
:100EA000230481E08E0F80932304F0E0EE5FFB4F7C
:100EB00080818093BB0085EC86C0809324048EC023
:100EC000E091230481E08E0F809323048091BB0086
:100ED000F0E0EE5FFB4F8083909123048091220429
:100EE0006EC0E091230481E08E0F809323048091F3
:100EF000BB00F0E0EE5FFB4F808380912504811101
:100F00006DC081E08093000484EA61C083E0809337
:100F100026041092CC03CFCF8091CC03803208F00E
:100F200051C0E091CC0381E08E0F8093CC0380917F
:100F3000BB00F0E0E455FC4F8083BDCF85EC80938F
:100F4000BC00109226048091CC03803230F4E091F2
:100F5000CC03F0E0E455FC4F10826091CC0370E0CC
:100F6000E091AA03F091AB038CEA93E019951092FB
:100F7000CC0335C084E0809326041092A90310921C
:100F8000A803E091A603F091A70319958091A80307
:100F9000811105C081E08093A80310928603E0913F
:100FA000A90381E08E0F8093A903F0E0EA57FC4F7C
:100FB00080818093BB009091A9038091A80398172A
:100FC00008F479CF85E88093BC0009C085EC809354
:100FD000BC001092260403C010922404ADDAFF91E5
:100FE000EF91BF91AF919F918F917F916F915F91A1
:100FF0004F913F912F910F900BBE0F900FBE0F900E
:101000001F901895FC0113821282118210821682A1
:101010001582148217821092D7031092D603109271
:10102000280410924A041092260481E0809325043B
:101030001092000484E113D285E111D2E9EBF0E0D3
:1010400080818E7F808380818D7F808388E4809300
:10105000B80085E48093BC000895CF93DF93EC0142
:101060000E96D0DF68E080E080D18091F80387FDA4
:1010700013C01D821C821B821A821982188281E091
:1010800090E09D878C879B878A87998788879F8335
:101090008E83DF91CF91089561E080E066D18091E9
:1010A000F80380688093F80381E08093270488E642
:1010B000809349041092280410924A0460E088EE5C
:1010C00094E0C7DA6091F80388EE94E0C2DA81E038
:1010D000EFD0CFCFCF92DF92EF92FF920F931F937B
:1010E000CF93DF936C017A018B01C0E0D0E0CE1585
:1010F000DF0589F0D8016D918D01D601ED91FC914C
:101100000190F081E02DC6011995892B11F47E0123
:1011100002C02196ECCFC701DF91CF911F910F91B3
:10112000FF90EF90DF90CF900895009761F0FC0161
:1011300001900020E9F73197AF01481B590BBC0122
:101140008BE494E0C7CF80E090E00895EBE4F4E016
:10115000A089B18982E08C93A485B5851C92A6856F
:10116000B78580E18C93108EA489B58986E08C9335
:10117000A289B3898C9180618C93A289B3898C9167
:1011800088608C93A289B3898C9180688C93028843
:10119000F389E02D80818F7D80830895CF93DF9345
:1011A000C4DFEC0182E893E0C0DF8C0F9D1FDF916C
:1011B000CF910895BACF8F929F92AF92BF92CF9264
:1011C000DF92EF92FF920F931F93CF93DF93CDB7F0
:1011D000DEB7A1970FB6F894DEBF0FBECDBF6C018E
:1011E000990FEE08FF08F7FE2FC0E0914B04F09135
:1011F0004C040190F081E02D6DE28BE494E01995B0
:101200008C0122273327A9012C193D094E095F09BA
:1012100019A2CE0181967C019AE0892E912CA12CF5
:10122000B12CCA01B901A501940148D4605DF70150
:1012300062937F01211531054105510591F7CF01D9
:1012400074DF080F191F1CC0A701960119A28E0197
:101250000F5D1F4F8AE0C82ED12CE12CF12CCA0162
:10126000B901A70196012AD4605DF80162938F014C
:10127000211531054105510591F7CF0156DF8C014C
:1012800082E893E052DF800F911FA1960FB6F89489
:10129000DEBF0FBECDBFDF91CF911F910F91FF90A9
:1012A000EF90DF90CF90BF90AF909F908F90089578
:1012B000382F20914A0490914904213208F049C006
:1012C000809126048111FCCF42E0409326043093A4
:1012D00025043FEF3093240410922304209322042A
:1012E000A9E2B4E042E054E0FA013E2F341B321789
:1012F00018F43D913193F9CF10920104209101042B
:10130000990F922B9093010490910004913061F415
:1013100010920004909101049093BB009091BC0046
:1013200093FDF8CF95EC01C095EE9093BC009091A1
:1013300026049230E1F3909124049F3F79F080914C
:101340002404803241F080912404803331F084E021
:1013500005C081E003C082E001C083E01092280450
:1013600010924A04109227040895EF92FF920F936F
:101370001F93CF93C62F91E09093270498E6909304
:1013800049041092280410924A04682F88EE94E0D1
:1013900060D981E08DDF81115BC0809126048111CD
:1013A000FCCF8C2FC13208F080E291E090932604AC
:1013B000909325042FEF2093240410922304280FE8
:1013C000209322049093010490910104906D9093D6
:1013D000010490910004913061F410920004909106
:1013E00001049093BB009091BC0093FDF8CF95EC65
:1013F00001C095EE9093BC00909126049130E1F3EA
:1014000090912304981710F480912304A2E0B4E093
:1014100028ED33E0F9019E2F921B981718F49D9147
:101420009193F9CF1092D7038093D60388EFE82EDB
:1014300083E0F82E8701802F8E198C1738F488EE00
:1014400094E0BCD8F80181938F01F5CF8C2F01C0B7
:1014500080E0CF911F910F91FF90EF90089590E061
:10146000FC01E255FE4F4491FC01E859FE4F2491E6
:10147000FC01EE5DFE4F9491992309F465C044236D
:1014800009F454C050E0FA013197E231F10508F057
:101490004DC08827EE58FF4F8F4F59C38091800071
:1014A0008F7707C0809180008F7D03C0809180007E
:1014B000877F809380003AC084B58F7702C084B55F
:1014C0008F7D84BD33C08091B0008F7703C0809141
:1014D000B0008F7D8093B00029C0809190008F77FD
:1014E00007C0809190008F7D03C080919000877F1E
:1014F000809390001BC08091A0008F7707C08091DF
:10150000A0008F7D03C08091A000877F8093A00002
:101510000DC0809120018F7707C0809120018F7DC1
:1015200003C080912001877F80932001E92FF0E0A4
:10153000EE0FFF1FE85FFE4FA591B4918FB7F894AF
:10154000EC912E2B2C938FBF0895CF93DF93CDB7C3
:10155000DEB7C554D1090FB6F894DEBF0FBECDBFBC
:10156000789484B5826084BD84B5816084BD85B57E
:10157000826085BD85B5816085BD80916E0081608A
:1015800080936E0010928100809181008260809330
:101590008100809181008160809381008091800032
:1015A0008160809380008091B10084608093B1005D
:1015B0008091B00081608093B00080919100826042
:1015C000809391008091910081608093910080913F
:1015D00090008160809390008091A1008260809350
:1015E000A1008091A10081608093A1008091A00062
:1015F00081608093A000809121018260809321010D
:10160000809121018160809321018091200181607E
:101610008093200180917A00846080937A00809189
:101620007A00826080937A0080917A008160809352
:101630007A0080917A00806880937A001092C100CD
:101640001092360510923705109238051092390520
:101650001092F6041092F7041092F8041092F90414
:101660000E9490026B017C014B015C0188EB880EAB
:101670008BE0981EA11CB11C0E9490026C157D0588
:101680008E059F0528F086169706A806B906A0F7CE
:1016900068EE73E080E090E00E94580257DD0E94FF
:1016A00090026093F6047093F7048093F80490938B
:1016B000F90486E792E07EDD0E9490026B017C01D6
:1016C0004B015C018AE0880E911CA11CB11C0E9498
:1016D00090026C157D058E059F0528F086169706ED
:1016E000A806B906A0F781E080930A050E9490023F
:1016F0006093F6047093F7048093F8049093F904D0
:1017000087E892E057DD22DD8EE892E047DD20E9B0
:10171000822E9924939434E6232E312C8EE992E084
:101720003DDDCE018F9699DCCE018F9638D982EBC4
:1017300092E040DDCE018F9609DA3CDDCE018F9636
:10174000A8D92CDD65E070E0CE018F96ECD887EB50
:1017500092E030DDCE018F96F9D92CDDCE018F9647
:1017600098D91CDD6DE270E0CE018F96DCD88FEB4E
:1017700092E020DDCE018F96E9D91CDDCE018F9657
:1017800088D90CDD68ED73E5CE018F96CCD888EC56
:1017900092E010DDCE018F96D9D90CDDCE018F9667
:1017A00078D9FCDC65E070E0CE018F9682D884EDBC
:1017B00092E000DDCE018F96C9D9FCDCCE018F9678
:1017C00068D9ECDC64EB70E0CE018F9672D88CEDBA
:1017D00092E0F0DCCE018F96B9D9ECDCCE018F9689
:1017E00058D9DCDC6CED75E0CE018F9662D886EEC0
:1017F00092E0E0DCCE018F96A9D9DCDCCE018F9699
:1018000048D9CCDC61E070E0CE018F9618D881EF2A
:1018100092E0D0DCCE018F9699D9CCDCCE018F96A8
:1018200038D9BCDC67E070E0CE018F9608D889EF2C
:1018300092E0C0DCCE018F9689D9BCDCCE018F96B8
:1018400028D9ACDC60E370E0CE018F960E941F04C3
:1018500081E093E0AFDCCE018F9678D9ABDCCE018E
:101860008F9617D99BDC61E070E0CE018F960E94C5
:101870009D038AE093E09EDCCE018F9667D99ADCC7
:10188000CE018F9606D98ADC65E070E0CE018F9696
:101890000E949D0382E193E08DDCCE018F9656D9A4
:1018A00089DCCE018F96F5D879DC6EEE72E0CE0140
:1018B0008F960E949D038AE193E07CDCCE018F9697
:1018C00045D978DCCE018F96E4D868DC64EC7FEFF4
:1018D000CE018F960E949D0384E293E06BDCCE01E3
:1018E0008F9634D967DCCE018F96D3D857DCCE01E2
:1018F0004896B3DBCE01489652D849AC5AAC8AA17F
:101900009BA1481A590A0FA918AD88A199A1081BD3
:10191000190BEDA8FEA88E8D9F8DE81AF90ACBA8A9
:10192000DCA88C8D9D8DC81AD90AA9A8BAA88A8D61
:101930009B8DA81AB90A6FA478A8888D998D681A0A
:10194000790ACE01019689DB7A826982BC82AB82F8
:10195000DE82CD82F886EF821A8709875C864B8605
:1019600081E090E0033010F080E090E0481A590ADE
:10197000F801FF27EE0FFF1FE85EFD4F2081318148
:10198000240D351D2E0D311DB20176956795769586
:101990006795260F371FC201B401B2D0260F371F3B
:1019A000C201B101ADD0C901861B970B67E070E0A1
:1019B000A7D08F5F90E09E878D878DE293E0EEDB6E
:1019C00083E393E0F7DB8B859C85F5DB8AE393E08B
:1019D000F1DB89859A85EFDB82E493E0EBDB8F8195
:1019E0009885E9DB88E493E0E5DB89819A81E3DB94
:1019F0008CEE92E0DFDB8B819C81DDDB8FEC92E073
:101A0000D9DB8D819E81D7DB8EE992E0C7DB60ED6B
:101A100077E080E090E00E9458020E94FB017ECEB9
:101A2000EBE4F4E01382128288EE93E0A0E0B0E0F1
:101A300084839583A683B78326E332E031832083B2
:101A400025EC30E03587248724EC30E03787268783
:101A500020EC30E0318B208B21EC30E0338B228B7B
:101A600022EC30E0358B248B26EC30E0378B268B54
:101A7000118E128E138E148EE8EEF4E01382128211
:101A800084839583A683B78388E492E091838083DF
:101A90008AE395E0B7DAE4EFF4E016821782108665
:101AA0001186128613861486158616861786108A66
:101AB000118A128A138A148A158A0895A1E21A2EAD
:101AC000AA1BBB1BFD010DC0AA1FBB1FEE1FFF1FE2
:101AD000A217B307E407F50720F0A21BB30BE40B32
:101AE000F50B661F771F881F991F1A9469F7609579
:101AF0007095809590959B01AC01BD01CF01089533
:101B0000AA1BBB1B51E107C0AA1FBB1FA617B70723
:101B100010F0A61BB70B881F991F5A95A9F780953F
:101B20009095BC01CD01089597FB072E16F4009403
:101B300006D077FD08D0E4DF07FC05D03EF4909591
:101B400081959F4F0895709561957F4F0895EE0F91
:101B5000FF1F881F8BBF0790F691E02D199481E03D
:101B600090E0F894C9C20F931F93CF93DF93CDB742
:101B7000DEB72E970FB6F894DEBF0FBECDBF0E892D
:101B80001F8986E08C831A8309838FEF9FE79E83EA
:101B90008D83AE01465E5F4F688D798DCE010196D3
:101BA00011D02F813885F801E20FF31F10822E9695
:101BB0000FB6F894DEBF0FBECDBFDF91CF911F915E
:101BC0000F9108952F923F924F925F926F927F9262
:101BD0008F929F92AF92BF92CF92DF92EF92FF923D
:101BE0000F931F93CF93DF93CDB7DEB72C970FB62C
:101BF000F894DEBF0FBECDBF7C016B018A01FC01F2
:101C000017821682838181FFB0C1CE0101964C01FB
:101C1000F7019381F60193FD859193FF81916F0107
:101C2000882309F49EC1853239F493FD859193FF91
:101C300081916F01853221F4B70190E0C7D1E8CFDF
:101C4000512C312C20E02032A0F48B3269F030F49A
:101C5000803259F0833269F420612CC08D3239F022
:101C6000803339F4216026C02260246023C02860BC
:101C700021C027FD27C030ED380F3A3078F426FF19
:101C800006C0FAE05F9E300D1124532E13C08AE087
:101C9000389E300D1124332E20620CC08E3221F478
:101CA00026FD5FC1206406C08C3611F4206802C096
:101CB000883641F4F60193FD859193FF81916F0180
:101CC0008111C1CF982F9F7D9554933028F40C5FDC
:101CD0001F4FFFE3F9830DC0833631F0833771F076
:101CE000833509F057C021C0F801808189830E5FD8
:101CF0001F4F44244394512C540114C03801F2E086
:101D00006F0E711CF801A080B18026FF03C0652D05
:101D100070E002C06FEF7FEFC5012C874CD12C0122
:101D200083012C852F77222E16C03801F2E06F0E2A
:101D3000711CF801A080B18026FF03C0652D70E002
:101D400002C06FEF7FEFC5012C872AD12C012C85B3
:101D50002068222E830123FC19C0832D90E04816B1
:101D60005906A0F4B70180E290E030D13A94F5CF63
:101D7000F50127FC859127FE81915F01B70190E075
:101D800025D131103A94F1E04F1A51084114510411
:101D900079F7DEC0843611F0893631F5F80127FF76
:101DA00007C060817181828193810C5F1F4F08C0E1
:101DB00060817181072E000C880B990B0E5F1F4FFD
:101DC0002F76722E97FF09C090958095709561953A
:101DD0007F4F8F4F9F4F2068722E2AE030E0A40182
:101DE0002DD1A82EA81843C0853729F42F7EB22EF6
:101DF0002AE030E025C0F22FF97FBF2E8F36C1F0E8
:101E000018F4883579F0ADC0803719F0883721F0A3
:101E1000A8C02F2F2061B22EB4FE0DC08B2D846080
:101E2000B82E09C024FF0AC09F2F9660B92E06C0A5
:101E300028E030E005C020E130E002C020E132E0DF
:101E4000F801B7FE07C060817181828193810C5FC8
:101E50001F4F06C06081718180E090E00E5F1F4FD0
:101E6000A401ECD0A82EA818FB2DFF777F2E76FEBC
:101E70000BC0372D3E7FA51450F474FE0AC072FCCF
:101E800008C0372D3E7E05C0BA2C372D03C0BA2CB2
:101E900001C0B52C34FF0DC0FE01EA0DF11D80819B
:101EA000803311F4397E09C032FF06C0B394B39475
:101EB00004C0832F867809F0B39433FD12C030FF3D
:101EC00006C05A2CB31418F4530C5B18B32CB3147B
:101ED00060F4B70180E290E03C8778D0B3943C8511
:101EE000F6CFB31410F43B1801C0312C34FF11C0ED
:101EF000B70180E390E03C8769D03C8532FF16C093
:101F000031FD03C088E790E002C088E590E0B701AA
:101F10000CC0832F867851F031FF02C08BE201C0E4
:101F200080E237FD8DE2B70190E050D0A51430F487
:101F3000B70180E390E04AD05A94F8CFAA94F40114
:101F4000EA0DF11D8081B70190E040D0A110F6CFDD
:101F5000332009F45DCEB70180E290E037D03A94A7
:101F6000F7CFF7018681978102C08FEF9FEF2C9604
:101F70000FB6F894DEBF0FBECDBFDF91CF911F919A
:101F80000F91FF90EF90DF90CF90BF90AF909F9018
:101F90008F907F906F905F904F903F902F9008951B
:101FA000FC010590615070400110D8F78095909524
:101FB0008E0F9F1F0895FC01615070400190011029
:101FC000D8F7809590958E0F9F1F08950F931F93BC
:101FD000CF93DF93FB01238121FD03C08FEF9FEFA0
:101FE00028C022FF16C046815781248135814217BF
:101FF000530744F4A081B1819D012F5F3F4F31838E
:1020000020838C93268137812F5F3F4F3783268330
:1020100010C0EB01092F182F0084F185E02D1995D0
:10202000892BE1F68E819F8101969F838E83812F7C
:10203000902FDF91CF911F910F910895FA01AA2758
:10204000283051F1203181F1E8946F936E7F6E5FFB
:102050007F4F8F4F9F4FAF4FB1E03ED0B4E03CD0A9
:10206000670F781F891F9A1FA11D680F791F8A1F8C
:10207000911DA11D6A0F711D811D911DA11D20D0F3
:1020800009F468943F912AE0269F11243019305DAD
:102090003193DEF6CF010895462F4770405D41939E
:1020A000B3E00FD0C9F7F6CF462F4F70405D4A33EB
:1020B00018F0495D31FD4052419302D0A9F7EACFB3
:1020C000B4E0A6959795879577956795BA95C9F7E2
:1020D00000976105710508959B01AC010A2E0694D5
:1020E0005795479537952795BA95C9F7620F731F8E
:0C20F000841F951FA01D0895F894FFCFD9
:1020FC004E03520356035A035E03620366036A03DC
:10210C006E03720376037A037E0300000300020061
:10211C000500000003000500010004000600020099
:10212C0004000000000094016A082D01DA015E0130
:10213C003C015001000000002903FA025803CE02B2
:10214C00F202DE02CF0230256900252E32732D25D6
:10215C002E33732D256900252E32733A252E3273BA
:10216C003A252E327300564D4450565F317C315F08
:10217C00564D4450560A00564D4450525F007072F2
:10218C0065616D626C652E2E2E2E2E2E2E003D3D21
:10219C003D3D3D3D3D3D3D3D3D3D3D3D3D3D3D3D63
:1021AC003D004E6F773A002B35207365633A002B58
:1021BC003435207365633A002B3837303030207358
:1021CC0065633A002B35206D696E3A002B3138303F
:1021DC00206D696E3A002B31353030206D696E3AC6
:1021EC00002B31206872733A002B37206872733AD7
:1021FC00002B3438206872733A002B3120647973C9
:10220C003A002B35206479733A002B373530206433
:10221C0079733A002D3630206479733A004469663C
:10222C00663A0079656172733A006D6F6E7468730B
:10223C003A00646174653A00686F75723A002D2D2E
:10224C002D004A616E00466562004D61720041705E
:10225C0072004D6179004A756E004A756C004175CB
:10226C006700536570004F6374004E6F76004465D1
:06227C0063000D0A0000E2
:020000023000CC
:10E000000D9489F10D94B2F10D94B2F10D94B2F129
:10E010000D94B2F10D94B2F10D94B2F10D94B2F1F0
:10E020000D94B2F10D94B2F10D94B2F10D94B2F1E0
:10E030000D94B2F10D94B2F10D94B2F10D94B2F1D0
:10E040000D94B2F10D94B2F10D94B2F10D94B2F1C0
:10E050000D94B2F10D94B2F10D94B2F10D94B2F1B0
:10E060000D94B2F10D94B2F10D94B2F10D94B2F1A0
:10E070000D94B2F10D94B2F10D94B2F10D94B2F190
:10E080000D94B2F10D94B2F10D94B2F10D94B2F180
:10E090000D94B2F10D94B2F10D94B2F10D94B2F170
:10E0A0000D94B2F10D94B2F10D94B2F10D94B2F160
:10E0B0000D94B2F10D94B2F10D94B2F10D94B2F150
:10E0C0000D94B2F10D94B2F10D94B2F10D94B2F140
:10E0D0000D94B2F10D94B2F10D94B2F10D94B2F130
:10E0E0000D94B2F141546D656761323536300041AF
:10E0F000726475696E6F206578706C6F72657220DE
:10E1000073746B3530305632206279204D4C530099
:10E11000426F6F746C6F616465723E004875683F52
:10E1200000436F6D70696C6564206F6E203D200048
:10E130004350552054797065202020203D20005FF9
:10E140005F4156525F415243485F5F3D2000415658
:10E1500052204C696243205665723D20004743437C
:10E160002056657273696F6E203D20004350552024
:10E1700049442020202020203D20004C6F7720663D
:10E18000757365202020203D20004869676820665F
:10E190007573652020203D200045787420667573D6
:10E1A00065202020203D20004C6F636B2066757336
:10E1B000652020203D20004D617220203720323024
:10E1C000313300312E362E3800342E332E350056A2
:10E1D00023202020414444522020206F7020636F70
:10E1E00064652020202020696E73747275637469E1
:10E1F0006F6E2061646472202020496E74657272B3
:10E20000757074006E6F20766563746F7200726A49
:10E210006D702020006A6D70200057686174207056
:10E220006F72743A00506F7274206E6F7420737541
:10E2300070706F72746564004D7573742062652030
:10E2400061206C6574746572002000577269747483
:10E25000696E672045450052656164696E672045B7
:10E26000450045452065727220636E743D00504F35
:10E27000525400303D5A65726F2061646472003FF1
:10E280003D43505520737461747300403D454550C3
:10E29000524F4D207465737400423D426C696E6B41
:10E2A000204C454400453D44756D70204545505215
:10E2B0004F4D00463D44756D7020464C415348001B
:10E2C000483D48656C70004C3D4C69737420492F83
:10E2D0004F20506F72747300513D51756974005234
:10E2E0003D44756D702052414D00563D73686F7707
:10E2F00020696E7465727275707420566563746FF0
:10E30000727300593D506F727420626C696E6B00BD
:10E310002A0011241FBECFEFD1E2DEBFCDBF01E046
:10E320000CBF12E0A0E0B2E0EEE1FDEF03E00BBFB6
:10E3300002C007900D92A030B107D9F712E0A0E01B
:10E34000B2E001C01D92AE30B107E1F70F9460F367
:10E350000D948DFE01E20EBF0FEF0DBF11241FBE05
:10E360000D9460F30D9400F020E030E040ED57E0B4
:10E3700005C0FA013197F1F72F5F3F4F2817390792
:10E38000C0F308959C01260F311DC901A0E0B0E043
:10E390002F5F3F4FABBFFC018791882361F08093D3
:10E3A000C6008091C00086FFFCCF8091C0008064D1
:10E3B0008093C000EACF08958DE08093C6008091DD
:10E3C000C00086FFFCCF8091C00080648093C000B5
:10E3D0008AE08093C6008091C00086FFFCCF8091C8
:10E3E000C00080648093C00008950F94C2F10F9420
:10E3F000DCF10895FC019081992359F09093C600B7
:10E400008091C00086FFFCCF8091C0008064809323
:10E41000C0003196992379F70895282F982F929567
:10E420009F70892F805D8A3308F0895F8093C600D2
:10E430008091C00086FFFCCF8091C00080648093F3
:10E44000C000822F8F70982F905D9A3308F0995FEB
:10E450009093C6008091C00086FFFCCF8091C000E1
:10E4600080648093C00008959C01FB01853691056E
:10E470001CF46330710594F0C90164E670E00F94F8
:10E480002EFE605D7F4F6093C6008091C00086FFC6
:10E49000FCCF8091C00080648093C0002B30310598
:10E4A00014F43297B4F0C90164E670E00F942EFEC4
:10E4B0006AE070E00F942EFE605D7F4F6093C600AF
:10E4C0008091C00086FFFCCF8091C0008064809363
:10E4D000C000C9016AE070E00F942EFEC0968093E0
:10E4E000C6008091C00086FFFCCF8091C000806490
:10E4F0008093C00008951F93182F8EE692EE60E07F
:10E500000F94C2F11093C6008091C00086FFFCCF2B
:10E510008091C00080648093C0000F94DCF11F9153
:10E5200008952F923F924F925F926F927F928F92B7
:10E530009F92AF92BF92CF92DF92EF92FF920F9392
:10E540001F93DF93CF93CDB7DEB762970FB6F894E2
:10E55000DEBF0FBECDBF382E622ECA01DB015C01CB
:10E560006D01772420E2222E2E010894411C511CBB
:10E570008BC081E0A81680E0B80681E0C80680E084
:10E58000D80628F0C601AA27BB270F940DF2BB2797
:10E59000AD2D9C2D8B2D0F940DF28A2D0F940DF225
:10E5A0002092C6008091C00086FFFCCF8091C00001
:10E5B00080648093C0009DE29093C6008091C0006B
:10E5C00086FFFCCF8091C00080648093C0002092C1
:10E5D000C6008091C00086FFFCCF8091C00080649F
:10E5E0008093C00019828601750188249924A1E0D6
:10E5F0003A1651F03A1620F0B2E03B1661F409C029
:10E600000BBFF701779007C0C7010F9477FE782EF4
:10E6100002C0F7017080872D0F940DF22092C60082
:10E620008091C00086FFFCCF8091C0008064809301
:10E63000C000872D8052F401EF70F0708F3520F408
:10E64000E40DF51D708204C0E40DF51D8EE280839B
:10E650000894E11CF11C011D111D0894811C911CE2
:10E6600090E18916910409F0C2CF80E190E0A0E02A
:10E67000B0E0A80EB91ECA1EDB1E198AC2010F9493
:10E68000FAF10F94DCF16A94662009F072CF629679
:10E690000FB6F894DEBF0FBECDBFCF91DF911F91B3
:10E6A0000F91FF90EF90DF90CF90BF90AF909F9031
:10E6B0008F907F906F905F904F903F902F90089534
:10E6C0002F923F924F925F926F927F928F929F9282
:10E6D000AF92BF92CF92DF92EF92FF920F931F9370
:10E6E000DF93CF93CDB7DEB7CD53D1400FB6F894BB
:10E6F000DEBF0FBECDBF01E20EBF0FEF0DBF94B75F
:10E70000F894A89514BE80916000886180936000A1
:10E7100010926000789493FF05C0E0910002F091A0
:10E7200001021995279A2F9A8091C00082608093E8
:10E73000C00080E18093C40088E18093C1000000A4
:10E74000EE24FF24870144E0A42EB12CCC24DD2448
:10E7500024C0C5010197F1F70894E11CF11C011DCB
:10E76000111D21E2E2162EE4F20620E0020720E06D
:10E77000120718F031E0C32ED12CC801B70127ECE5
:10E780003BE140E050E00F9441FE611571058105C9
:10E79000910519F485B1805885B98091C00087FD35
:10E7A00003C0C114D104A9F2A6014F5F5F4FC25E3E
:10E7B000DE4F59834883CE51D140C25EDE4F8881FF
:10E7C0009981CE51D140019711F00D9410FEC05D9A
:10E7D000DE4F19821882C053D14060E0C15DDE4F28
:10E7E0001882CF52D14088249924C35DDE4F19820C
:10E7F0001882CD52D140C05EDE4F188219821A8233
:10E800001B82C052D140CE5CDE4F188219821A8220
:10E810001B82C253D140EE24FF2487010BBFF701B6
:10E8200007911691C45CDE4F19830883CC53D14005
:10E830000D940BFEC25EDE4F28813981CE51D1404E
:10E840002130310509F52091C600C25EDE4F1982E4
:10E850001882CE51D14022C02F5F3F4F4F4F5F4FA4
:10E86000213082E138078AE7480780E0580780F0C6
:10E87000C45CDE4FE881F981CC53D140EF5FFF4F9C
:10E8800019F0EE27FF27099420E030E040E050E047
:10E890008091C00087FFE0CF2091C600C35DDE4FAE
:10E8A00048815981CD52D1404F5F5F4FC35DDE4FEC
:10E8B00059834883CD52D140213209F063C64A3092
:10E8C000510508F05FC60894811C911C53E0851621
:10E8D000910409F059C600E010E018C081E280936D
:10E8E000C6008091C00086FFFCCF8091C00080648C
:10E8F0008093C0002F5F3F4F2931310579F70F9486
:10E90000DCF10F5F1F4F0530110519F020E030E0FA
:10E91000E5CF10920A0210920B0210920C02109294
:10E920000D02109206021092070210920802109235
:10E930000902109202021092030210920402109235
:10E9400005028FEE90EE60E00F94F5F180E191EE1C
:10E9500060E00F94C2F18091C00087FFFCCF9091DE
:10E96000C600903608F09F759032B8F09093C600BC
:10E970008091C00086FFFCCF8091C00080648093AE
:10E98000C000A0E2A093C6008091C00086FFFCCF2B
:10E990008091C00080648093C000983409F4D7C18E
:10E9A0009934B8F4923409F459C1933458F490333B
:10E9B00019F1903308F4E3C59F33A1F1903409F0C5
:10E9C000DEC5BDC0953409F470C1963409F0D7C5D1
:10E9D00098C1923509F42BC2933538F49C3409F46C
:10E9E000F5C1913509F0CBC518C2963509F445C279
:10E9F000993509F0C4C567C483E792EE62E00F94CD
:10EA0000F5F110920602109207021092080210927D
:10EA1000090210920A0210920B0210920C0210923C
:10EA20000D0213C18FE792EE62E00F94F5F18FEEC5
:10EA300090EE60E00F94F5F181E291EE60E00F94CA
:10EA4000C2F187EB91EE60E00F94F5F180E391EE77
:10EA500060E00F94C2F184EE90EE60E00F94F5F167
:10EA60008FE391EE60E00F94C2F186E090E061E008
:10EA700070E00F9434F20F94DCF18DE591EE60E0DC
:10EA80000F94C2F189EC91EE60E00F94F5F18EE401
:10EA900091EE60E00F94C2F183EC91EE60E00F9490
:10EAA000F5F18CE691EE60E00F94C2F18EE10F94E7
:10EAB0000DF288E90F940DF281E00F940DF20F949E
:10EAC000DCF18BE791EE60E00F94C2F119E0E0E039
:10EAD000F0E010935700E4918E2F0F940DF20F94F5
:10EAE000DCF18AE891EE60E00F94C2F1E3E0F0E03F
:10EAF00010935700E4918E2F0F940DF20F94DCF1D8
:10EB000089E991EE60E00F94C2F1E2E0F0E0109349
:10EB10005700E4918E2F0F940DF20F94DCF188EAE8
:10EB200091EE60E00F94C2F1E1E0F0E01093570045
:10EB30001491812F0F940DF20F94DCF107CF8BE825
:10EB400092EE62E00F94F5F18BE492EE60E00F94A8
:10EB5000F5F10F94DCF100E010E019C0C8016F2D51
:10EB60000F947FFEFF2031F489E492EE60E00F9471
:10EB7000C2F10BC0F092C6008091C00086FFFCCFAE
:10EB80008091C00080648093C0000F5F1F4FC80158
:10EB900081519F41A0E0B0E0ABBFFC01F790BAE229
:10EBA000FB1621F0E2E000301E07C1F60F94DCF105
:10EBB0000F94DCF187E592EE60E00F94F5F10F948D
:10EBC000DCF1CC24DD2400E010E01EC0C8010F946D
:10EBD00077FEF82E882331F489E492EE60E00F94FA
:10EBE000C2F10BC08093C6008091C00086FFFCCFAD
:10EBF0008091C00080648093C000FE1419F00894D6
:10EC0000C11CD11C0F5F1F4FC80181519F41A0E063
:10EC1000B0E0ABBFFC01E790FAE2EF1621F022E092
:10EC20000030120799F60F94DCF10F94DCF182E6C4
:10EC300092EE60E00F94C2F1C60161E070E00F94C3
:10EC400034F20F94DCF10F94DCF110920202109276
:10EC50000302109204021092050278CE89E992EE26
:10EC600062E00F94F5F1279A2F9A16C02F9880E052
:10EC700090E0E0EDF7E03197F1F7019684369105E9
:10EC8000C1F72F9A80E090E0E0EDF7E03197F1F7DF
:10EC9000019684369105C1F78091C00087FFE6CFC9
:10ECA0008091C00087FFFCCF64C485EA92EE62E0E9
:10ECB0000F94F5F140910202509103026091040219
:10ECC0007091050281E020E10F9491F2809102029F
:10ECD00090910302A0910402B091050280509F4FD1
:10ECE000AF4FBF4F8093020290930302A0930402A0
:10ECF000B093050280509041A040B04008F426CE69
:10ED0000A4CF83EB92EE62E00F94F5F140910602FE
:10ED100050910702609108027091090280E020E1A1
:10ED20000F9491F28091060290910702A09108023F
:10ED3000B091090280509F4FAF4FBF4F80930602A2
:10ED400090930702A0930802B0930902FFCD80ECD4
:10ED500092EE62E00F94F5F183E792EE60E00F949B
:10ED6000F5F18FE792EE60E00F94F5F18BE892EE0B
:10ED700060E00F94F5F189E992EE60E00F94F5F10F
:10ED800085EA92EE60E00F94F5F183EB92EE60E09D
:10ED90000F94F5F180EC92EE60E00F94F5F187ECC2
:10EDA00092EE60E00F94F5F188ED92EE60E00F9442
:10EDB000F5F18FED92EE60E00F94F5F18AEE92EEB0
:10EDC00060E00F94F5F183E093EEBDCD87EC92EE19
:10EDD00062E00F94F5F181E40F947BF282E40F94EA
:10EDE0007BF283E40F947BF284E40F947BF285E45E
:10EDF0000F947BF286E40F947BF287E40F947BF20E
:10EE000088E40F947BF28AE40F947BF28BE40F94F6
:10EE10007BF28CE40F947BF299CD88ED92EE62E068
:10EE20000F94F5F1772473948824992409C48FED05
:10EE300092EE62E00F94F5F140910A0250910B02BC
:10EE400060910C0270910D0282E020E10F9491F22A
:10EE500080910A0290910B02A0910C02B0910D02D8
:10EE600080509F4FAF4FBF4F80930A0290930B0289
:10EE7000A0930C02B0930D0269CD8AEE92EE62E08F
:10EE80000F94F5F184EE90EE60E00F94F5F18FECC5
:10EE900091EE60E00F94F5F1662477244301CC5D98
:10EEA000DE4F19821882C452D140D401C301B695F5
:10EEB000A79597958795CA5DDE4F88839983AA8326
:10EEC000BB83C652D140CC5DDE4FA881B981C4520C
:10EED000D1401196CC5DDE4FB983A883C452D14096
:10EEE000CD0162E070E00F9434F2B0E2B093C6005E
:10EEF0008091C00086FFFCCF8091C0008064809329
:10EF0000C000EDE2E093C6008091C00086FFFCCF18
:10EF10008091C00080648093C000F0E2F093C6004E
:10EF20008091C00086FFFCCF8091C00080648093F8
:10EF3000C000CA5DDE4FE880F9800A811B81C6529D
:10EF4000D140BB27A12F902F8F2D0F940DF2CA5DBA
:10EF5000DE4F8881C652D1400F940DF2B0E2FB2EF5
:10EF6000F092C6008091C00086FFFCCF8091C00067
:10EF700080648093C0000DE30093C6008091C000C0
:10EF800086FFFCCF8091C00080648093C00010E2B7
:10EF90001093C6008091C00086FFFCCF8091C00016
:10EFA00080648093C0008BBEF3012791C65DDE4F65
:10EFB0002883CA52D140A22EBB24CC24DD2408943D
:10EFC000611C711C811C911C8BBEF3018791282E42
:10EFD0003324442455240894611C711C811C911C09
:10EFE0008BBEF3013791C55DDE4F3883CB52D140E4
:10EFF0000894611C711C811C911C8BBEF30147910C
:10F00000C45DDE4F4883CC52D140ADEFEA2EAFEF66
:10F01000FA2EAFEF0A2FAFEF1A2F6E0C7F1C801E57
:10F02000911E142D032DF22CEE24EA0CFB1C0C1D5A
:10F030001D1D0F940DF220E22093C6008091C000A8
:10F0400086FFFCCF8091C00080648093C000C65DC5
:10F05000DE4F8881CA52D1400F940DF230E23093D6
:10F06000C6008091C00086FFFCCF8091C000806404
:10F070008093C000C45DDE4F8881CC52D1400F9494
:10F080000DF240E24093C6008091C00086FFFCCFA5
:10F090008091C00080648093C000C55DDE4F888190
:10F0A000CB52D1400F940DF250E25093C6008091A4
:10F0B000C00086FFFCCF8091C00080648093C000B8
:10F0C0008FEFE8168FEFF80680E0080780E018075A
:10F0D00031F484E092EE60E00F94C2F1DFC0D80119
:10F0E000C7018070907CA070B0708050904CA040A0
:10F0F000B040D1F52FEF3FE340E050E0E222F322B1
:10F1000004231523CA5DDE4FA880B980CA80DB8046
:10F11000C652D140AE0CBF1CC01ED11EAA0CBB1CD7
:10F12000CC1CDD1C8EE092EE60E00F94C2F1BB2798
:10F13000A12F902F8F2D0F940DF28E2D0F940DF285
:10F1400030E23093C6008091C00086FFFCCF8091F2
:10F15000C00080648093C0004EE34093C60080915D
:10F16000C00086FFFCCF87C08EE09EEFA0E0B0E03D
:10F17000E822F9220A231B239CE0E91694E9F90608
:10F1800090E0090790E0190709F088C0C45DDE4FE0
:10F19000A881CC52D140EA2EFF2400E010E0102FCD
:10F1A0000F2DFE2CEE24C55DDE4FB881CB52D14031
:10F1B000EB0EF11C011D111DD601C501817090706F
:10F1C000A070B070DC0199278827E80EF91E0A1F8D
:10F1D0001B1F20EF30E040E050E0A222B322C42207
:10F1E000D52241E1AA0CBB1CCC1CDD1C4A95D1F7F1
:10F1F000EA0CFB1C0C1D1D1D81E090E0A0E0B0E0BE
:10F20000282239224A225B2235E1220C331C441C7D
:10F21000551C3A95D1F7E20CF31C041D151D57013E
:10F220006801AA0CBB1CCC1CDD1C85E192EE60E0E1
:10F230000F94C2F1C801AA27BB270F940DF2BB2778
:10F24000A12F902F8F2D0F940DF28E2D0F940DF274
:10F2500090E29093C6008091C00086FFFCCF809121
:10F26000C00080648093C000AEE3A093C60080918C
:10F27000C00086FFFCCF8091C00080648093C000F6
:10F28000C601AA27BB270F940DF2BB27AD2D9C2DDD
:10F290008B2D0F940DF28A2D0F940DF20F94DCF14B
:10F2A000CC5DDE4FE881F981C452D140F99709F471
:10F2B0004DCBF4E0EF2EF12C012D112D6E0C7F1CA7
:10F2C000801E911EF2CD83E093EE62E00F94F5F183
:10F2D0008AE192EE60E00F94C2F18091C00087FF56
:10F2E000FCCF1091C6001F751093C6008091C0001E
:10F2F00086FFFCCF8091C00080648093C0000F9493
:10F30000DCF1812F81548A3108F036C1163409F4BA
:10F3100095C0173490F4133409F44EC0143430F40B
:10F320001134F1F0123409F01DC130C0143409F465
:10F3300059C0153409F016C16BC01A3409F4C4C0A1
:10F340001B3438F4173409F48FC0183409F00AC19B
:10F35000A1C01B3409F4D2C01C3409F003C1E8C0B9
:10F360008FEF81B90DC082B1809582B980E090E0C5
:10F37000E0EDF7E03197F1F70196883C9105C1F790
:10F380008091C00087FFEFCF12B8EFC08FEF84B934
:10F390000DC085B1809585B980E090E0E0EDF7E0A3
:10F3A0003197F1F70196883C9105C1F78091C00033
:10F3B00087FFEFCF15B8D9C08FEF87B90DC088B1DF
:10F3C000809588B980E090E0E0EDF7E03197F1F7C3
:10F3D0000196883C9105C1F78091C00087FFEFCF6F
:10F3E00018B8C3C08FEF8AB90DC08BB180958BB9A7
:10F3F00080E090E0E0EDF7E03197F1F70196883C8E
:10F400009105C1F78091C00087FFEFCF1BB8ADC059
:10F410008FEF8DB90DC08EB180958EB980E090E0F0
:10F42000E0EDF7E03197F1F70196883C9105C1F7DF
:10F430008091C00087FFEFCF1EB897C08FEF80BBD1
:10F440000DC081B3809581BB80E090E0E0EDF7E0F6
:10F450003197F1F70196883C9105C1F78091C00082
:10F4600087FFEFCF11BA81C08FEF83BB0DC084B38C
:10F47000809584BB80E090E0E0EDF7E03197F1F714
:10F480000196883C9105C1F78091C00087FFEFCFBE
:10F4900014BA6BC08FEF809301010FC080910201FD
:10F4A00080958093020180E090E0E0EDF7E03197F5
:10F4B000F1F70196883C9105C1F78091C00087FF64
:10F4C000EDCF1092020151C08FEF809304010FC065
:10F4D0008091050180958093050180E090E0E0ED4A
:10F4E000F7E03197F1F70196883C9105C1F78091DB
:10F4F000C00087FFEDCF1092050137C08FEF8093DA
:10F5000007010FC08091080180958093080180E079
:10F5100090E0E0EDF7E03197F1F70196883C910536
:10F52000C1F78091C00087FFEDCF109208011DC088
:10F530008FEF80930A010FC080910B01809580931B
:10F540000B0180E090E0E0EDF7E03197F1F70196F4
:10F55000883C9105C1F78091C00087FFEDCF1092E4
:10F560000B0103C085E292EEEEC98091C00087FFD7
:10F57000FCCF8091C600EAC988E392EEE4C98CE131
:10F5800091EEE1C988249924933011F1943028F444
:10F59000913089F09230B8F408C0953061F195301F
:10F5A000F0F0963009F048C043C02B3109F042C951
:10F5B00091E06BE13FC96227C15DDE4F2883CF52E6
:10F5C000D14092E037C9B22FA0E0622793E032C960
:10F5D000822F90E0A82BB92B622794E02BC92E3004
:10F5E00009F039C3622795E0C05DDE4F19821882A9
:10F5F000C053D1401FC9E1E0F0E0EC0FFD1FC05D3A
:10F60000DE4F08811981C053D140E00FF11F2083E4
:10F610000F5F1F4FC05DDE4F19830883C053D14079
:10F6200062270A171B0709F005C9D80196E002C92D
:10F63000261709F010C303C0973009F0FBC87724E0
:10F640009981933109F412C19431C8F4963009F4C8
:10F65000D8C0973050F4923009F406C1933009F4C1
:10F660006DC0913009F059C253C0913109F477C08F
:10F67000923108F0BBC0903109F04FC2F5C098310B
:10F6800009F487C0993150F4953109F4EFC09531F0
:10F6900008F4C6C1963109F040C2C2C19A3109F4DA
:10F6A0006CC09A3108F491C09B3109F45BC09D3164
:10F6B00009F033C29D81903359F48F81882311F46E
:10F6C0009EE11CC0813011F091E018C098E916C08D
:10F6D000892F807591F0903539F4E0E0F0E089E011
:10F6E0008093570094910AC0983539F4E3E0F0E034
:10F6F00089E080935700949101C090E01A821B82A8
:10F700008D818C831D829E831F8227E030E009C299
:10F710001A8288E08B8381E48C8386E58D8382E581
:10F720008E8389E48F8383E5888780E589878FE5E9
:10F730008A8782E38B872BE030E0F3C18A818139AD
:10F7400041F0823941F0803911F48FE005C080E04A
:10F7500003C082E001C08AE01A828B8344C0772410
:10F76000739482C08D81882311F48EE12CC0813086
:10F7700011F081E028C088E926C01A82E1E0F0E0BB
:10F7800089E08093570084918B831C8224E030E0D1
:10F79000C8C18B81803589F48C81883039F4E2E0EE
:10F7A000F0E089E08093570084910DC0E0E0F0E044
:10F7B00089E080935700849106C0E3E0F0E089E09F
:10F7C0008093570084911A82DFCF8D81836C99E0FA
:10F7D000E1E0F0E0082E90935700E89507B600FCB2
:10F7E000FDCF1A821B8223E030E09BC180EC8A832C
:10F7F000CE5CDE4F188219821A821B82C253D1401E
:10F800008EC18A8190E0A0E0B0E0582F44273327D2
:10F8100022278B8190E0A0E0B0E0DC0199278827C7
:10F82000282B392B4A2B5B2B8D8190E0A0E0B0E098
:10F83000282B392B4A2B5B2B8C8190E0A0E0B0E089
:10F84000BA2FA92F982F8827282B392B4A2B5B2BCF
:10F85000220F331F441F551FC05EDE4F288339839C
:10F860004A835B83C052D1401A8259C13A81C95C34
:10F87000DE4F3883C753D140CA5CDE4F1882C6536F
:10F88000D1408B81C82EDD24CA5CDE4F488159816E
:10F89000C653D140C42AD52A933109F082C0CE5C28
:10F8A000DE4F88819981AA81BB81C253D1408050AB
:10F8B000904CA340B04030F583E0CE5CDE4FE88052
:10F8C000F9800A811B81C253D140F70100935B008C
:10F8D00080935700E89507B600FCFDCFCE5CDE4F65
:10F8E000088119812A813B81C253D14000501F4FAA
:10F8F0002F4F3F4FCE5CDE4F088319832A833B8313
:10F90000C253D140C05EDE4F488159816A817B81FC
:10F91000C052D140DE011B9631E08C9111962C91A2
:10F9200011971296C75CDE4F2883C953D140C85C3B
:10F93000DE4F1882C853D14090E0C85CDE4FE881AA
:10F94000F981C853D1408E2B9F2B0C01FA01609393
:10F950005B0030935700E89511244E5F5F4F6F4F67
:10F960007F4F0EEFE02E0FEFF02ECE0CDF1CC114F8
:10F97000D10499F685E0C05EDE4F088119812A81A5
:10F980003B81C052D140F80120935B008093570027
:10F99000E89507B600FCFDCF81E180935700E8951C
:10F9A00035C0C05EDE4F88819981AA81BB81C0527B
:10F9B000D140B695A795979587957C018601ABE0D8
:10F9C000AA2EB12CAC0EBD1E0BC0D5016D915D01F0
:10F9D000C7010F947FFE0894E11CF11C01501040F8
:10F9E0000115110591F7A60160E070E0440F551F65
:10F9F000661F771FC05EDE4FE880F9800A811B8199
:10FA0000C052D1404E0D5F1D601F711F1A82C05E33
:10FA1000DE4F488359836A837B83C052D1407FC0C5
:10FA2000FA80C55CDE4FF882CB53D140C65CDE4F16
:10FA30001882CA53D1408B81C82EDD24C65CDE4FAC
:10FA400008811981CA53D140C02AD12A1A828981DA
:10FA5000BE016D5F7F4F843121F59601C05EDE4FA0
:10FA6000E880F9800A811B81C052D1400BBFF701A9
:10FA700087919691DB018C9311969C936E5F7F4FDB
:10FA8000D801C7010296A11DB11DC05EDE4F88835B
:10FA90009983AA83BB83C052D14022503040F1F6F3
:10FAA00036C0C05EDE4F288139814A815B81C052F9
:10FAB000D1400894C108D108760100E010E0089414
:10FAC000C11CD11C0894E11CF11C011D111DE20E8A
:10FAD000F31E041F151F21BDBB27A52F942F832FB5
:10FAE00082BD2F5F3F4F4F4F5F4FF89A80B5DB01CC
:10FAF0008D93BD012E153F054007510761F7C05E8C
:10FB0000DE4F288339834A835B83C052D1409601FC
:10FB10002D5F3F4FFB01108204C080EC8A8322E0FE
:10FB200030E08BE18093C6008091C00086FFFCCF5F
:10FB30008091C00080648093C000C15DDE4FF88179
:10FB4000CF52D140F093C6008091C00086FFFCCF19
:10FB50008091C00080648093C000432F3093C60022
:10FB60008091C00086FFFCCF8091C00080648093AC
:10FB7000C000922F2093C6008091C00086FFFCCF6A
:10FB80008091C00080648093C0008EE08093C600A6
:10FB90008091C00086FFFCCF8091C000806480937C
:10FBA000C00065E1C15DDE4FE880CF52D1406E25D7
:10FBB00069276427FE01319610C090819093C6009A
:10FBC0008091C00086FFFCCF31968091C000806498
:10FBD0008093C0006927215030402115310569F715
:10FBE0006093C6008091C00086FFFCCF8091C0006A
:10FBF00080648093C00085B1805885B9772081F4F6
:10FC0000C15DDE4F0881CF52D1400F5FC15DDE4F35
:10FC10000883CF52D14090E0A0E0B0E00D941AF4F8
:10FC200027982F9880E090E020ED37E0F901319798
:10FC3000F1F7019684369105C9F700008091C00064
:10FC40008D7F8093C00081E180935700E895EE2777
:10FC5000FF270994FFCF90E00D941AF497FB092E2B
:10FC600007260AD077FD04D02ED006D000201AF443
:10FC7000709561957F4F0895F6F7909581959F4F08
:10FC80000895A1E21A2EAA1BBB1BFD010DC0AA1FDD
:10FC9000BB1FEE1FFF1FA217B307E407F50720F0F5
:10FCA000A21BB30BE40BF50B661F771F881F991F70
:10FCB0001A9469F760957095809590959B01AC01B9
:10FCC000BD01CF010895AA1BBB1B51E107C0AA1FAC
:10FCD000BB1FA617B70710F0A61BB70B881F991FED
:10FCE0005A95A9F780959095BC01CD010895F99991
:10FCF000FECF92BD81BDF89A992780B50895262F31
:10FD0000F999FECF1FBA92BD81BD20BD0FB6F89400
:0EFD1000FA9AF99A0FBE01960895F894FFCF63
:040000033000E000E9
:00000001FF